:10000000000001203D020000950200009702000060
:10001000990200009B0200009D0200000000000009
:100020000000000000000000000000009F0200002F
:10003000A102000000000000A3020000A5020000D1
:10004000A9020000AB02000081150000E9150000C4
:10005000B1020000B3020000B5020000B7020000C8
:10006000B9020000BB020000BD020000BF02000098
:10007000C1020000C3020000C5020000C702000068
:10008000C9020000CB020000CD020000CF02000038
:10009000D1020000D3020000D5020000D702000008
:1000A000D9020000DB020000DD020000DF020000D8
:1000B000E1020000E3020000A7020000A702000026
:1000C000E5020000E7020000E9020000EB02000088
:0C00D000ED020000EF020000F102000051
:1000DC00364937480A1A02D0072291438D463549D2
:1000EC0035480A1A06D00722914381F30988022267
:1000FC0082F3148831483249324A00F045F83248CC
:10010C003249334A00F040F832483349334A00F060
:10011C003BF833483349344A00F036F83348344915
:10012C00344A00F031F834483449354A00F02CF8A0
:10013C0034483549354A00F027F83548354900220E
:10014C0000F02DF834483549002200F028F83448E6
:10015C003449091A082903DB0022026004300160CB
:10016C00314A90471F482049884205D00268043024
:10017C0003B4904703BCF7E700208646EC4600200A
:10018C0000212A4A9047FEE7884207D0521A05D030
:10019C00037801300B700131013AF9D17047884274
:1001AC0002D002700130FAE7704700000000012015
:1001BC0000E000200000012000000120F0340000CD
:1001CC001800002050000020F4020000F40200008F
:1001DC005C300000F03400001800002018000020F3
:1001EC00BC300000BC300000BC300000BC30000053
:1001FC00BC300000BC300000BC300000BC30000043
:10020C00F034000028350000500000205000002081
:10021C005000002040060020400600204006002030
:10022C00400600204026002061020000A9240000A6
:10023C000F484FF00701884385460E4880470E480B
:10024C00016841F470010160BFF34F8FBFF36F8FF2
:10025C00FFF73EBF09480A490A4A884207D0521A9A
:10026C0005D0037801300B700131013AF9D1704798
:10027C00000001200527000088ED00E0A4300000FC
:10028C000000002018000020FEE7FEE7FEE7FEE776
:10029C00FEE7FEE7FEE7FEE7FEE7FEE7FEE7FEE72A
:1002AC00FEE7FEE7FEE7FEE7FEE7FEE7FEE7FEE71A
:1002BC00FEE7FEE7FEE7FEE7FEE7FEE7FEE7FEE70A
:1002CC00FEE7FEE7FEE7FEE7FEE7FEE7FEE7FEE7FA
:1002DC00FEE7FEE7FEE7FEE7FEE7FEE7FEE7FEE7EA
:0802EC00FEE7FEE7FEE700BF9C
:1002F400F0B595B01C4608460D46164600F0CBFFF7
:100304001A9B099400240D930822234605A9284624
:1003140008960A948DF82C400C9400F0FAFF079B81
:100324000293BDF81830ADF80C30BDF81A30ADF8B2
:100334000E309DF814308DF8114003F00302012AA9
:100344001DD1BDF81440059EC3F3C203C4F3831446
:100354008DF81030A20008230EA9284600F0D9FF1A
:10036400C6F3952608AB0093224602AB0EA930468D
:1003740000F0E0FB284600F092FF15B0F0BD022A21
:10038400F8D1BDF81640C3F3C203C4F389148DF841
:1003940010300827082C264628BF08263B4632463C
:1003A4000EA9284600F0B5FFA41B08AB02AA3146EB
:1003B4000EA8374400F022FC002CEBD1DAE7000051
:1003C400014B01221A707047910000207047000011
:1003D40070B50E4D06460FCD88B06C460FC495E837
:1003E4000F0084E80F0008A9002E4FF00803084A04
:1003F40041F8203D08BF0022064801F081F808B109
:1004040000F052FC044B1E7008B070BDBC300000FC
:10041400C5030000180000205000002007B5044B5D
:100424000093044A4023FFF763FF03B05DF804FB25
:100434003D0400005100002038B50D4B0D4D002047
:1004440018700D4804782D5DD2B21C4665B1043095
:1004540001F076FF08B100F027FC084B1A7812B1BE
:100464002378002BFBD038BD0C3001F05FFDF1E7A1
:1004740091000020A4050020180000205000002056
:1004840008B50848084A0378D35C3BB1043001F04E
:10049400F3FE0020BDE80840FFF79ABF0C3001F0DE
:1004A400E1FCF6E718000020A40500200120FFF776
:1004B4008FBF000010B5054CFFF7F8FF042120465C
:1004C40000F0A8FA0123637210BD00BF2C000020C5
:1004D400037813F0030F10B503F0040402D004F002
:1004E400FF02F4B1B4B103F00303012B03D0022BD8
:1004F40009D0012010BD0A6800880232C0F38310BD
:1005040002440A60F5E70B684288023303EB921356
:100514000B60EEE70B684288013303EB9213028809
:10052400F4E7104610BD00002DE9F04F494C87B0A8
:100534000F460646851C0020019200F00BFC236840
:100544003B606268A3681344226801339B1A04F277
:100554001C4704F5836A04F21448AB4219D3019A88
:100564000023002A6ED0012262F3010343F0040346
:1005740066F389132168A2680A4003320D440020FF
:1005840044F82230256000F0E7FB012007B0BDE805
:10059400F08F0121384600F007FC504600F01EFCA5
:1005A400404600F01BFC0DF118096068D4F808B04F
:1005B40049F8100D00EA0B00033004EB80004946B3
:1005C400FFF786FF029BB8B90BEA030204EB820231
:1005D400D16803919A1C013303EA0B0B04EB8B0ED5
:1005E4000292DEF80C30049301F00303012B21D0B6
:1005F400022B04D083460CE00BEA0300DCE7BDF8D1
:100604000E30BDF812B0C3F38913033302EB930326
:100614000293404600F0E5FB08B1029B6360594633
:10062400384600F0C1FB6268A368134422680133B2
:100634009B1A92E7BDF80C30BDF812B0C3F38313D4
:100644001344E5E7022262F3010343F0040366F373
:100654009F538FE76401002008B50E4B0E48FF221C
:100664009A600022C3F818241A605A60C3F814244C
:1006740083F8202400F0C6FD38B9084A084B09491C
:100684009B1ADB0802469A4200D108BD21F82220B9
:100694000132F8E7640100208C3000005C30000077
:1006A4008C3000000000002030B50B4C79B10B4AAF
:1006B4000B49121BD20800239A4201D1002030BDFD
:1006C40001EB83056D88854202D00133F4E70346CC
:1006D40054F8330030BD00BF5C3000008C300000A3
:1006E40000000020094B013903EBC000032909D89D
:1006F400DFE801F00A02040604207047007970471D
:100704004079704700207047022070475C30000039
:10071400034B58681B68C31A58425841704700BFBE
:10072400640100202DE9F04385B0FFF7F1FF07468F
:10073400002840F0E380794DC5F81804BFF34F8FCB
:100744006868AC680DF1100848F8100D20400330BB
:1007540005EB80004146FFF7BBFE009B06460028E0
:100764005AD104EA0302991C013305EB82022340A7
:1007740005EB8303D268DB68029302F00303022BC8
:10078400019200915AD1BDF806306548C3F3891926
:100794004F46502FA8BF502767F38F1307F1080166
:1007A400ADF8063000F046FD8046002800F0AD802C
:1007B40000F071FD082201A93346404600F07EFD99
:1007C400009924EA01020132920097422FD9002AAB
:1007D40000F096802140D6B20331BF1B514C05EB8B
:1007E4008101FFB208233246404600F067FD34B170
:1007F40006F108033A462146404600F05FFD009B9F
:1008040009F1030903EB99030093D5F81834002B7D
:1008140047D1D5F8104450E02A689A4204D86A6057
:10082400384605B0BDE8F08304EA03008FE70C40C6
:10083400E11C08233A4605EB8101DDE7012B64D175
:10084400BDF804303648C3F38311062928BF0621B6
:1008540061F3891302318900ADF8043000F0EAFC39
:100864008046002851D000F016FD3346082201A925
:10087400404600F023FDBDF80420C2F38312B31CEC
:1008840096424FEA8303C0D200994A1C21400331A7
:10089400009205EB81010422404600F00FFD013671
:1008A400E9E7404600F0FBFCFFF732FF80F001006F
:1008B400C7B2B5E7637A5BBB6468002CFAD14046E3
:1008C40000F0EDFC204600F045FAD5F818340BB9D9
:1008D400009B6B60002000F03FFAE5E723682046A8
:1008E4009B6898476468002CF8D10F4B0F4918880F
:1008F400000440F0020000F073F8D5E700278FE70A
:10090400FEB21446074917466CE7D5F81044EAE7E7
:10091400236841461B6820469847CDE764010020C0
:100924008C3000007001002010000020E83000002E
:100934002DE9F74F284C80460F46924601A9012223
:1009440018469B46A568FFF7EFFD88B3DDF80490D1
:10095400002609F102025E4534D100211F4800F04F
:10096400FDF980F3100009F101022A4004EB820230
:10097400000405EA0903033340EA1840D06014F880
:10098400232068F3C50204F8232034F8232066F3F7
:10099400891224F8232054F82320012167F39F228D
:1009A40044F8232061F301026FF3820204F8232048
:1009B40094F820341BB1FFF7B5FE0028FBD103B037
:1009C400BDE8F08F02EA050104EB81015AF82630F4
:1009D400CB6001360132BEE76401002080050020AF
:1009E40000231A46FFF7A4BF07B58DE80C000223C5
:1009F4006A46FFF79DFF03B05DF804FB1FB5029341
:100A0400069B0192039301AA0323FFF791FF05B00C
:100A14005DF804FB0F4A30B5D2F810440023214698
:100A240041B90372D2F810444CB9C2F810044160C1
:100A3400184630BD0D7A9D4205D04968F0E76268DA
:100A440042606060F4E701330A2BE8D14FF0FF33D2
:100A5400EEE700BF64010020084A38B50123D2F84C
:100A6400104482F820341D4604B938BD23686572E9
:100A740020465B6898476468F6E700BF640100207D
:100A8400C38873B504460D4633B1144A0092144921
:100A9400144A284600F0FFF9217A05291CD0637A0C
:100AA4004BB1A088FFF71EFE0F4B104953F82020CE
:100AB400284600F0F0F9227A0D4BA08853F8226002
:100AC4000021FFF7F1FD0B4903463246284602B0E8
:100AD400BDE8704000F0DFB902B070BD63310000C2
:100AE4004B31000043310000103100006831000038
:100AF400783100006B310000037A052B10B50C46E9
:100B04000FD0437A23B1084A0849204600F0C3F9BC
:100B14000749204600F0BFF92046BDE8104000F028
:100B2400AFB9002AF8D0F3E7633100006831000060
:100B3400603100002DE9F04385B01F460C9D002371
:100B440006460C46904695F80C902B732946384679
:100B5400FFF796FFB8F1060F09D8DFE808F0041292
:100B6400181F283340003146284600F094F900222B
:100B740029463846FFF7C0FF85F80C9005B0BDE85C
:100B8400F08322683146284600F085F9EFE794E8BF
:100B94000C003146284600F07EF9E8E7A36800938C
:100BA400314694E80C00284600F075F9DFE7E36865
:100BB4000193A3680093314694E80C00284600F0A2
:100BC4006AF9D4E723690293E3680193A368009365
:100BD400314694E80C00284600F05DF9C7E76369E4
:100BE400039323690293E3680193A3680093314656
:100BF40094E80C00284600F04EF9B8E708292DE9DE
:100C0400F84F80460E4617461C4636D8002593F802
:100C14000C901D7319461046FFF732FFDFF87CA0D5
:100C2400DFF87CB0AE422AD918F805205946204690
:100C340000F031F90135082DF4D11649DFF864B01C
:100C4400204600F028F90025AE421DD918F805A069
:100C5400504602F06DF9002814BF52462E22594620
:100C6400204600F018F90135082DEDD10122214666
:100C74003846FFF741FF84F80C90BDE8F88F5146E1
:100C8400204600F008F9D5E70349204600F003F9AF
:100C9400E9E700BF3E3100003C3100003A3100007A
:100CA40034310000403100001FB50021039001AA37
:100CB40044F201000191029100F004F805B05DF8DE
:100CC40004FB000010B572B6FFF7C6FEFFF72AFD5D
:100CD4000028FBD1104C11492088000440F0010089
:100CE400FFF77EFE0E4B1B68DB0700D500BE208895
:100CF4000C49000440F00200FFF772FEBFF34F8F6F
:100D040009490A4BCA6802F4E0621343CB60BFF39B
:100D14004F8F00BFFDE700BF10000020D731000057
:100D2400F0ED00E0E331000000ED00E00400FA051E
:100D340072B6024A136801331360704788050020B5
:100D4400034A1368013B136003B962B6704700BFDE
:100D540088050020FFF7ECBFFFF7F2BF00B550E8AD
:100D6400002F0B4640E8003E9EF0000FF7D11046DE
:100D74005DF804FB00B550E8003F43EA010240E897
:100D8400002E9EF0000FF6D110465DF804FB00B56E
:100D940050E8002F02EA010340E8003E9EF0000FF5
:100DA400F6D110465DF804FB00B550E8003F03EBB4
:100DB400010240E8002E9EF0000FF6D110465DF8C7
:100DC40004FB00B550E8003FA3EB010240E8002E0D
:100DD4009EF0000FF6D110465DF804FB0121FFF7E9
:100DE400C9BF0021FFF7D3BF10B590B14268836833
:100DF40001689B1ADBB20A60013BDBB2FF2B02687D
:100E040002D10020107110BD11684C1C14600B70CD
:100E1400F2E70E2010BD38B504460020FFF79AFF14
:100E2400226863681168994213D9481E106011F84A
:100E3400015CE368A18A01FB0535A36811791B1ADB
:100E4400DBB2994200D213710020FFF785FF2846D8
:100E540038BD0025F8E738B5054600200C46FFF7F5
:100E640079FF2A681368591C1160E968641AA98A11
:100E7400B4FBF1F41C700020BDE83840FFF76CBFF0
:100E8400826810B504462AB143690168006998472D
:100E94000023A36010BD0EB403B5039929B102AABF
:100EA40004AB42F8043D00F06DF802B05DF804EBC9
:100EB40003B07047826830B40468551C8560A1543F
:100EC400826843689A4202D330BCFFF7D9BF30BC72
:100ED400704700002DE9F84F0A9C99460B9B174672
:100EE400824688460A460126BA420FD24E4538BF8A
:100EF4004E4613F0010B01D164B900240125B9F168
:100F0400010F1AD909F1FF397D43F8E7B2FBF7F273
:100F14000136E9E79B070ED5B9F1000F0CBF302568
:100F24002025A642EAD2013C29465046FFF7C2FFDB
:100F3400002CF6D1E1E72025F3E7B8FBF5F39F4257
:100F4400E2D9DFF83C90B8FBF5F3504619F80310EA
:100F540005FB1388FFF7AEFFB5FBF7F5002DF2D1C3
:100F6400BBF1000F0AD03CB9BDE8F88F013C202149
:100F74005046FFF79FFF0CB1A642F7D3BDE8F88FA8
:100F8400F03100002DE9F74F054617460C460029BD
:100F940000F0358114F8011B49B92B7B002B00F0BC
:100FA4002E81284603B0BDE8F04FFFF769BF25291D
:100FB40040F0218123460026194611F8012B2D2AE1
:100FC40024D0302A26D02B2A27D000242A2A994636
:100FD40003F1010124D13B681A1D1B683A601C44CB
:100FE400894699F800302E2B25D109F101014FF0E3
:100FF4000008894611F8012BA2F1300009281CD8F9
:101004000A2303FB0823A3F13008F2E746F00106A4
:101014000B46D1E746F00206FAE746F00406F7E786
:101024001A780B46A2F130010929DAD80A2101FB0A
:101034000424303CCAE74FF0000899F8001001F08E
:10104400FB02682A02D119F8011FF8E769290FD0B9
:101054004BD8582965D007D825296ED009F1010449
:101064002378002B96D198E7632962D06429F5D1BF
:101074003A68D2F800A0111D8AEAEA723960A2EB3C
:10108400EA724FF0010B092A5BDCC34538BFC34643
:101094002CB1BAF1000F01DB710700D5013CB20796
:1010A40002D5B8F1000F04D0F30702D4002C4ED1BE
:1010B4000024BAF1000F52DACAF1000A2D212846A1
:1010C400FFF7F8FE06F00302022A05D1B8F1000F7B
:1010D40002D1002C47D100248DE8500043460A2257
:1010E40051462846FFF7F6FEB8E773294CD014D8CA
:1010F4007029B3D13B681A1D3A60302128461C6818
:10110400FFF7D8FE78212846FFF7D4FE0023019389
:101114000823009310222146E3E775292BD0782970
:101124009CD139680A1D3A6043468DE8500010226C
:1011340028E03B681A1D19783A602846FFF7BAFE82
:101144008CE70A230BF1010B92FBF3F29BE7A34517
:10115400AFD220212846013CFFF7ACFEA6E770077A
:10116400B0D52B21ABE7A345B6D230212846013CAC
:10117400FFF7A0FEADE739680A1D3A608DE850001C
:1011840043460A220968ACE73B681A1D3A60F10736
:10119400D3F800A012D55646A6EB0A0B16F8011B8D
:1011A40041B95C457FF65AAF20212846013CFFF740
:1011B40081FEF6E72846FFF77DFEEDE7BAF1000F62
:1011C40011D0504601F018FF0646B44200D964B964
:1011D4000AF1FF3A1AF8011F00293FF43FAF2846ED
:1011E400FFF768FEF6E75646EFE720212846013C64
:1011F400FFF760FEE9E72846FFF75CFE30E703B03F
:10120400BDE8F08FFFF7F0BDF8B546790446721ECD
:1012140000239342246804D301460025B54202D337
:10122400F8BD0133F5E70F682046FFF714FE0135DA
:101234003946F3E72DE9F843878ACD1C8046FFF74A
:10124400EAFD043F3D440446B5FBF7F5002650B1E2
:101254000123EDB206714371C780013DC0F80080DF
:101264008146AE4202D32046BDE8F8834046FFF7EC
:10127400D2FD074648B16379013363710136C9F879
:101284000000C0F800808146EBE72046FFF7BCFF72
:101294003846BDE8F88301210430FFF785BD10B559
:1012A400012104460430FFF78CFD10F0FF0F04D138
:1012B4002046BDE81040FFF7A7BF10BD2DE9F84355
:1012C400C68804330F46B3FBF6F4154606FB143305
:1012D40080463CB9A6EB0309A94528BFA9462DB908
:1012E400BDE8F883D8F80080013CF2E7043308EB4A
:1012F4000300A5EB09054A46391901F01FFEAE4269
:101304004C44D8F80080B1464FF0000328BFA946EA
:10131400E5E72DE9F843C6880F46191D1546B1FBCC
:10132400F6F4804606FB14113CB9A6EB0109A94565
:1013340028BFA9462DB9BDE8F883D8F80080013C40
:10134400F2E704314144A5EB09054A46381901F096
:10135400F5FDAE424C44D8F80080B1464FF0000190
:1013640028BFA946E6E700001FB503788DF80030D2
:1013740003798DF8043043798DF8053083688DF84E
:101384000630C3688DF807300369029343690393F9
:10139400054A064B684653F8213052F82110984705
:1013A40005B05DF804FB00BF8C0500209405002007
:1013B400024B4FF4807043F00103184700320000E1
:1013C4002DE9F047924690F80080304A42F828A070
:1013D4002F4A42F828304B7B81460C46BBB3086841
:1013E400496882008B0002F1A04203F1A04340F25D
:1013F4000C65C2F800570126C3F800574FF0A0450A
:1014040006FA00F006FA01F1C5F80805C5F8081552
:1014140040F20D61C2F80017C3F80017FFF7C8FFC8
:101424000027D5F81025636822FA03F3DB071BD5E0
:101434006FB1636801254FF0A04605FA03F3C6F8BF
:101444000C35FFF7B5FF63689D40C6F80855BAF13F
:10145400000F43460F4A214609F1040008BF002249
:10146400BDE8F04700F060B9236806FA03F3C5F855
:101474000C35FFF79DFF236806FA03F3C5F808351A
:101484000137FFF795FF092FCBD1D2E79405002050
:101494008C0500206D1300001FB503788DF8003013
:1014A40043680193037A8DF80830C3680393054AAF
:1014B400054B684653F8213052F82110984705B07F
:1014C4005DF804FB9C050020A00500201FB50378EF
:1014D4008DF800304368019383688DF80830C36841
:1014E4000393054A054B684653F8213052F82110FE
:1014F400984705B05DF804FB9C050020A00500207A
:10150400F0B5194B067891F81DC043F82620174B07
:1015140096460A6943F82620154B03F806C00C4684
:1015240007460FCC89B06D460FC594E80F0085E8D7
:101534000F000496BCF1000F0AD0BEF1000F0D4A53
:10154400694608BF0022381D00F0CCFD09B0F0BD8B
:10155400BEF1000F084A694608BF002207F10C00DB
:1015640000F0BEFBF2E700BFA00500209C050020B0
:10157400A40500209D140000D1140000014B1B6839
:10158400184700BFA805002038B50A4B98420D46FD
:101594000CD10020FFF7DEFB074B1C7914B90122A4
:1015A4001D601A710020FFF7D7FB0CB9002038BD6D
:1015B400112038BD00200040A8050020034B9842AC
:1015C40001BF034B00221A601A71704700200040CB
:1015D400A80500200023435082B043580193019B87
:1015E40002B07047F0B54C4A4C4CD2F8243187B065
:1015F4001546A3B14FF492711046FFF7EBFFD2F8F2
:10160400043163B9A368C2F808330223A360A36852
:10161400C2F8043301231362536107B0F0BDD5F857
:101624000431002B49D03E4F3B484FF48271FFF701
:10163400D1FF0FCF01AE0FC63B68336094F82E3054
:101644007BB1237B012B0CBFD5F83C25D5F84C2569
:101654000292022B304B0CBFD3F83C35D3F84C35F7
:1016640003934FF4B0712C48FFF7B4FF4FF4AE71FD
:101674002948FFF7AFFF94F8303013B194F82E30B7
:101684003BB1254B0022C3F80022A260254AC3F8CF
:101694000823214AD2F8C434C2F8C4349A0736D590
:1016A40001238DF8003094F830300BB984F82F30D2
:1016B4002368616868469847AFE74FF4A4711648F9
:1016C400FFF788FF237B83B9154F0FCF01AE0FC6F9
:1016D4003B68336094F83030002BDAD1C5F800321F
:1016E400A360104BC5F80833D3E74FF40073C5F873
:1016F400003240F20223A36003F1CE73C5F808332D
:10170400A368C5F804330123AB602B6285E713F0AB
:10171400040318BF0223C4E700300040B0050020D2
:10172400BC05002002029C012DE9F84F0579374CD5
:101734004FF0340808FB05F804EB08069B4696F8BE
:101744002D3081460F469246002B59D1304900680E
:10175400FFF71AFF002856D139687B7B86F83230B0
:1017640001F5E0724FF0A043B060C6F804B086F80B
:101774002F0086F8300040F20C6644F808A043F8C5
:1017840022607A6802F5E07E43F82E60D9F80030D2
:10179400C3F80815C3F80C25BA68C3F82425BAF1B0
:1017A400000F25D01A0B53B2002B397BB4BF194E4E
:1017B40003F160464FEA53134FEA4111B4BF02F0FC
:1017C4000F0706F561464FEA8303B4BFC9B2C9B235
:1017D40003F16043B4BFF15586F8001303F5614388
:1017E40002F01F02012101FA02F2C3F880211A60FB
:1017F400342303FB0544012384F82D30BDE8F88F1E
:101804000820BDE8F88F1120BDE8F88FB00500204E
:10181400E915000014ED00E0026803790621C2F81E
:101824000015044A342101FB0323022283F82D20EE
:10183400704700BFB00500202DE9F843CB6803F0E2
:101844006043B3F1005F0D46904603D0102210466A
:10185400BDE8F8830779964E0468964BC4F80833BC
:101864004FF0340E0EFB076E9EF82F302BB1DEF8CE
:101874000830C4F804331122E9E712F0140F0CBF46
:10188400012300238EF82F308946B9E80F000EF1AA
:101894000C0CACE80F00D9F80030CCF80030C8F3D9
:1018A40000138EF830306B78C4F888354FF48271A9
:1018B4002046FFF78FFE4FF492712046FFF78AFE11
:1018C40018F0010318BF0123C4F8503518F00203BF
:1018D40018BF0123C4F840352B78032B00F2C780CE
:1018E400DFE803F086AF6A022B6903F06043B3F1CB
:1018F400005FABD14FF48073EA68C4F800326B68C0
:10190400C4F844254FF4A871C4F848352046FFF7BD
:1019140061FE4FF4B0712046FFF75CFE4FF4A471F2
:101924002046FFF757FE01232362A360D4F8503109
:10193400002BFBD04FF4A8712046FFF74BFEAB6899
:101944002A69C4F84425C4F848355B4A342303FBA8
:1019540007639A604FF482730821002218F0080F7D
:1019640004D1287803281CBF012060503421794316
:101974007018715800297FD1012523441968002962
:1019840000F087803421D4F8C434C4F8C43401FB93
:101994000766002186F82F10002B3FF458AF13F090
:1019A400020F48F2012208BF032213F0040F48F289
:1019B400022318BF1A464AE76B68EA68C4F844254C
:1019C400C4F848352B6903F06042B2F1005F7FF43C
:1019D4003DAFAA68C4F834354FF48453C4F83825AD
:1019E400C4F80032342303FB076340F20222B0E759
:1019F4006B68EA68C4F8442518F0200FC4F8483529
:101A04004FF0340311D003FB07634FF48072C4F822
:101A14000022294A9A604FF4A4712046FFF7DAFDA8
:101A24004FF4A4730122226296E74FF4007203FB81
:101A34000763C4F8002240F202229A604FF48273D2
:101A4400F0E76B68EA68C4F83425C4F838354FF415
:101A54008053C4F80032342303FB076340F20222AC
:101A64009A600123236200214FF4827375E74FF4D7
:101A740082730821072271E718F0040F1CBF4FF48A
:101A840000738360342303FB0766B368C4F804332C
:101A9400DDE6D4F8241100293FF470AF4FF49271BD
:101AA4002046FFF797FD25624FF48273656164E772
:101AB400B005002002029C0100020400F0B587B0CA
:101AC40004460F4615460021142201A81E4601F0C3
:101AD4005FFA9DF830308DF80570002B14BF20227A
:101AE400002201A9204602960495FFF7A5FE07B03F
:101AF400F0BDF0B587B004460F4615460021142208
:101B040001A81E4601F044FA0123002201A920463F
:101B14008DF804308DF8057002960495FFF78CFE5D
:101B240007B0F0BD0023435082B043580193019B9A
:101B340002B070470A4610B54FF48E71FFF7F2FFFA
:101B4400136A9168C95C136A01331362C0F81C15E7
:101B540010BD8B690A4610B54FF4847123B9FFF7A1
:101B6400E1FFD0F8183510BDFFF7DCFF536AD168E8
:101B7400D0F81805C854536A0133536210BD0000ED
:101B84001FB501238DF80030044B02900191684683
:101B940093E80600904705B05DF804FBE4050020D7
:101BA40030B54D4AD2F8043313F4007F85B015469E
:101BB4004FD0D2F82431002B4BD04FF49271104601
:101BC400FFF7B0FF4FF40173C2F80833434B93F8A7
:101BD400291009B9012151603F4902228DF80020E2
:101BE400D1F88024C1F8802403929A690292DA68B9
:101BF400019200229A61DA61684693E806009047F0
:101C04003548D0F81C315BB134490A6A4B699A42B1
:101C14000A464CD291F82830002B48D1FFF78AFFAE
:101C24002D4AD2F8443193B14FF4A2711046FFF714
:101C340079FF2A4B93F8291009B1012111609A699F
:101C44002AB100229A61586AD968FFF799FF05B052
:101C540030BDD5F804335B07D2D5D5F80831002B55
:101C6400CED01E4C1C482146FFF773FF636AA2695D
:101C74009A422346C4D1E26952B12369E168E36020
:101C84000023606AA261E3616362FFF779FFB7E74B
:101C940094F829200AB901226A600F4A4FF40171AD
:101CA400C2F8081300229A61586AD968EDE74FF424
:101CB4008E710948FFF736FF51690029B0D000231F
:101CC400029191688DF8003001915361684692E861
:101CD4000A009847A4E700BF00200040E405002064
:101CE4002DE9F8435B4B047991462C2202FB043224
:101CF400064692F82A200D469846002A40F0A58010
:101D040055490068FFF740FC0746002840F09F80D3
:101D140029683368481C0BD04FF0A04001228A4048
:101D2400C0F8082501F5E0724FF0030E40F822E0F8
:101D34006868421C1FBF00F5E0724FF0A04E4FF0E0
:101D4400000C4EF822C0AA6995F814E0C3F82425C3
:101D54006A7DBEF1010F4EEA0202C3F86C25C3F896
:101D64001405C3F80C151DD1AA68511C1FBF02F538
:101D7400E0714FF0A0404FF0000E40F821E0E96818
:101D8400481C0BD04FF0A04E01208840CEF8080527
:101D940001F5E0704FF0030C4EF820C0C3F80815AD
:101DA400C3F810252C23634308EB0302C2F8049004
:101DB4002A6948F80320B9F1000F33D04FF48E712B
:101DC40030682D7FFFF7AEFE30684FF4A271FFF745
:101DD400A9FE3268214BC2F80433120B53B2002B14
:101DE400A8BF03F160404FEA53134FEA4511BABF4D
:101DF4001B4802F00F0500F561404FEA8303B4BFAE
:101E0400C9B2C9B203F16043B4BF415580F80013AD
:101E140003F5614302F01F02012101FA02F2C3F843
:101E240080211A6033680422C3F800252C2303FBA5
:101E3400048300229A61DA6183F829205A6101221D
:101E440083F82A203846BDE8F8830827FAE71127E3
:101E5400F8E700BFE4050020A51B00008000020095
:101E640014ED00E0F8B5047900682D4D0023C0F8A6
:101E740000352C2303FB04535B6873B1294BC0F872
:101E84000833020B53B201215B0902F01F0201FA6D
:101E940002F22033244941F82320D0F80C65D0F80D
:101EA4001415D0F80835D0F810254FF0FF37BE428E
:101EB400C0F8147518BF06F5E076C0F80C75C0F8C4
:101EC4000875C0F810751EBF4FF0A0474FF0020E02
:101ED40047F826E04E1C1FBF4FF0A04601F5E07105
:101EE400022746F82170511C1FBF4FF0A04102F594
:101EF400E072022641F822605A1C1FBF03F5E0730A
:101F04004FF0A042022142F82310FFF757FB2C2385
:101F140003FB0454002384F82A306360F8BD00BF37
:101F2400E40500208402020000E100E02DE9F8430A
:101F3400234F06794FF02C0909FB06748046656926
:101F4400002D37D16261A16025624FF48E71006863
:101F540084F82850FFF7E6FDD8F8000001238360D9
:101F64002146FFF7E7FD6368A14633BBD8F800506C
:101F7400226A63699A4212D3D8F80030D3F81C213C
:101F8400002AFBD00122DA6000202C2303FB067612
:101F940000237361BDE8F88394F8283043B9D5F879
:101FA4001C31002BF8D049462846FFF7C3FDDFE774
:101FB4000F20EAE71120BDE8F8832846BDE8F8833E
:101FC400E40500200023435082B043580193019B51
:101FD40002B070471FB501238DF80030054B8DF812
:101FE40008000191684693E80600904705B05DF843
:101FF40004FB00BF100600207FB5384AD2F82461E4
:10200400002E49D010464FF49271FFF7DBFF0223F4
:102014008DF80030D2F88034C2F880340393D2F8BB
:102024003C358DF808302E4BDA68019200229A6113
:10203400DA61684693E806009047284AD2F84431AA
:1020440073B14FF4A2711046FFF7BCFF244B99699A
:1020540031B100219961D2F83C05D968FFF7BAFF84
:102064001E4AD2F82031ABB14FF490711046FFF7FD
:10207400A9FF1B4B596969B1D2F84C158DF80810AA
:10208400002299688DF8002001915A61684693E80E
:102094000600904704B070BDD2F81031002BCCD0AC
:1020A4004FF488711046FFF78DFF0D4BD2F83C05B5
:1020B40099698842C1D1DC696CB1D2F80052D968FF
:1020C40025F02005C2F800521A699C61DA60DE61CD
:1020D400FFF780FFB1E79C61D968F9E70020004071
:1020E400100600202DE9F8435F4B0679914624221F
:1020F40002FB0632044692F820200D469846002A38
:1021040040F0AD8059490068FFF73EFA07460028C1
:1021140040F0A78029682368481C0BD04FF0A040EA
:1021240001228A40C0F8082501F5E0724FF0030E41
:1021340040F822E06868421C1FBF00F5E0724FF0CF
:10214400A04E4FF0000C4EF822C0AA6995F814E096
:10215400C3F824256A7DBEF1010F4EEA0202C3F8DA
:102164006C25C3F80C15C3F814051DD1AA68511CBD
:102174001FBF02F5E0714FF0A0404FF0000E40F891
:1021840021E0E968481C0BD04FF0A04E01208840A4
:10219400CEF8080501F5E0704FF0030C4EF820C0AE
:1021A400C3F80815C3F810252423734308EB03026E
:1021B400C2F804902A6948F80320B9F1000F3DD011
:1021C4004FF4887120682D7FFFF7FCFE4FF4907167
:1021D4002068FFF7F7FE4FF492712068FFF7F2FED4
:1021E40020684FF4A271FFF7EDFE2268204BC2F87D
:1021F4000433120B53B2002BA8BF03F160404FEA23
:1022040053134FEA4511BABF1A4802F00F0500F5FF
:1022140061404FEA8303B4BFC9B2C9B203F160435A
:10222400B4BF415580F8001303F5614302F01F0267
:10223400012101FA02F2C3F880211A6023680822FE
:10224400C3F80025242303FB068300229A61DA6184
:102254005A61012283F820203846BDE8F883082714
:10226400FAE71127F8E700BF10060020FD1F000061
:102274001003020014ED00E0F8B5047900682D4D58
:102284000023C0F80035242303FB04535B6873B1B7
:10229400294BC0F80833020B53B201215B0902F049
:1022A4001F0201FA02F22033244941F82320D0F816
:1022B4000C65D0F81415D0F80835D0F810254FF077
:1022C400FF37BE42C0F80C7518BF06F5E076C0F8BB
:1022D4001475C0F80875C0F810751EBF4FF0A047FC
:1022E4004FF0020E47F826E04E1C1FBF4FF0A046E9
:1022F40001F5E071022746F82170511C1FBF4FF011
:10230400A04102F5E072022641F822605A1C1FBF68
:1023140003F5E0734FF0A042022142F82310FFF7C7
:102324004DF9242303FB0454002384F82030636014
:10233400F8BD00BF100600201003020000E100E019
:1023440001F06043B3F1005F2DE9F041074632D15B
:102354001D4B0679242505FB063598466C696CBB34
:102364006A61A96000684FF49071FFF72BFE4FF487
:10237400AC713868FFF726FE3B686A69A968C3F840
:102384004415C3F8482501229A606A68CAB9D3F88B
:102394002011D3F8582149B9002AF8D00F2024235A
:1023A40003FB068600237361BDE8F081002A14BF95
:1023B4000F200020F3E71020BDE8F0811120BDE8D4
:1023C400F0812046BDE8F081100600201FB51022E0
:1023D4000021684600F0DCFD0B210C224FF0CC7389
:1023E4008DE80E0002238DF80C3000231A4669464E
:1023F4000548FEF7E5FF08B1FEF756FC0348FFF772
:102404000BFA05B05DF804FB283200002C32000002
:1024140073B51D4D1D4C1E4800232B70E7232370FC
:102424000123009322464021FFF748FB08B1FEF741
:102434003BFC0123174A16484021FFF75AFB08B119
:10244400FEF732FC0023E6226678227063702B705C
:1024540000930E4A0E4802234021FFF72FFB0E4B38
:102464000E4904461888009600042346224640F08C
:102474000300FEF7C3FA2CB1204602B0BDE8704059
:10248400FEF712BC02B070BD3806002039060020E9
:102494002C3200003A060020100000207F32000099
:1024A400000000002DE9F04F4FF4004185B00020FA
:1024B400FEF7D2F808B1FEF7F7FB684DFDF7FAFF17
:1024C4004FF0A043288866490322C3F8602700041C
:1024D4004FF08072C3F80C2540F00300FEF780FA39
:1024E400FEF720F90028FBD1FFF770FFFFF790FFFC
:1024F4005C4EDFF890914FF000085B4F4FF4FA7494
:1025040047F001074FF47A40B847013CFAD1DFF8AD
:1025140078A18AF8004004ACE52304F8043D0123C3
:102524000093224640213046FFF7C8FA08B1FEF76F
:10253400BBFB00238AF800302246022340213046A8
:10254400FFF7D7FA08B1FEF7AFFB9DF80C309DF802
:102554000D00464F50EA032049D100233B60E0239D
:102564004FF0000B8DF80C3001238AF800B022469E
:10257400009340213046FFF7A1FA08B1FEF794FB1F
:1025840002232246402130468AF800B0FFF7B1FA10
:1025940008B1FEF789FB9DF80C309DF80D00344C12
:1025A40050EA03203BD100232360206800F014FA92
:1025B40042464B4600F0AEFB00F0E6F90FFA80FA13
:1025C400386800F009FA42464B4600F0A3FB00F0DD
:1025D400DBF92C882749240402B2534644F0030053
:1025E400FEF702FAFEF79EF80028FBD185E707EE16
:1025F400900AF8EE677A17EE900A00F0EDF90022DF
:102604001D4B00F087FB00221C4B00F083FB0022D3
:102614001B4B00F039FA00F0FBF938609FE700F03B
:10262400A1F90AA3D3E9002300F074FB0022134BA1
:1026340000F070FB07A3D3E9002300F025FA00F0B3
:10264400E7F92060B1E700BFAFF30080D7A3703D86
:102654000AF76540CDCCCCCCCC6C474010000020B0
:10266400383200002C3200002032000034060020F2
:102674003C0600205432000000405F400000F03E61
:10268400000018400000244038060020094B1B7845
:10269400062B0CD1084B1B681A0708D1074B186886
:1026A40000F0F000A0F13003584258417047002078
:1026B400704700BFE00F00F0E40F00F0E80F00F0F7
:1026C4000C4B1B78062B10D10B4B1B681A070CD133
:1026D4000A4B186800F0F003302B08D000F0E0003B
:1026E400A0F1400358425841704700207047012030
:1026F400704700BFE00F00F0E40F00F0E80F00F0B7
:1027040008B5FFF7DDFF28B17F4B804A1B68C3F390
:1027140004231360FFF7BAFF10B17D4B7D4A1A60A2
:10272400FFF7CEFF28B17C4B7C4A1B68C3F34233CE
:102734001360FFF7ABFF20B1794AD36823F08073AD
:10274400D360FFF7BDFF40B14FF080430022C3F8D0
:102754000C21C3F81021C3F83825FFF797FF10B1F7
:10276400704B03221A60FFF791FF40B16E4B0522B4
:102774001A6001229A6700229A603F225A606B4BCA
:102784001B78062B09D16A4B1B68190705D1694BC5
:102794001B6803F0F003502B67D0FFF791FF28B1BB
:1027A400654B664A1B6803F04F031360FFF788FF0D
:1027B40048B14FF08043D3F80024D20744BF6FF0F0
:1027C4000102C3F800245E4B1B68062B04D15D4B49
:1027D4001B68062B00F091805B4AD2F8883043F4E2
:1027E4007003C2F88830BFF34F8FBFF36F8F4FF081
:1027F4001023D3F80022002A03DBD3F80432002B81
:102804002FDA524B0122C3F80425D3F80024002AFE
:10281400FBD04FF010221521C2F80012D3F8002487
:10282400002AFBD04FF010231522C3F80422474B93
:102834001A46D3F800140029FBD00021C3F804156C
:10284400D2F80034002BFBD0BFF34F8F3E49404BEE
:10285400CA6802F4E0621343CB60BFF34F8F00BF3A
:10286400FDE73C4B3C4A1A6008BD4FF080523B4B9D
:10287400D2F80414C3F82015D2F80814C3F82415A8
:10288400D2F80C14C3F82815D2F81014C3F82C1578
:10289400D2F81414C3F83015D2F81814C3F8341548
:1028A400D2F81C14C3F84015D2F82014C3F8441508
:1028B400D2F82414C3F84815D2F82814C3F84C15D8
:1028C400D2F82C14C3F85015D2F83014C3F85415A8
:1028D400D2F83414C3F86015D2F83814C3F8641568
:1028E400D2F83C14C3F86815D2F84014C3F86C1538
:1028F400D2F84424C3F870254FE7194A136843F407
:102904008063136068E700BF240300104035014072
:1029140074C007400DF0ADBA440200103C050040FD
:10292400F0ED00E0A005004010560040E00F00F07C
:10293400E40F00F0E80F00F058020010E40E00402D
:10294400300100103401001000ED00E000E001400F
:102954000400FA05380000200090D00300C00040B5
:102964003C170040004204BF014670474FF48062A8
:1029740042F01D02B0FA80F18840521AC30A4005A1
:1029840003EB0251704700BF4B005A0DA2F5407291
:10299400FF3A0FD4D2F11F020EDD11EA410F4FEAC4
:1029A400C12141EA505040F0004020FA02F028BF13
:1029B4004042704700207047004218BF43F00103B3
:1029C40013F5001F88BF21F0004111F0004058BFEB
:1029D4006FF00040704700BFC0F3C751094208BF01
:1029E40000F0004042004FEA40704FEA121118BF55
:1029F40001F1605128BF81F000414FF08073D34250
:102A040038BF704701F1605118BF41F4002170478D
:102A14004FF4001313EB410F24D24FEA4102B2F1F9
:102A2400E04324BFB3F5001CDCF1FE5C0DD901F0DA
:102A340000414FEAC00241EA5070B2F1004F40EB4E
:102A4400830008BF20F00100704711F0804F04BFDD
:102A540001F00040704701F0004040F0FE4040F4B7
:102A64000000704701D10042F5D049004FEAC1018E
:102A740041EA10704FEA300040F48000704700BF14
:102A840081F0004183F0004383F00043F0B491EA05
:102A9400030F00F18E80841A71EB030603D212191E
:102AA4007341001BB1414FF07F4646F4600616EABD
:102AB400410F08BF62E0B6EB410F98BF69E04FEAEF
:102AC4001154A4EB1357B14341F4801116EA430F98
:102AD40007BF00230022B34343F48013D7F1200639
:102AE40034D303FA06F5401941F1000122FA07F53F
:102AF400401923FA07F541EB050102FA06F211F435
:102B0400001F19D121F4801101EB0451F0BCB2F182
:102B1400004F08BF10EA500F50F1000041F10001CE
:102B24004FF07F4343F46003B3EB410F88BF70471A
:102B3400090D09050020704749085FEA30005FEA83
:102B4400320228BF42F001020134DBE7203F402F6C
:102B540019D223FA07F5401941F10001C7F1200603
:102B6400124218BF012203FA06F52A43C7E711EA05
:102B7400560F04BF00200021F0BC704701F0004153
:102B84000020F0BC704721F4801101EB0451F0BC2B
:102B94007047004218BF41F00101B6EB410F04BF7A
:102BA400F0BC70474FF0FE4141F478010020F0BCC6
:102BB400704783F00043841A71EB030705D287F052
:102BC4000047001BB94112197B415FF07F4656F460
:102BD400600616EA430FCAD0B6EB410F40F28C8070
:102BE4000C0DA4EB1357C90241EA5051C00241F045
:102BF4000041DB0243EA5253D20243F00043D7F1CF
:102C040020065AD302FA06FCFA4003FA06F52A43D0
:102C1400FB401CEA0C0F18BF42F00102801A9941D4
:102C2400E30A6405640D11F0404F2ED427D1002926
:102C340002BF01460020203C00295BD0B1F5803F53
:102C44003FBF103C090441EA10410004B1F1807F08
:102C54003FBF083C090241EA10610002B1F1805F04
:102C64003FBF043C090141EA1071000111F0404FDB
:102C740001BF023C890041EA9071800009425FBFB4
:102C8400013C490041EAD0714000002C11DD4205AD
:102C940021F00041C00A40EA4150C90A41EAC37127
:102CA400460872F1004250F1000051EB0451F0BCAF
:102CB40070470020D907F0BC7047A7F12007202FE8
:102CC4000CD2C7F1200603FA06F5FB402A4318BFCD
:102CD40043F00103C01A61F10001A1E721F00041B2
:102CE400C00A40EA4150C90A01EB0451F0BC7047E4
:102CF40000200021F0BC7047004218BF41F00101E0
:102D0400B6EB410F7FF44EAFB6EB430F3FF44AAF3F
:102D1400F0BC7047F0B5574F81EA030517EA010E7E
:102D24001EBF9EEA070F17EA030494EA070F64D054
:102D34004EEAD57EA64421EA470141F4801123EAF4
:102D4400470343F48013A1FB0247A0FB0365361934
:102D54007D41A1FB034747F10003A0FB0217F619CD
:102D6400654153F10003094218BF46F001061427D8
:102D7400B3F5007F47F1000734BF3F4A3F4ABEEB3B
:102D8400020E31D4C7F1200403FA04F105FA04F069
:102D940025FA07F2114326FA07F2104316FA04F44F
:102DA40021F480114FEA5E0741EA47010AD0B4F1E9
:102DB400004F50F1000041F10001B4F1004F08BF91
:102DC40020F001002B4F1EEA070F10D041EACE710C
:102DD400BE453CBFBDE8F04070472649002041EAAB
:102DE400CE71BDE8F04070471EEB020EF5D44FEAF9
:102DF400CE710020BDE8F0407047394204BF01F0B5
:102E040000410020004218BF41F001013B4204BFD1
:102E140003F000430022124218BF43F0010307EA03
:102E24000304BC4218BF9EEA070F05D005F0004119
:102E34000020BDE8F040704721F0004123F000433A
:102E4400B9420FD8BB420DD8002918BF002B09D0B6
:102E540005F0004141F0FE4141F470010020BDE85D
:102E6400F04070474FF0FE4141F478010020BDE886
:102E7400F04070470000F07F0000F03F0000E03FAA
:102E84007F2805D8034B185C034B5B5C18407047E4
:102E940000207047B032000030330000A0F161031D
:102EA400192B98BF20387047A0F14103192B98BF04
:102EB400203070477F2805D8034B185C034B5B5CBC
:102EC4001840704700207047B032000030330000D3
:102ED400A0F16103192B98BF20387047A0F141037A
:102EE400192B98BF203070477F299ABF01700120A9
:102EF4006FF02E0070475AB10A787F2A0AD800B1C1
:102F04000260002119605960501A18BF01207047EF
:102F1400002070476FF02E007047000008B5034B87
:102F24005B689B681B68984708BD00BF3C00002095
:102F340008B50921FFF7F2FF08BD0000844640EA06
:102F4400010313F0030F18D18446202A0BD32DE973
:102F5400F007B1E8F807A0E8F807A2F12002202A58
:102F6400F7D2BDE8F007042A07D351F8043B40F830
:102F7400043BA2F10402042AF7D2002A05D011F876
:102F8400013B00F8013B013AF9D16046704700BFAC
:102F94008446002A2DD010F0030F04D000F8011B42
:102FA400013A26D0F7E7C9B241EA012141EA0141D9
:102FB400202A12D3A2F120022DE9F0030B460C467D
:102FC4000D460E460F4688468946A0E8FA03203A85
:102FD400FBD2BDE8F00320320BD0042A05D340F81D
:102FE400041B043A05D0042AF9D200F8011B013A63
:102FF400FBD16046704700BF00F1010110F0030FE0
:1030040011D010F8012B002A23D010F0030F0AD09E
:1030140010F8012B002A1CD010F0030F03D010F875
:10302400012B002A15D02DE970004FF001324FF02A
:10303400803350F8044BA4EB020525EA04051D4037
:1030440000D1F6E7A0F1040070BC10F8012B002AAF
:08305400FBD1A0EB0100704765
:10305C0006320000000000000A32000000000000F0
:10306C000F320000000000001432000000000000CD
:10307C00F930000000000303FD30000000000003E5
:10308C00940000205C010020640100209C000020C2
:08309C001400002018000000E0
:1030A400000000000000000000000000000000001C
:0830B400000000000000000014
:1030BC00FFFFFFFFFFFFFFFFFFFFFFFFFFFFFFFF14
:1030CC0000000000000000000000D6010701000015
:1030DC002104000085040000D10300004261636BF1
:1030EC00656E647320666C757368656400617070DE
:1030FC000062616C6C6F632E6C6F675F6D656D70D9
:10310C006F6F6C00633100008C31000043310000A4
:10311C00943100009C310000A4310000AC3100005F
:10312C00B4310000BC310000202530327800202062
:10313C0020007C002563001B5B313B33316D002587
:10314C00734C6F67732064726F70706564202825F0
:10315C00642925730D0A001B5B306D002573003C40
:10316C0025733E2025733A2000000000000000006B
:10317C00DD310000C4310000CC310000D131000041
:10318C001B5B313B33306D001B5B313B33326D00CD
:10319C001B5B313B33336D001B5B313B33346D00B8
:1031AC001B5B313B33356D001B5B313B33366D00A4
:1031BC001B5B313B33376D007761726E696E670054
:1031CC00696E666F00646562756700466174616C58
:1031DC00206572726F720053797374656D2072651D
:1031EC0073657400303132333435363738394142F7
:1031FC00434445460338FDD870475052530054574A
:10320C00494D00554152540055415254450000005F
:10321C00000000000338FDD87047000000000000DB
:10322C00003000400000000001000000545749200D
:10323C0073656E736F72206578616D706C65207349
:10324C007461727465642E0054483036206D65616B
:10325C00737572652068756D69646974793A202597
:10326C00692C2054656D70657261747572653A20B5
:10327C00256900496E6974206572726F7220636FE4
:10328C0064653A2025582C2025642C2055736572D2
:10329C00205265676973746572313A202530325853
:1032AC00000000002020202020202020206828283A
:1032BC0028282020202020202020202020202020F2
:1032CC00202020204810101010101010101010107A
:1032DC00101010108484848484848484848410105A
:1032EC001010101010818181818181010101010177
:1032FC0001010101010101010101010101010110A3
:10330C00101010101082828282828202020202024B
:10331C000202020202020202020202020202021073
:10332C00101010200007032004170201085710404A
:10333C0080000000E4340000A8330000BC3400001E
:10334C0053756E004D6F6E005475650057656400C3
:10335C0054687500467269005361740000000000E7
:10336C004A616E00466562004D61720041707200E8
:10337C004D6179004A756E004A756C0041756700A5
:10338C00536570004F6374004E6F760044656300A4
:10339C0000000000414D00504D000000E0340000E2
:1033AC00DC340000DC340000DC340000DC340000D1
:1033BC00DC340000DC340000DC340000DC340000C1
:1033CC00DC340000FFFFFFFFFFFFFFFFFFFFFFFFED
:1033DC00FFFF00001C3400004C3300005834000088
:1033EC006C330000A033000000340000B034000047
:1033FC000C340000256D2F25642F2579000000006A
:10340C0025612025622025652025542025590000A2
:10341C0053756E646179004D6F6E646179005475FB
:10342C006573646179005765646E657364617900D6
:10343C0054687572736461790046726964617900CD
:10344C005361747572646179000000004A616E7595
:10345C00617279004665627275617279004D6172B4
:10346C00636800417072696C004D6179004A756E39
:10347C0065004A756C790041756775737400536506
:10348C007074656D626572004F63746F6265720073
:10349C004E6F76656D62657200446563656D62653D
:1034AC007200000025483A254D3A255300000000D3
:1034BC00852E0000A12E0000AD2E0000B92E0000BC
:1034CC00D52E0000E12E0000ED2E0000FB2E00009A
:1034DC00000000002E00000043000000504F534934
:0434EC005800000084
:1034F000000000000020004000000000002000400C
:1035000000000000DC3000000000000000000000AF
:103510000090D003403300004033000040330000EF
:083520004033000040330000BD
:040000030000023DBA
:00000001FF
