:10000000000001203D020000950200009702000060
:10001000990200009B0200009D0200000000000009
:100020000000000000000000000000009F0200002F
:10003000A102000000000000A3020000A5020000D1
:10004000FD050000AB020000AD020000AF020000A1
:10005000B1020000B3020000B5020000B7020000C8
:10006000B9020000BB020000BD020000A9070000A9
:10007000C1020000C3020000C5020000C702000068
:10008000C9020000CB020000CD020000CF02000038
:10009000D1020000D3020000D5020000D702000008
:1000A000D9020000DB020000DD020000DF020000D8
:1000B000E1020000E3020000A7020000A702000026
:1000C000E5020000E7020000E9020000EB02000088
:0C00D000ED020000EF020000F102000051
:1000DC00364937480A1A02D0072291438D463549D2
:1000EC0035480A1A06D00722914381F30988022267
:1000FC0082F3148831483249324A00F045F83248CC
:10010C003249334A00F040F832483349334A00F060
:10011C003BF833483349344A00F036F83348344915
:10012C00344A00F031F834483449354A00F02CF8A0
:10013C0034483549354A00F027F83548354900220E
:10014C0000F02DF834483549002200F028F83448E6
:10015C003449091A082903DB0022026004300160CB
:10016C00314A90471F482049884205D00268043024
:10017C0003B4904703BCF7E700208646EC4600200A
:10018C0000212A4A9047FEE7884207D0521A05D030
:10019C00037801300B700131013AF9D17047884274
:1001AC0002D002700130FAE7704700000000012015
:1001BC0000E000200000012000000120340B0000B2
:1001CC000000002004000020F4020000F4020000F3
:1001DC00200B0000340B0000000000200000002069
:1001EC00200B0000200B0000200B0000200B000057
:1001FC00200B0000200B0000200B0000200B000047
:10020C00340B0000380B0000040000200400002018
:10021C00040000202C0000202C0000202C000020CA
:10022C002C0000202C200020610200003103000073
:10023C000F484FF00701884385460E4880470E480B
:10024C00016841F470010160BFF34F8FBFF36F8FF2
:10025C00FFF73EBF09480A490A4A884207D0521A9A
:10026C0005D0037801300B700131013AF9D1704798
:10027C0000000120BD08000088ED00E0200B00000C
:10028C000000002000000020FEE7FEE7FEE7FEE78E
:10029C00FEE7FEE7FEE7FEE7FEE7FEE7FEE7FEE72A
:1002AC00FEE7FEE7FEE7FEE7FEE7FEE7FEE7FEE71A
:1002BC00FEE7FEE7FEE7FEE7FEE7FEE7FEE7FEE70A
:1002CC00FEE7FEE7FEE7FEE7FEE7FEE7FEE7FEE7FA
:1002DC00FEE7FEE7FEE7FEE7FEE7FEE7FEE7FEE7EA
:0802EC00FEE7FEE7FEE700BF9C
:1002F40068B94FF0A042D2F80435D94301F4802103
:10030400C2F8081503F48023C2F80C35704704289A
:10031400FCD14FF0A042D2F80435D94301F40031A6
:10032400C2F8081503F40033EEE7000007B5012016
:1003340000F04FF800F0CCF808B100F069F80020A4
:1003440000F0DEF8124B134A18689B880090ADF851
:100354000430694640F6FF730F48ADF8003000F0F2
:100364007FF908B100F054F801210B4800F00AFAB3
:10037400012318220021084800F0C2F908B100F056
:1003840047F8054800F0B0F940BF20BF20BFFBE7A5
:10039400200B0000F5020000280B0000044B1A5C3F
:1003A400012393404FF0A042C2F80835704700BFC4
:1003B400300B000008B50020FFF7F0FF0120FFF725
:1003C400EDFF0220FFF7EAFF0320BDE80840FFF736
:1003D400E5BFC20708B501460CD54FF0A043032280
:1003E400C3F84427C3F84827C3F84C27C3F8502759
:1003F400FFF7E0FF8B070AD54FF0A0430C22C3F8A8
:100404003427C3F83827C3F83C27C3F8402708BD6E
:100414001FB50021039001AA44F201000191029149
:1004240000F004F805B05DF804FB000072B6094B57
:100434001B68DB0700D500BEBFF34F8F0649074B8F
:10044400CA6802F4E0621343CB60BFF34F8F00BF6E
:10045400FDE700BFF0ED00E000ED00E00400FA0568
:1004640072B6024A13680133136070470400002017
:10047400034A1368013B136003B962B6704700BFB7
:1004840004000020FFF7ECBFFFF7F2BF38B5084CBB
:1004940004F108030546002818BF1C4623682BB145
:1004A4001A6822605B6828469847F7E738BD00BFA2
:1004B4001000002020B9054B01225A70FFF7E6BF57
:1004C400012802D1014A9070F8E770470800002023
:1004D40038B5094C23786BB908486360A36023617D
:1004E400E36000F041F8054600F04CF80123237066
:1004F400284638BD8525FBE708000020B904000024
:1005040038B5134CA378054603F0FF0073B115B159
:100514006B68012098470020FFF7B4FFE3680133BC
:10052400E3600020BDE83840FFF7AEBFFFF7AAFF45
:1005340025B1226913463BB92A602561E368002B83
:10054400ECD100F033F8E9E79D42F7D01B68F2E7FD
:100554000800002000F180400023036082B003689B
:100564000193019B02B07047054A13792BB901210D
:10057400106011715371184670478520704700BF91
:100584001C000020084B1A68D20706D4E02283F826
:1005940000230122C3F880211A604FF08043012216
:1005A400C3F81825704700BF00E100E038B54FF4E8
:1005B4008270FFF7CFFF4FF080430222C3F8042379
:1005C4000A4AD06840F08073D360094B1C6844F039
:1005D400010119605D685968491BB1F50A5FFAD3D6
:1005E4001C60044BD06001221A6038BDF0ED00E0BD
:1005F400001000E008000040124B1B6810B573B1F6
:100604004FF48070FFF7A6FF4FF080430122C3F838
:1006140008230D4B587910B95A711B6898470B4B36
:100624001B6873B14FF48270FFF794FF4FF080435F
:100634000222C3F80823044B01201B68BDE81040C4
:10064400184710BD000100401C00002004010040B8
:100654000023435082B043580193019B02B070477A
:10066400F0B546791D4B1E4D43F826207400A3199E
:10067400EB5C83BB90F904308A78002BA8BF03F1AC
:1006840060474FEA4212BBBF03F00F0E154F07F548
:100694006147D2B2AABFD2B207F80E2087F800236E
:1006A40003F01F025B099B0003F16043012703F57C
:1006B400614307FA02F2C3F880211A6003680A88CA
:1006C400C3F80825A319EA180879C97891705070FD
:1006D400EF540020F0BD0820F0BD00BF280000202A
:1006E4002400002014ED00E0036801221A6043791D
:1006F400024A03EB43030221D15470472400002033
:100704002DE9F84305464FF4803400681C4E8C40B4
:10071400C0F84843C0F8084395F805C04FEA4C0EAA
:100724000EEB0C07374422F07F487A7801F5A8775E
:10073400B14640F8278082B1D0F804750EEB0C0660
:100744004E44A7EB0802B84588BF02F1FF12B67801
:1007540088BF02F57F42B2420EDB3BB150318900C3
:1007640089B2FFF775FF2B68C3F804432B68002098
:10077400C3F84443BDE8F8830D20BDE8F88300BF07
:1007840024000020024610B500680C464FF4807126
:10079400FFF75EFF13680122C3F844230CB1C3F8CA
:1007A400042310BD2DE9F041234E244FDFF890803F
:1007B40000254FF48034D7F8043306F5A0412342D2
:1007C40089B20CD0336853B1C7F848433846C7F8E8
:1007D4000843FFF73DFFE8B2D8F8003098470135E9
:1007E400032D4FEA440406F10406E4D1134CD4F873
:1007F4000433DA070BD5D4F8003143B120464FF463
:100804008071FFF725FF0E4B04201B689847D4F82E
:1008140004339B070DD5D4F8043153B107484FF482
:100824008271FFF715FF064B05201B68BDE8F041F8
:100834001847BDE8F08100BF40B1004000B000405F
:1008440028000020094B1B78062B0CD1084B1B6891
:100854001A0708D1074B186800F0F000A0F1300324
:100864005842584170470020704700BFE00F00F025
:10087400E40F00F0E80F00F00C4B1B78062B10D1AE
:100884000B4B1B681A070CD10A4B186800F0F003D5
:10089400302B08D000F0E000A0F14003584258414A
:1008A4007047002070470120704700BFE00F00F040
:1008B400E40F00F0E80F00F008B5FFF7DDFF28B102
:1008C4007F4B804A1B68C3F304231360FFF7BAFF0E
:1008D40010B17D4B7D4A1A60FFF7CEFF28B17C4BE7
:1008E4007C4A1B68C3F342331360FFF7ABFF20B1AC
:1008F400794AD36823F08073D360FFF7BDFF40B11A
:100904004FF080430022C3F80C21C3F81021C3F830
:100914003825FFF797FF10B1704B03221A60FFF7D9
:1009240091FF40B16E4B05221A6001229A670022A2
:100934009A603F225A606B4B1B78062B09D16A4B95
:100944001B68190705D1694B1B6803F0F003502B92
:1009540067D0FFF791FF28B1654B664A1B6803F027
:100964004F031360FFF788FF48B14FF08043D3F87B
:100974000024D20744BF6FF00102C3F800245E4B89
:100984001B68062B04D15D4B1B68062B00F091807D
:100994005B4AD2F8883043F47003C2F88830BFF35E
:1009A4004F8FBFF36F8F4FF01023D3F80022002A2C
:1009B40003DBD3F80432002B2FDA524B0122C3F8A5
:1009C4000425D3F80024002AFBD04FF0102215216F
:1009D400C2F80012D3F80024002AFBD04FF01023F1
:1009E4001522C3F80422474B1A46D3F800140029F1
:1009F400FBD00021C3F80415D2F80034002BFBD03F
:100A0400BFF34F8F3E49404BCA6802F4E062134380
:100A1400CB60BFF34F8F00BFFDE73C4B3C4A1A60ED
:100A240008BD4FF080523B4BD2F80414C3F8201594
:100A3400D2F80814C3F82415D2F80C14C3F82815F6
:100A4400D2F81014C3F82C15D2F81414C3F83015C6
:100A5400D2F81814C3F83415D2F81C14C3F840158E
:100A6400D2F82014C3F84415D2F82414C3F8481556
:100A7400D2F82814C3F84C15D2F82C14C3F8501526
:100A8400D2F83014C3F85415D2F83414C3F86015EE
:100A9400D2F83814C3F86415D2F83C14C3F86815B6
:100AA400D2F84014C3F86C15D2F84424C3F8702566
:100AB4004FE7194A136843F48063136068E700BF83
:100AC400240300104035014074C007400DF0ADBA56
:100AD400440200103C050040F0ED00E0A005004099
:100AE40010560040E00F00F0E40F00F0E80F00F0B3
:100AF40058020010E40E00403001001034010010D0
:100B040000ED00E000E001400400FA0500000020D0
:0C0B14000090D00300C000403C170040DF
:100B2000000007410000000000B000400B0003007F
:040B30001112131477
:040B34000090D0035A
:040000030000023DBA
:00000001FF
