:020000022000DC
:10600000000001203D6202009562020097620200DA
:10601000996202009B6202009D6202000000000083
:106020000000000000000000000000009F6202006D
:10603000A162020000000000A3620200A56202004B
:1060400095F00200AB620200F1FD02005539030039
:10605000B1620200B362020011FB0200B7620200EB
:10606000B9620200BB620200BD620200BF620200B0
:10607000C1620200C3620200C5620200C762020080
:10608000C9620200919D0200CD620200552003000A
:10609000D19D0200D362020019C90300D762020039
:1060A000D9620200DB620200DD620200DF620200F0
:1060B000AD2C0300E3620200A7620200A7620200A7
:1060C000E5620200C52C0300E9620200EB620200F7
:0C60D000111D0300EF620200F1620200EB
:1060DC00364937480A1A02D0072291438D46354972
:1060EC0035480A1A06D00722914381F30988022207
:1060FC0082F3148831483249324A00F045F832486C
:10610C003249334A00F040F832483349334A00F000
:10611C003BF833483349344A00F036F833483449B5
:10612C00344A00F031F834483449354A00F02CF840
:10613C0034483549354A00F027F8354835490022AE
:10614C0000F02DF834483549002200F028F8344886
:10615C003449091A082903DB00220260043001606B
:10616C00314A90471F482049884205D002680430C4
:10617C0003B4904703BCF7E700208646EC460020AA
:10618C0000212A4A9047FEE7884207D0521A05D0D0
:10619C00037801300B700131013AF9D17047884214
:1061AC0002D002700130FAE77047000000000120B5
:1061BC0000E000200000012000000120E4FA0300B0
:1061CC00F82B0020C02C0020F4620200F4620200C4
:1061DC0060D70300E4FA0300F82B0020F82B002012
:1061EC0018D9030018D9030018D9030018D90300D3
:1061FC0018D9030018D9030018D9030018D90300C3
:10620C00E4FA0300ACFB0300C02C0020C02C0020DF
:10621C00C02C0020F4440020F4440020F44400205E
:10622C00F4440020F464002061620200A1760200B4
:10623C000F484FF00701884385460E4880470E48AB
:10624C00016841F470010160BFF34F8FBFF36F8F92
:10625C00FFF73EBF09480A490A4A884207D0521A3A
:10626C0005D0037801300B700131013AF9D1704738
:10627C000000012061DD020088ED00E0B0D80300D1
:10628C00902B0020F82B0020FEE7FEE7FEE7FEE750
:10629C00FEE7FEE7FEE7FEE7FEE7FEE7FEE7FEE7CA
:1062AC00FEE7FEE7FEE7FEE7FEE7FEE7FEE7FEE7BA
:1062BC00FEE7FEE7FEE7FEE7FEE7FEE7FEE7FEE7AA
:1062CC00FEE7FEE7FEE7FEE7FEE7FEE7FEE7FEE79A
:1062DC00FEE7FEE7FEE7FEE7FEE7FEE7FEE7FEE78A
:0862EC00FEE7FEE7FEE700BF3C
:1062F40041DF704700BF184676DF704700BF18467D
:1063040078DF704700BF18467ADF704700BF184631
:106314007CDF704700BF18468FDF704700BF184608
:1063240000B585B00190019B002B0AD0074B43F0C8
:1063340001030393019B9B010293039B02989847DB
:1063440000E000BF05B05DF804FB00BF60DB0300A4
:1063540082B001900B468DF803309DF80320019B19
:1063640013441A460123136000BF02B0704700B5FE
:1063740083B00190019B1B6808211846FFF7E8FFD2
:1063840000BF03B05DF804FB00B583B00190019B2E
:106394001B681F2B04D9054940F2C71000F09AF876
:1063A4004FF0A043184603B05DF804FB18D903006E
:1063B40000B585B0019001AB1846FFF7E5FF0390E7
:1063C400039BD3F804350293029BDA43019B01211A
:1063D40001FA03F31A40039BC3F80825019B012229
:1063E4009A40029B1A40039BC3F80C2500BF05B0DA
:1063F4005DF804FB00B583B00190019B002B0AD02B
:106404004FF47A70FFF78CFF019B013B0193019BD2
:10641400002BF5D100E000BF03B05DF804FB0000E1
:1064240082B00346ADF80630BDF80630B3F5847F7C
:1064340009D1064B1B68B3F1FF3F04D0034B1B6823
:106444000133024A136000BF02B07047C83600200F
:1064540000B585B003468DF807309DF80730002B52
:1064640028D101232822002114480BF0FDFA0390BF
:10647400039B0293029B002B04D0114ADE21029855
:1064840002F076FF0D48FFF772FF0F20FFF790FF31
:106494000C4B01221A700C4B1B881B0443F00303A2
:1064A40018460A4B1B681A46094902F019F9074BAA
:1064B40000221A6000BF05B05DF804FB58DB03003E
:1064C40048D90300C0340020B42B0020C836002073
:1064D40070D9030000B583B003460091ADF80630CF
:1064E400BDF80630009A1946034802F041FF00BF88
:1064F40003B05DF804FB00BFEFBEADDE00B583B0B2
:106504000D4B1B881B0443F003030C49184602F08F
:10651400D9F813F009F90190019B0093009B002B1B
:1065240005D0074A40F20711009802F021FF00BF8E
:1065340003B05DF804FB00BFB42B002084D9030032
:1065440048D9030000B585B003468DF807309DF89F
:106554000730002B02D0FFF7D1FF0FE003210948D9
:106564000EF0D8FE0390039B0293029B002B05D0F0
:10657400054A4FF48D71029802F0FAFE00BF05B08F
:106584005DF804FB4835002048D9030082B001902F
:1065940000BF02B07047000010B58CB00390039B9D
:1065A4001B780D2B00F2988001A252F823F000BF53
:1065B400ED650200DD66020001660200DD66020090
:1065C40033660200DD66020049660200C36602000B
:1065D400DD66020075660200DD6602008F66020059
:1065E4006D660200A9660200424B1B881B0443F03F
:1065F40003034149184602F065F878E03D4B1B88D7
:106604001B0443F003031C46039B5B8818460FF0EE
:106614007BFC03461A46039B5B881946039B1B7A43
:1066240000930B463549204602F07FF85FE00023D3
:106634008DF81430039B5B8805AA1146184613F0A5
:1066440045F854E005F03AFB0B900B9B082B45D022
:106654000B9B0A930A9B002B40D0294A40F25F11FE
:106664000A9802F085FE39E00020FFF76BFF3EE058
:10667400039B1B690993099B002B31D0204A4FF4DB
:10668400B671099802F074FE2AE0039B9B68089394
:10669400089B002B26D01A4A4FF4B971089802F0CF
:1066A40067FE1FE0039B9B680793079B002B1BD08F
:1066B400134A4FF4BC71079802F05AFE14E0039B8E
:1066C4009B680693069B002B10D00D4A4FF4BF71B4
:1066D400069802F04DFE09E000BF08E000BF06E0A6
:1066E40000BF04E000BF02E000BF00E000BF00BF45
:1066F4000CB010BDB42B002094D90300C0D9030002
:1067040048D9030000B583B01549164807F0B7FA15
:1067140003468DF807309DF807304FF6FE72194690
:10672400114814F078FF0090009B002B13D0009BBD
:10673400082B10D0009B132B0DD0009B112B0AD0DB
:10674400009B43F20142934205D0084A40F2A11152
:10675400009802F00DFE00BF03B05DF804FB00BF1B
:1067640080360020903600201435002048D90300DC
:1067740000B583B00190FFF7C5FF00BF03B05DF81B
:1067840004FB000000B585B001901F491F4807F0C5
:1067940076FA0346ADF80E301D4B1B6801331C4AD4
:1067A4001360BDF80E3019461A4815F008FD029022
:1067B400029B002B13D0029B082B10D0029B132B9F
:1067C4000DD0029B112B0AD0029B43F2014293424B
:1067D40005D0114A40F2CF11029802F0C9FD0C4BCA
:1067E40019680E4BA3FB01235A0813465B0013449C
:1067F400CA1A002A14BF01230023DAB2084B1A7004
:1068040000BF05B05DF804FB98360020A8360020D0
:10681400CC360020C434002048D90300ABAAAAAA6D
:10682400FA2B002000B585B001902B4B1B78002B70
:106834004DD02A492A4807F022FA0346ADF80E3013
:10684400BDF80E301946274815F008FD23492448A1
:1068540007F015FA0346ADF80E30BDF80E301946B0
:10686400204815F0FBFC1D491D4807F008FA0346B3
:10687400ADF80E30BDF80E3019461A4815F0EEFC8E
:106884001649174807F0FBF90346ADF80E30BDF87A
:106894000E301946134815F0E1FC1049104807F072
:1068A400EEF90346ADF80E30BDF80E3019460D482A
:1068B40015F0D4FC09490A4807F0E1F90346ADF89C
:1068C4000E30BDF80E301946064815F0C7FC00BF5F
:1068D40005B05DF804FB00BFFA2B0020B0360020A1
:1068E400C0360020C434002000B583B001900C4BA6
:1068F4001B78002B14BF01230023DBB283F00103B8
:10690400DBB203F00103DAB2054B1A70044B1B78B7
:106914001946044815F0D1FC00BF03B05DF804FB30
:10692400D0360020C434002000B587B003F054FAF8
:106934000590059B0493049B002B05D0264A40F246
:106944001A21049802F014FD244A0121244803F07A
:1069540077FA0590059B0393039B002B05D01E4AF1
:106964004FF40871039802F003FD1E4A01211E48EA
:1069740003F066FA0590059B0293029B002B05D059
:10698400154A40F22521029802F0F2FC174A01212F
:10699400174803F055FA0590059B0193019B002BC2
:1069A40005D00D4A40F22A21019802F0E1FC114A77
:1069B4000121114803F044FA0590059B0093009BC4
:1069C400002B05D0044A40F22F21009802F0D0FC9D
:1069D40000BF07B05DF804FB48D9030075670200E7
:1069E40048DB0300896702004CDB030029680200CE
:1069F40050DB0300ED68020054DB030000B589B0EE
:106A04009DF80430012262F303038DF804309DF8ED
:106A14000430012262F307138DF80430274816F07E
:106A24006DFE03469AB201AB24491846FFF770FC89
:106A34000790079B0693069B002B05D0204A40F243
:106A44004321069802F094FC40F24130FFF758FCD1
:106A54000790079B0593059B002B05D0184A40F22D
:106A64004621059802F084FC02AB08220021184656
:106A740016F010FE4FF4A073ADF808304FF4027313
:106A8400ADF80A300023ADF80C304FF4C873ADF8FC
:106A94000E3002AB1846FFF737FC0790079B0493B0
:106AA400049B002B05D0064A4FF41471049802F09D
:106AB4005FFC00BF09B05DF804FB00BF00DA03000F
:106AC40048D9030000B583B001900091009B1B8856
:106AD40040F6772293420DD10A4B1B881B0443F0E6
:106AE40003031846009B5B881A46009B9B88064953
:106AF40001F007FE0099054815F0ECFB00BF03B058
:106B04005DF804FBB42B00200CDA0300C43400202D
:106B140000B583B009490A4810F044FF0190019B75
:106B24000093009B002B05D0064A4FF41A7100987D
:106B340002F01EFC00BF03B05DF804FBC96A02004A
:106B44002835002048D9030000B583B00190054AD8
:106B540040F27521019802F00BFC00BF03B05DF810
:106B640004FB00BF48D9030000B5A3B0002302937F
:106B7400824B029302AB1946814810F0C7FF219063
:106B8400219B2093209B002B05D07E4A40F28A2132
:106B9400209802F0EDFB03238DF8073018AB142284
:106BA4000021184616F076FD0023189301238DF872
:106BB40064300DF107031A939DF86C30012262F3DF
:106BC40003038DF86C309DF86C30012262F30713D7
:106BD4008DF86C309DF86D306FF303038DF86D30D4
:106BE4009DF86D306FF307138DF86D309DF86E309E
:106BF4006FF303038DF86E309DF86E306FF3071357
:106C04008DF86E309DF86F30012262F303038DF826
:106C14006F309DF86F30012262F307138DF86F30E7
:106C24009DF870306FF303038DF870309DF8703069
:106C34006FF307138DF8703018AB1946524815F0EE
:106C440071FA2190219B1F931F9B002B05D04D4A65
:106C540040F29E211F9802F08BFB13AB14220021FB
:106C6400184616F017FD9DF85930012262F303030C
:106C74008DF859309DF85930012262F307138DF8CD
:106C840059309DF85A30012262F303038DF85A30CB
:106C94009DF85A30012262F307138DF85A309DF89B
:106CA4005B306FF303038DF85B309DF85B306FF35B
:106CB40007138DF85B309DF85C30012262F3030307
:106CC4008DF85C309DF85C30012262F307138DF877
:106CD4005C300023139301238DF850300023159367
:106CE40064238DF8583013AB1946284814F04AFC35
:106CF4002190219B1E931E9B002B05D0214A4FF40B
:106D04002C711E9802F034FB03AB4022002118467C
:106D140016F0C0FC03AB1E4918460FF0ABFA9DF801
:106D24004830012262F303038DF848309DF848305F
:106D3400012262F307138DF848309DF849306FF350
:106D440003038DF849309DF849306FF307138DF82C
:106D5400493003AB184614F097FE2190219B1D93F4
:106D64001D9B002B05D0074A40F2BB211D9802F061
:106D7400FFFA00BF23B05DF804FB00BF4D6B0200B7
:106D84003C35002048D90300C434002014350020C9
:106D94003CDA030008B51A4B51221A60184B6422DE
:106DA4005A60174B01229A60154B01221A73144939
:106DB400144806F04BFF144B8C221A60124B4FF40C
:106DC40096725A60104B0A229A600F4B00221A7373
:106DD4000D490E4806F03AFF0D4B64221A600C4B25
:106DE4004FF4FA725A600A4B01229A60084B00224F
:106DF4001A730749074806F029FF00BF08BD00BF02
:106E0400803600209036002098360020A8360020D6
:106E1400B0360020C036002000B587B0274B0022D2
:106E24004FF48031184603F03BF80590059B04931A
:106E3400049B002B05D0224A40F2E221049802F080
:106E440097FA204B00224FF40041184603F028F82B
:106E54000590059B0393039B002B05D0184A40F231
:106E6400E521039802F084FA174B002242F266618E
:106E7400184603F015F80590059B0293029B002B1E
:106E840005D00F4A4FF43A71029802F071FA0F4B91
:106E940000224FF42031184603F002F80590059BB8
:106EA4000193019B002B05D0054A40F2EB21019888
:106EB40002F05EFA00BF07B05DF804FB0036002064
:106EC40048D90300203600204036002060360020D8
:106ED40000B585B00190019B1B78002B11D10B4BA1
:106EE4001B883B211846FFF707FA0390039B029384
:106EF400029B002B05D0064A4FF44071029802F021
:106F040037FA00BF05B05DF804FB00BFF82B002082
:106F140048D9030000B583B00190054A40F20B3113
:106F2400019802F025FA00BF03B05DF804FB00BF2E
:106F340048D9030000B58BB001AB1C2200211846D0
:106F440016F0A8FB002301934FF4203302934FF46F
:106F54007023039303238DF810300F4B9B89ADF8F6
:106F6400123000238DF814300C4B06930C4B07930E
:106F740001AB18460EF0C6FC0990099B0893089BC8
:106F8400002B05D0074A40F22231089802F0F0F9AC
:106F940000BF0BB05DF804FBC4340020D56E0200C2
:106FA400196F020048D9030000B585B00DF053F8FD
:106FB4000390039B0293029B002B05D00B4A4FF4D2
:106FC4004C71029802F0D4F9FFF792F90390039BF5
:106FD4000193019B002B05D0044A4FF44D71019895
:106FE40002F0C6F900BF05B05DF804FB48D9030000
:106FF40000B585B003468DF807309DF80730002BA7
:107004001BD0032B00D01CE0104B1B881B0443F047
:1070140003030F49184601F055FB02200CF0E7FE6C
:107024000390039B0293029B002B09D0094A40F270
:107034004731029802F09CF902E0FFF7B5FF00E047
:1070440000BF00BF05B05DF804FB00BFB42B0020F7
:1070540050DA030048D9030000B58BB001900091C9
:10706400019B1B88212B4BD0212B04DC102B07D038
:10707400112B34D08BE03B2B5CD0562B6DD086E0AB
:10708400454B1B881B0443F003034449184601F095
:1070940019FB07200CF0ABFE0990099B0893089B91
:1070A400002B05D03E4A40F26231089802F060F9A4
:1070B400019B9A883B4B1A803A4B1B8819463A48E5
:1070C40010F046FD0990099B0793079B002B57D0AE
:1070D400334A40F26531079802F04AF950E02E4BEA
:1070E4001B881B0443F003031846019B1B7A1A46B2
:1070F4002E4901F0F5FA2B4B4FF6FF721A8046E049
:1071040000238DF80C3000238DF80D30019B9B88F3
:1071140003AA11461846FFF7FFF80990099B069346
:10712400069B002B2ED01E4A40F27731069802F0BF
:107134001FF927E0019B9B8813211846FFF7DCF811
:107144000990099B0593059B002B1DD0144A40F21E
:107154007F31059802F00CF916E0019B9B881321FE
:107164001846FFF7C9F80990099B0493049B002B68
:107174000CD00B4A40F28731049802F0F9F805E08C
:1071840000BF04E000BF02E000BF00E000BF00BF9A
:107194000BB05DF804FB00BFB42B002064DA0300DD
:1071A40048D90300F82B00203C35002070DA030096
:1071B40000B587B015F0CEFA0590059B0493049BA7
:1071C400002B05D0164A40F29A31049802F0D0F808
:1071D4000023019301AB1946012015F0D1FB059062
:1071E400059B0393039B002B05D00D4A4FF4687154
:1071F400039802F0BDF801AB184615F0D7FC0590D2
:10720400059B0293029B002B05D0054A4FF469713C
:10721400029802F0ADF800BF07B05DF804FB00BFB0
:1072240048D9030000B587B003468DF807309DF8B0
:107234000730043B0C2B00F28E8001A252F823F09D
:10724400FD7202005B7302005B730200297302008B
:107254005B7302005B730200F77202005B7302004F
:107264005B7302005B73020079720200A372020076
:10727400CD7202003C4B1B881B0443F003033B49C3
:10728400184601F01FFA0022FF21002007F0A2F99E
:107294004B2000F069FA364B01221A7060E0324B41
:1072A4001B881B0443F003033249184601F00AFA11
:1072B400FF220021002007F08DF9322000F054FA5B
:1072C4002B4B01221A704BE0274B1B881B0443F005
:1072D40003032949184601F0F5F900220021FF2093
:1072E40007F078F9192000F03FFA214B01221A70B7
:1072F40036E0FFF759FE33E0204B1B881321184674
:10730400FEF7FAFF0590059B082B26D0059B0493F6
:10731400049B002B21D01A4A40F2D631049802F083
:1073240027F81AE0154B1B884FF6FF72934216D1CB
:1073340014480EF064F90590059B082B0FD0059BAB
:107344000393039B002B0AD00D4A4FF478710398E2
:1073540002F00EF803E000BF02E000BF00E000BF4F
:1073640000BF07B05DF804FBB42B00208CDA0300E7
:10737400C034002098DA0300A4DA0300F82B0020BC
:1073840048D903004835002000B589B012F012F93D
:107394000790079B0693069B002B05D03A4A40F2C0
:1073A400F331069801F0E4FF01AB052200211846F1
:1073B40016F070F99DF8043043F001038DF80430A1
:1073C4009DF804306FF341038DF804309DF80430C8
:1073D400032262F306138DF804309DF804306FF332
:1073E400C7138DF8043007238DF8053010238DF86A
:1073F40006309DF8073043F001038DF807309DF8FF
:10740400073043F002038DF807309DF8083043F04D
:1074140001038DF808309DF8083043F002038DF81D
:10742400083001AB184612F039F90790079B059311
:10743400059B002B05D0144A40F20441059801F045
:1074440097FF124812F002F90790079B0493049BDC
:10745400002B05D00C4A40F20741049801F088FF44
:107464000B4804F0C5F90790079B0393039B002B7B
:1074740005D0054A40F20A41039801F079FF00BFA4
:1074840009B05DF804FB00BF48D903009D65020004
:107494009165020000B5AFB001ABAC2200211846E3
:1074A40016F0F8F802238DF8043001238DF8063025
:1074B40006238DF807300323ADF81430124B0693DE
:1074C40001238DF880304FF49673239344F2506374
:1074D40024930E4B2A9301AB19460D480DF041FE3F
:1074E4002D902D9B2C932C9B002B05D0094A40F208
:1074F40024412C9801F03CFF012105480DF024FEA5
:1075040000BF2FB05DF804FBFC2B0020F56F0200D8
:107514004835002048D9030000B587B001900E49D2
:1075240002200CF06FFC0590059B0493049B002B38
:1075340005D00A4A40F23441049801F019FF9DF83D
:107544000F30022B0CBF01230023DAB2019B1A7007
:1075540000BF07B05DF804FB2972020048D903009C
:1075640000B583B04FF40041002000F08DFD019080
:10757400019B0093009B002B05D0064A40F2454135
:10758400009801F0F5FE00F02DFD00BF03B05DF89A
:1075940004FB00BF48D9030000B583B006F09CFA91
:1075A4000190019B0093009B002B05D0044A40F2FC
:1075B4005141009801F0DCFE00BF03B05DF804FB0C
:1075C40048D9030000B583B007F050F90190019B3E
:1075D4000093009B002B05D0064A40F266410098B8
:1075E40001F0C6FE002007F09FF900BF03B05DF86C
:1075F40004FB00BF48D9030000B587B01C4A01ABA7
:1076040092E8030018600433198040F6FF73ADF864
:10761400043001AB174A194617480AF089F9059056
:10762400059B0493049B002B05D0144A40F275413A
:10763400049801F09DFE01210F480AF0B5FA0123D8
:10764400282200210C480AF00FFA0590059B0393A9
:10765400039B002B05D0094A40F27C41039801F0BA
:1076640087FE05480AF0D6F900BF07B05DF804FBB1
:10767400B0DA03005564020058DB030048D9030064
:1076840000B585B0039002910192019A0299039882
:1076940001F024FE00BF05B05DF804FB00B583B023
:1076A400FFF75EFFFFF78EFFFFF73EF90DF10703CB
:1076B4001846FFF731FF06F024FFFFF79DFF264829
:1076C40006F054FFFFF768FFFFF772FDFFF796F926
:1076D400FFF71EFAFFF7DEFEFFF746FAFFF75AFB45
:1076E400FFF728FCFFF750FE1C4B1B881B0443F0DC
:1076F40003031B49184600F0E5FF00BF01F03AF808
:107704000346002BFAD100F00DF900F039F9FFF728
:1077140083FB0120FEF716FF06F021FF6420FEF72D
:1077240069FEFF220021002006F054FF00F096F9C4
:1077340000BF01F01FF80346002BFAD1094B1B7858
:10774400DBB2002B04D0074B00221A7000F086F93C
:10775400FFF722FFECE700BF25640200B42B0020F2
:1077640028DB0300C034002010B58CB00190404BDE
:107774004FF402721A603E4B1B68019A02FB03F33A
:107784003C4AA2FB03239B093B4A1360384B1B680A
:107794003A4AA2FB0323DB08354A13600E238DF813
:1077A4001C30FF238DF81D30FF238DF81E30FF237E
:1077B4008DF81F3007238DF8203007238DF82130F2
:1077C40000238DF822302A4B1B689BB2ADF824307D
:1077D40000238DF8263000238DF82730284B1B78A2
:1077E400002B05D0264B00221A7026480BF0D6F841
:1077F40007AB0022194623480BF046F80B900B9B6D
:107804000A930A9B002B04D01F4A3A210A9801F0DC
:10781400AFFD1B4B01221A70174B1B689AB21B4B0E
:107824001A80154B1B689AB2184B5A80124B1B686E
:107834009AB2164B9A80104B1B689AB2134BDA809B
:107844000D4B1B689AB2114B1A810B4B1B689AB2F1
:107854000E4B5A810E4B03AC0FCB84E80F0003A9E7
:1078640001230A2207480BF025F900BF0CB010BD14
:10787400D4360020D34D6210D8360020CDCCCCCCE9
:10788400D1360020082C002068DB0300DC36002001
:1078940094DB030000B583B00190019B04331846C8
:1078A4000BF0ACFC00BF03B05DF804FB00B589B07D
:1078B400059003921A460B468DF8133013468DF843
:1078C400123000230793059B181D9DF812209DF884
:1078D40013109DF8283000931346039A0BF0E0FE32
:1078E4000790079B184609B05DF804FB00B587B004
:1078F400039001921A460B468DF80B3013468DF80F
:107904000A3000230593039B181D9DF80A309DF847
:107914000B10019A0BF0ECFE0590059B184607B07E
:107924005DF804FB00B587B06B4600221A605A600C
:107934009A60DA600B2300930C2301934FF0CC730D
:10794400029302238DF80C306946002300220A4872
:107954000CF034F90590059B0493049B002B04D090
:10796400064A1F21049801F003FD0348FFF792FF24
:1079740000BF07B05DF804FBA4DB0300B4DB030025
:1079840000B589B02E4BE7221A700123009301231E
:107994002B4A40212B48FFF789FF0790079B06934A
:1079A400069B002B04D0284A2E21069801F0E0FC07
:1079B4000123264A40212348FFF798FF0790079B9D
:1079C4000593059B002B04D01F4A3121059801F033
:1079D400CFFC1B4B5B788DF81330194B5B7803F0AD
:1079E4003A03DAB2164B5A70154B00225A70144BF4
:1079F400E6221A70002300930223114A4021114801
:107A0400FFF754FF0790124B1B881B0443F003033A
:107A140018469DF813300093079B079A0D4900F010
:107A240084FE079B0393039B002B04D0064A3C214E
:107A3400039801F09DFC00BF09B05DF804FB00BF92
:107A4400E8360020A4DB0300B4DB0300E9360020A1
:107A5400B42B0020DCDB03000000000070B58AB00A
:107A6400E5238DF80C3003AA012300930123402160
:107A74007C48FFF71BFF0990099B0893089B002B88
:107A840004D0794A4C21089801F072FC03AA02231D
:107A940040217448FFF72AFF0990099B0793079B2D
:107AA400002B04D0704A4F21079801F061FC9DF827
:107AB4000C301B021AB29DF80D301BB213431BB2DB
:107AC400ADF81A30BDF81A30002B04D1674B4FF0D3
:107AD40000021A6029E0BDF81A3007EE903AF8EE79
:107AE400677A17EE900A15F09DF94FF00002604B8B
:107AF40015F036FB03460C46184621464FF00002AB
:107B04005C4B15F0E3FB03460C46184621464FF048
:107B14000002594B15F0DEF903460C46184621467F
:107B240015F09CF90246514B1A60E0238DF80C3095
:107B340003AA01230093012340214A48FFF7B6FE1C
:107B44000990099B0593059B002B04D0464A6021AC
:107B5400059801F00DFC03AA022340214148FFF7D8
:107B6400C5FE0990099B0493049B002B04D03E4A54
:107B74006321049801F0FCFB9DF80C301B021AB23F
:107B84009DF80D301BB213431BB2ADF81A30BDF88B
:107B94001A30002B04D1394B4FF000021A6024E054
:107BA400BDF81A30184615F003F92AA3D3E90023C7
:107BB40015F0D6FA03460C46184621464FF000024B
:107BC4002C4B15F083FB03460C461846214623A391
:107BD400D3E9002315F07EF903460C4618462146E6
:107BE40015F03CF90246254B1A60254B1B881B04F3
:107BF40043F003031D461D4B1B68184615F012F98C
:107C04004FF000021F4B15F0ABFA03460C46184622
:107C1400214615F0DFF803461BB21E46174B1B68BE
:107C2400184615F0FFF84FF00002164B15F098FABD
:107C340003460C461846214615F0CCF803461BB201
:107C440032461149284600F05CFD00BF0AB070BD01
:107C5400AFF30080D7A3703D0AF76540CDCCCCCC00
:107C6400CC6C4740A4DB0300B4DB0300EC360020FB
:107C740000405F400000F04000001840F036002053
:107C8400B42B0020000024400CDC030000B5A1B09C
:107C94000590049103920293049805F03AFE039B25
:107CA4001593029B16930023179300238DF86030DD
:107CB40000231993229B1A9300231F930FA91F9B40
:107CC4000822049805F0E0FE08231F93119B1293E9
:107CD400BDF84030ADF84C30BDF84230ADF84E3010
:107CE40000238DF851309DF83C3003F00303DBB2E0
:107CF400012B26D10F9BC3F395231D939DF83C3094
:107D0400C3F3C203DBB28DF85030BDF83C30C3F38B
:107D14008313DBB21C931C9B9A0009A91F9B049834
:107D240005F0B2FE1C9B9B001F9A13441F9312AADA
:107D340009A915AB009313461C9A1D9800F0DCFFAB
:107D44002FE09DF83C3003F00303DBB2022B28D173
:107D5400BDF83E30C3F389139BB21E939DF83C30AB
:107D6400C3F3C203DBB28DF850301E9B082B28BF2F
:107D740008231B9307A91F9B1B9A049805F084FEF4
:107D84001F9A1B9B13441F931E9A1B9BD31A1E936B
:107D940015AB12AA07A81B9901F050F81E9B002BE3
:107DA400E3D1049805F0C4FD00BF21B05DF804FBE5
:107DB40000B583B00190019B1B781A460C4B9B5C69
:107DC400002B05D0019B0433184609F0AFFA0BE0F1
:107DD400019B1B781A46064B9B5C002B04D1019B2C
:107DE4000C33184608F050FC00BF03B05DF804FBE8
:107DF400D03F002000B587B00390029113468DF860
:107E0400073000230593039B1B781A46114B9B5C98
:107E1400002B09D0039B04339DF8072002991846D0
:107E240009F0B2FA05900FE0039B1B781A46094B40
:107E34009B5C002B08D1039B0C339DF8072002990F
:107E4400184608F097FC0590059B184607B05DF8A6
:107E540004FB00BFD03F002082B001900091034B8F
:107E640001221A7000BF02B0704700BF34370020EF
:107E740030B58DB003468DF807301A4B02AC1D4661
:107E84000FCD0FC495E80F0084E80F000823029378
:107E94004FF0FF3303934FF0FF3304934FF0FF335E
:107EA40005934FF0EB7308939DF80730002B01D036
:107EB4000D4A00E0002202AB19460C4806F0B6FE5B
:107EC4000B900B9B0A930A9B002B04D0084A432176
:107ED4000A9801F04DFA074A9DF80730137000BF65
:107EE4000DB030BDA0DC03005D7E0200102C00202C
:107EF40038DC03003537002000B583B001238DF84A
:107F040007309DF807301846FFF7B2FF00BF03B0F3
:107F14005DF804FB00B589B0039002910192019BC6
:107F24008DF81F30124B00221A709DF81F301A462C
:107F340002991048FFF75EFF0690069B0593059B88
:107F4400002B04D00C4A5321059801F011FA00BF0C
:107F54000A4B1B78002B07D0054B1B78DBB283F050
:107F64000103DBB2002BF3D100BF09B05DF804FBC1
:107F740034370020102C002038DC03003537002073
:107F840000B585B003900291054B00934023054A48
:107F940002990398FFF77AFE00BF05B05DF804FB71
:107FA400197F0200F436002082B0019000BF02B0B5
:107FB4007047000000B583B001900548FFF7F8FE54
:107FC4000020FFF755FF00BF03B05DF804FB00BFBE
:107FD400102C002082B00190019B01225A7200BF34
:107FE40002B0704700B583B04FF0FF330193FFF741
:107FF40083FF0421084800F0BDFD0190019B002B84
:1080040003DA06494820FEF765FA0348FFF7E2FF62
:1080140000BF03B05DF804FB242C0020CCDC03007B
:1080240000B583B001900091019B1B681B68009907
:108034000198984700BF03B05DF804FB00B583B016
:108044000190019B1B689B680198984700BF03B08F
:108054005DF804FB82B001900B468DF80330019B60
:108064009DF803201A7200BF02B0704782B00190DD
:10807400019B1B7A184602B0704782B00190019BA5
:108084005B7A184602B0704700B587B00190009142
:108094001D4BFF229A601C4B00221A601A4B0022CF
:1080A4005A60194B0022C3F81824174B0022C3F856
:1080B4001424154B002283F82024144805F08EFB69
:1080C4000490049B002B01D0049B18E0104A114B30
:1080D400D31ADB080393002305930BE0059B9B0055
:1080E4000D4A13440293059B9AB2029B1A80059B86
:1080F40001330593059A039B9A42EFD30023184654
:1081040007B05DF804FB00BF0838002070D80300F6
:1081140070D80300C8D70300902B0020024A034BF9
:10812400D31ADB081846704770D80300C8D7030079
:1081340000B587B001900B468DF803309DF80330ED
:10814400002B1FD0FFF7EAFF04900023059313E0F0
:10815400059B9B000E4A13440393039B5B881A46BA
:10816400019B1B689A4204D1019B059A1A60002363
:1081740009E0059B01330593059A049B9A42E7D3D2
:10818400052300E00023184607B05DF804FB00BF98
:10819400902B002000B585B001900B468DF803307C
:1081A4009DF8032001AB11461846FFF7C1FF0346B3
:1081B400002B07D1019BDB00054A13440393039B67
:1081C4001B6800E00023184605B05DF804FB00BFFF
:1081D400C8D7030084B001900B468DF80330019B8F
:1081E400DB00174A134402939DF80330013B032B31
:1081F4001CD801A252F823F00D820200158202005D
:108204001D8202002782020002238DF80F3011E044
:1082140004238DF80F300DE0029B1B798DF80F308D
:1082240008E0029B5B798DF80F3003E000238DF8A2
:108234000F3000BF9DF80F30184604B0704700BFE0
:10824400C8D7030000B585B00190009100238DF8D4
:108254000F30019B1B7803F00303DBB2002B06D025
:10826400019B1B7803F00403DBB2002B44D0019B79
:108274001B7803F00403DBB2002B28D0019B1B788E
:10828400C3F30103DBB2012B02D0022B0CD017E0A5
:10829400009B1B68019A1288C2F38312D2B2134462
:1082A4009A1C009B1A6024E0009B1B68019A528868
:1082B400C2F3891292B213449A1C009B1A6018E00C
:1082C40010494FF4A470FEF705F900BF11E0009BBC
:1082D4001A68019B5B88C3F389139BB21946019BFF
:1082E4001B88C3F389139BB20B4413445A1C009B91
:1082F4001A6001238DF80F309DF80F30184605B031
:108304005DF804FB50DD030000B58BB00023ADF82D
:1083140026303E4804F00FF83D4804F00CF83D4B7D
:108324005B6804933B4B9B680693049A069B13403B
:1083340002339B00374A13440433089304AB1946B1
:108344000898FFF77FFF0346002B09D0049A069B89
:10835400134002339B002F4A134404330893EDE780
:1083640000BF0023079311E0079B9B0001AA1A4456
:10837400049B591C049106990B40264902339B0027
:108384000B445B681360079B01330793079B012B26
:10839400EAD99DF80430C3F30103DBB2012B10D0FA
:1083A400022B1CD1BDF80A30ADF82630BDF80630DA
:1083B400C3F389139BB203339A08049B13440493B5
:1083C40013E0BDF80A30ADF82630BDF80430C3F32D
:1083D4008313DBB21A46049B1344049305E00E494D
:1083E4004FF4C270FEF776F800BF094803F0AFFF00
:1083F4000590059B002B02D0049B064A5360BDF8F0
:10840400263018460BB05DF804FB00BF203C00206A
:108414001C3C00200838002050DD030000B585B066
:108424000021074803F0BCFE0390039B0293029BC8
:1084340083F310030193019B184605B05DF804FB18
:10844400243C002000B589B003900291019200936E
:10845400039B1B0C0793FFF7E1FF0690FFF75EFEFB
:108464000246079B9A4204D8224940F2A910FEF71B
:1084740031F8009B5A1C0A9B1340069A1104079A70
:108484000A431D4902339B000B445A60009A0A9B1D
:10849400134002339B00184A134404330593039B8F
:1084A400DBB203F00703D9B2059A137861F3C5036D
:1084B4001370019BDBB203F00F03D9B2059A138842
:1084C40061F389131380029BC3F31501059A1368A2
:1084D40061F39F231360059A1378012161F301036B
:1084E4001370059A13786FF38203137000BF09B0F9
:1084F4005DF804FB50DD03000838002000B58DB0A2
:108504000390029113468DF80730039B02330A93BC
:1085140001238DF8273000238DF81B300DF11B0348
:10852400184601F083FD414B1A68029B1A603F4BC9
:108534009A683E4B59683D4B1B68CB1A1344013370
:108544000B9314E001213A4803F0B9FEFFF7DCFE77
:1085540008900899364803F0B2FE344B9A68334BBE
:108564005968324B1B68CB1A134401330B930A9A94
:108574000B9B9A42E6D89DF82730002B4AD0002363
:1085840005939DF80730002B18D09DF81430012274
:1085940062F301038DF814309DF8143043F00403A2
:1085A4008DF81430039BDBB203F00F03DAB2BDF88D
:1085B400143062F38913ADF8143017E09DF81430C9
:1085C400022262F301038DF814309DF8143043F055
:1085D40004038DF81430039B9BB2C3F309039AB2CE
:1085E400BDF8163062F38F13ADF816300F4B1A68CE
:1085F4000E4B9B68134002339B000C4A1344043314
:108604000793059A079B1A60084B1A680A9B134440
:10861400064A13609DF81B30184601F01DFD9DF8B5
:10862400273018460DB05DF804FB00BF0838002061
:10863400243C002000B58BB0059004910392029372
:108644001F4B9B68079306AB012219460298FFF75C
:1086540055FF0346002B24D0069B023309930023C5
:10866400089311E0099B5A1C0992079A1340089A2F
:10867400920003990A441268114902339B000B4487
:108684005A60089B01330893089A029B9A42E9D3E3
:10869400069A079B00931346029A04990598FFF7DC
:1086A400D1FE074B93F82034002B05D000BF00F017
:1086B40061F80346002BFAD100BF0BB05DF804FB50
:1086C4000838002000B583B00190009100230022F7
:1086D40000990198FFF7AEFF00BF03B05DF804FBFB
:1086E40000B587B0039002910192019B059305AAFE
:1086F400012302990398FFF79DFF00BF07B05DF8BF
:1087040004FB00B587B00390029101920093019B92
:108714000493009B059304AA022302990398FFF78C
:1087240089FF00BF07B05DF804FB00B589B0039072
:10873400029101920093019B0593009B06930A9B6F
:10874400079305AA032302990398FFF773FF00BF59
:1087540009B05DF804FB0000054B5A68044B1B6824
:108764009A420CBF01230023DBB21846704700BFB6
:108774000838002000B599B0FFF7EEFF0346002B40
:1087840001D00023B8E19A4B0022C3F81824BFF3A8
:108794004F8F974B5B680493954B9B681093049A97
:1087A400109B134002339B00914A134404331793E4
:1087B400002316930023159300230F9304AB19464B
:1087C4001798FFF73FFD0346002B14D0884B1A6817
:1087D400049B9A4205D8864B1B68854A5360002344
:1087E4008AE1049A109B134002339B00804A13448D
:1087F40004331793E2E700BF0023149311E0149BA2
:108804009B0001AA1A44049B591C049110990B4023
:10881400774902339B000B445B681360149B01335C
:108824001493149B012BEAD99DF8043003F003033D
:10883400DBB2022B40F09C80BDF80630C3F38913F1
:108844009BB20E93BDF80630C3F389139BB2502B31
:10885400A8BF50230D930D9B9BB2C3F309039AB297
:10886400BDF8063062F38F13ADF806300D9B083364
:108874000C939DF80430C3F3C203DBB20F930C993D
:108884005C4804F0B6FF1690169B002B00F0D480D1
:10889400169805F03EF801A9159B0822169805F0D4
:1088A400E1F8159B08331593049BDA43109B13409E
:1088B40001339B000B930D9A0B9B9A4242D90B9B5D
:1088C400002B08D0049A109B134002339B00484AA3
:1088D4001344043300E0484B0A930B9B002B02D053
:1088E4000B9BDBB201E00D9BDBB28DF827300B9BB9
:1088F400002B01D0404B00E0002308930B9B002B7E
:1089040006D00D9BDAB20B9BDBB2D31ADBB200E0CC
:1089140000238DF81F309DF82720159B0A9916987F
:1089240005F0A0F89DF82730159A13441593089B79
:10893400002B16D09DF81F20159B0899169805F05A
:1089440091F80EE0049A109B134002339B00284ACE
:10895400134404330693159B0D9A0699169805F053
:1089640081F80E9B03339A08049B1344049363E039
:108974009DF8043003F00303DBB2012B5CD1BDF896
:108984000430C3F38313DBB2062B28BF0623DBB208
:1089940003F00F03DAB2BDF8043062F38913ADF8C3
:1089A4000430BDF80430C3F38313DBB20233059300
:1089B4009DF80430C3F3C203DBB20F93059B9B0005
:1089C40019460C4804F015FF1690169B002B33D063
:1089D400169804F09EFF01A9159B0822169805F02D
:1089E40041F8159B08331593002314931BE000BF33
:1089F4000838002070D8030014380020049B5A1C47
:108A04000492109A134002339B003D4A1344191DEB
:108A1400159B0422169805F025F8159B043315932D
:108A2400149B01331493BDF80430C3F38313DBB2F6
:108A34001A46149B9A42E1D8169B002B3FD0304B28
:108A4400D3F8103413932E4BD3F81834002B1AD0C8
:108A5400169804F06DFF49E000238DF84B3013980D
:108A6400FFF70BFB0346002B02D001238DF84B309C
:108A74009DF84B30002B03D016991398FFF7D0FACA
:108A8400139B5B681393139B002BE5D1169804F09A
:108A94004FFF00238DF803300DF10303184601F056
:108AA400C5FA174BD3F81834002B02D1049B144A8F
:108AB40053609DF80330184601F0CEFA16E0104BCF
:108AC400D3F81034119305E01198FFF7B7FA119B0E
:108AD4005B681193119B002BF6D10A4B1B881B0476
:108AE40043F0020308491846FFF7ECFDFFF734FE94
:108AF400034683F00103DBB2184619B05DF804FBAA
:108B040008380020B42B0020B4DD030000B585B084
:108B14000023039322E0164BD3F81034029301236D
:108B24008DF807300EE00298FFF7A0FA03461A46C4
:108B3400039B9A4203D100238DF8073005E0029B82
:108B44005B680293029B002BEDD19DF80730002B4C
:108B540001D0039B07E0039B01330393039B092B81
:108B6400D9DD4FF0FF33184605B05DF804FB00BFB4
:108B74000838002000B585B001900B468DF803300D
:108B8400FFF7C4FF0390039BB3F1FF3F01D1039BA5
:108B94001EE0039BDBB219460198FFF75BFA0E4B0C
:108BA400D3F81034002B07D10B4A019BC2F81034C0
:108BB400019B00225A600AE0074BD3F810345A682C
:108BC400019B5A60044BD3F81034019A5A60039BFA
:108BD400184605B05DF804FB0838002082B0019007
:108BE400009100BF02B0704710B584B003900291A9
:108BF400039BDB88002B0AD0039BDB881A461F4BA0
:108C0400009313461E4A1F49029803F0DFFC039B9E
:108C14001B7A052B2ED0039B5B7A002B12D0039B6F
:108C24009B881A46039B1B7A19461046FFF7D2FA13
:108C340003461A46144B53F822301A461349029835
:108C440003F0C4FC039B1B6819460298FFF7C6FF98
:108C5400039B1B7A1A460E4B53F82240039B9B88B6
:108C640000211846FFF796FA03462246094902985E
:108C740003F0ACFC00BF04B010BD00BFE8DD03008E
:108C8400F8DD030030DE0300442C002048DE03003E
:108C9400302C00204CDE030000B585B00390029117
:108CA40013468DF80730039B1B7A052B0FD0039BCB
:108CB4005B7A002B06D00D4B1B681A460C490298B0
:108CC40003F084FC0B49029803F080FC07E09DF854
:108CD4000730002B03D00749029803F077FC029871
:108CE40003F052FC00BF05B05DF804FB442C0020E7
:108CF40048DE030058DE030030B58BB007900691C0
:108D0400059204930E9B1B7B8DF827300E9B00224B
:108D14001A730E990498FFF767FF059B062B7FD8FB
:108D240001A252F823F000BF498D0200538D0200C6
:108D3400638D0200778D0200958D0200BD8D0200C7
:108D4400ED8D020007990E9803F040FC69E0069B44
:108D54001B681A4607990E9803F038FC61E0069BDD
:108D64001A68069B04331B6807990E9803F02EFCBF
:108D740057E0069B1A68069B04331968069B083360
:108D84001B6800930B4607990E9803F01FFC48E0FC
:108D9400069B1968069B04331868069B08331B68F6
:108DA400069A0C3212680192009303460A46079908
:108DB4000E9803F00BFC34E0069B1868069B043302
:108DC4001C68069B08331B68069A0C3212680699C5
:108DD40010310968029101920093234602460799D3
:108DE4000E9803F0F3FB1CE0069B1C68069B0433FF
:108DF4001D68069B08331B68069A0C321268069994
:108E040010310968069814300068039002910192A9
:108E140000932B46224607990E9803F0D7FB00E0F7
:108E240000BF00220E990498FFF736FF0E9B9DF8B1
:108E340027201A7300BF0BB030BD00BF00B587B048
:108E44000390029101920093029B082B5CD8009B33
:108E54001B7B8DF81330009B00221A730099019834
:108E6400FFF7C2FE0023059314E0059A029B9A4281
:108E740009D2039A059B13441B781A462449009887
:108E840003F0A4FB03E02349009803F09FFB059B38
:108E940001330593059B072BE7D91F49009803F07D
:108EA40095FB0023059322E0059A029B9A4217D270
:108EB400039A059B13441B788DF812309DF81230E9
:108EC400184614F065FB0346002B02D09DF81230BF
:108ED40000E02E231A461149009803F077FB03E0C3
:108EE4000F49009803F072FB059B01330593059B22
:108EF400072BD9D9012200990198FFF7CDFE009BD9
:108F04009DF813201A7300E000BF07B05DF804FB5E
:108F14005CDE030064DE030068DE03006CDE030035
:108F240070DE03002DE9F04F89B0019000238DF825
:108F34001F3098E0514B1A689DF81F30DB00134432
:108F44000693069B1B7819464FF001024FF000036D
:108F5400A1F1200EC1F1200003FA01F902FA0EFE7C
:108F640049EA0E0922FA00F049EA000902FA01F876
:108F7400CDE90489424BD3E90001DDE9042302EA87
:108F8400000203EA0103134368D0DDE904236FEA16
:108F940002006FEA03013A4BD3E9002302EA00021C
:108FA40003EA01033649C1E90023069B1B781846EE
:108FB40006F092FD03468DF80F30069B1B78194688
:108FC4004FF001024FF00003A1F1200EC1F1200087
:108FD40003FA01F502FA0EFE45EA0E0522FA00F044
:108FE400054302FA01F4274BD3E9002304EA020AF9
:108FF40005EA030B9DF80F204FF00003069909784A
:10900400A1F1200EC1F1200003FA01F702FA0EFECD
:1090140047EA0E0722FA00F0074302FA01F6BB45BD
:1090240008BFB2451AD19DF80F30069A5278012A2A
:109034000CBF01220022D2B293420CBF01230023B1
:10904400DBB20293069B5B68002B07D0069B5B6830
:10905400069A12780299C9B2104698479DF81F30B3
:1090640001338DF81F30084B1B789DF81F209A425E
:10907400FFF460AF00BF09B0BDE8F08F2C3C0020C6
:10908400603C0020583C0020303C002070B586B085
:1090940001900A468DF803204FF001014FF00002C1
:1090A4000198A0F12006C0F1200502FA00F401FAAB
:1090B40006F6344321FA05F52C4301FA00F3CDE911
:1090C40004342F4B184600F01DFF0390039B002B24
:1090D40053D12C4BD3E90012DDE9043403EA010334
:1090E40004EA0204234337D1019806F0F5FC034651
:1090F400002B0CD0244BD3E90012DDE9043443EAFD
:10910400010344EA0204204AC2E900340FE0DDE925
:1091140004346FEA03016FEA04021B4BD3E9003401
:1091240003EA010304EA0204174AC2E90034154BB6
:10913400D3E90012DDE9043443EA010344EA0204FA
:10914400104AC2E900340E48104B1B68002219462D
:1091540000F0A6FE039011E0DDE904346FEA030198
:109164006FEA0402074BD3E9003403EA010304EA7B
:109174000204044AC2E9003400E000BF06B070BD36
:10918400383C0020603C0020583C0020343C002047
:1091940010B58AB003900B4601928DF80B30019BF9
:1091A400042B01D807235AE006F088FB034683F01A
:1091B4000103DBB2002B09D006F02EFB0990099BBA
:1091C4000893089B002B01D0089B48E0254A039B89
:1091D4001360254A9DF80B301370244A019B1360D9
:1091E400234A4FF000034FF00004C2E90034214A3F
:1091F4004FF000034FF00004C2E9003422E09DF870
:109204000B30DB00039A1344079305AB00210A4695
:109214001A800A469A7003238DF81430079B9B78B2
:109224008DF81530079B1B78184605AB124A194672
:1092340006F050FB0990099B0693069B002B01D076
:10924400069B0CE09DF80B305A1E8DF80B20002B6A
:10925400D5D10A4A00210A4800F0F2FD0346184617
:109264000AB010BD2C3C0020303C0020343C0020CF
:10927400583C0020603C002091900200298F02009D
:1092840074DE030000B583B0114B1B68002B03D1BF
:109294001049BA20FDF71EF9002301930CE00C4B92
:1092A4001A68019BDB0013441B780121184606F061
:1092B4008BFB019B01330193074B1B781A46019BDF
:1092C4009A42ECD80023184603B05DF804FB00BFB3
:1092D4002C3C002078DE0300303C002086B0039054
:1092E4000291019201238DF817309DF817301F4A1F
:1092F400039B13601D4A029B53601C4A019B9360AD
:10930400039B44F20102934212D044F202029342BC
:1093140021D1019B154AD360144BDB681B881A4684
:10932400124B9A61114BDB685B68104AD36112E0FF
:10933400019B0E4A13610D4B1B699B680B4A5361D9
:109344000A4B1B691B68094A9361084B1B695B68DC
:10935400064AD36100BF72B600BF9DF81730DBB276
:10936400002BFAD162B600BF06B07047683C0020FB
:1093740000B583B002900091019244F2010071465D
:109384006A46FEF77DF903B000BD00BF82B0034614
:109394008DF8073007499DF907305B099DF80720D0
:1093A40002F01F02012000FA02F241F8232000BF5C
:1093B40002B0704700E100E082B003468DF8073048
:1093C40008499DF907305B099DF8072002F01F0248
:1093D400012000FA02F2203341F8232000BF02B03A
:1093E400704700BF00E100E082B003468DF807300B
:1093F40008499DF907305B099DF8072002F01F0218
:10940400012000FA02F2403341F8232000BF02B0E9
:10941400704700BF00E100E082B003468DF80730DA
:1094240008499DF907305B099DF8072002F01F02E7
:10943400012000FA02F2603341F8232000BF02B099
:10944400704700BF00E100E082B0034600918DF850
:1094540007309DF90730002B0CDA0D499DF80730D1
:1094640003F00F03043B009AD2B25201D2B20B4470
:109474001A7609E007499DF90730009AD2B25201E1
:10948400D2B20B4483F8002300BF02B0704700BF80
:1094940000ED00E000E100E000B585B00190019B23
:1094A400002B0AD0074B43F001030393019B9B015C
:1094B4000293039B0298984700E000BF05B05DF853
:1094C40004FB00BFD0DE030000B583B00190064A60
:1094D400019BC2F8083507211120FFF7B5FF00BF33
:1094E40003B05DF804FB00BF0010014008B50D4B4C
:1094F4004FF48032C3F844230A4B4FF48032C3F84C
:1095040004231120FFF788FF1120FFF73FFF054BCD
:1095140001221A602F20FFF7BFFF034B01221A70AC
:1095240000BF08BD00100140A63D002008B5112071
:10953400FFF742FF0E4B4FF48032C3F848230C4B25
:109544004FF48032C3F80823094B01225A602F20BC
:10955400FFF7A2FF064B01229A60064B00221A6015
:109564002F20FFF799FF044B00221A7000BF08BD9B
:1095740000100140983D0020A63D0020024BD3F886
:1095840004351846704700BF0010014082B00190B6
:109594000091019A009BD31A23F07F43184602B02E
:1095A4007047000082B00190034A019BC2F8403525
:1095B40000BF02B0704700BF0010014086B00190A8
:1095C400284B1B68002B03D1264A019B136045E0FE
:1095D400019B1A68234B1B681B689A4210D8214BC5
:1095E4001B68204A12681168019A12688A1A1A6064
:1095F4001C4B1A68019BDA611A4A019B13602DE027
:10960400019B1B680393174B1B680593154B1B6841
:10961400049309E0049B1B68039AD31A0393049BE5
:109624000593049BDB690493049B002B04D0049BE7
:109634001A68039B9A42EDD3049B002B05D0049B2C
:109644001A68039BD21A049B1A60019B039A1A603E
:10965400019B049ADA61059B019ADA6100BF06B0A6
:10966400704700BF943D002000B587B001902A4B9D
:109674001B680393284B1B680593059B049308E020
:10968400049A019B9A4208D0049B0593049BDB69CE
:109694000493049B002BF3D100E000BF049B002B38
:1096A40001D1002333E0059A049B9A4214D11A4B4A
:1096B4001B68DB69184A1360174B1B68002B0BD11E
:1096C400164B01229A60164B00221A60154B012298
:1096D4001A702F20FFF7E0FE049B1B680293049B83
:1096E400DA69059BDA61059BDB690493049B002B13
:1096F40005D0049B1A68029B1A44049B1A60064B0B
:109704001B68039A9A4214BF01230023DBB2184654
:1097140007B05DF804FB00BF943D00200010014039
:10972400983D0020A73D002008B51120FFF75CFEFE
:1097340000BF08BD08B51420FFF756FE00BF08BDE2
:1097440000B583B00190019B5B69019A9269104650
:10975400984700BF03B05DF804FB000000B585B076
:109764002B4B1B68002B4ED000230193FFF706FF01
:109774000246284B1B6819461046FFF707FF029064
:10978400234B1B6803931DE0039B1A68029B9A42B8
:109794001CD8039B1B68029AD31A0293039B1B6871
:1097A400019A13440193039B0093039BDB69039386
:1097B400009B1B7C002B05D0009B00221A74009890
:1097C400FFF7BEFF039B002BDED100E000BF124B6E
:1097D4001A78124B1B789A420CD1104B1B78013328
:1097E400DAB20E4B1A700D4B1B78022B02D10B4BC5
:1097F40000221A70094B1B781946094A019B42F84A
:109804002130FFF797FF00BF05B05DF804FB00BFF0
:10981400943D0020983D0020A43D0020A53D00205B
:109824009C3D002082B00190184B1A78184B1B788D
:109834009A4223D0154B1B780133DAB2134B1A70BA
:10984400124B1B78022B02D1104B00221A700F4BC3
:109854001B781A460F4B53F82220019B1A60019B78
:109864001A680D4B1B6813440B4A13600A4B1B68A0
:1098740023F07F43084A1360012303E0019B002285
:109884001A600023184602B0704700BFA43D0020B0
:10989400A53D00209C3D0020983D002088B0039009
:1098A400029101920023079338E0204B1B68069332
:1098B400069B1A68039B9A4206D9069B1A68039B67
:1098C400D21A069B1A602DE0069B1B68039AD31AD2
:1098D4000393069B1B68079A13440793069B002275
:1098E4001A60124B1B680593069BDB690F4A1360D1
:1098F400069BDB68002B11D0029A079B134423F0CC
:109904007F42069B5A60069BDA68069B9A60019B1D
:109914001A68069BDA61019B059A1A60034B1B685F
:10992400002BC2D100BF08B0704700BF943D002097
:1099340000B589B0019000238DF81F30664B1B6879
:109944000593AAE0019B002B05D0019B0693069B7F
:10995400DB69019361E0614B1B781A4613465B0097
:109964001344DB005D4A1344043304935B4B1B78BC
:109974000133DAB2594B1A70584B1A78574B9B780B
:109984009A4202D1554B00221A70049B5B680693DD
:10999400049B1B78022B04D0032B1BD0012B1FD05C
:1099A4001DE0049B5B681846FFF75EFE0346002B30
:1099B40002D001238DF81F30069B00221A746CE03C
:1099C400454B1B680393039B00221A74039BDB69BA
:1099D400414A1360404B1B68002BF1D15DE05CE011
:1099E40000BF069B1B7C002B00D056E0049B9A68AA
:1099F400069B5A60049BDA68069B9A60049B1A696A
:109A0400069BDA60049B5A69069B9A61344B1B7867
:109A1400002B02D0069B00225A60069B5A68314BE9
:109A24001B68D31A23F07F432F4A93420ED8069B18
:109A34005A682C4B1B6819461046FFF7A7FD0246CF
:109A4400069B9B681A44069B1A6017E0254B1A680C
:109A5400069B5B6819461046FFF798FD0290069B2B
:109A64009A68029B9A4206D9069B9A68029BD21A6C
:109A7400069B1A6002E0069B00221A60069B0022E5
:109A84005A60069B00229A60069B01221A74069B68
:109A94000022DA610698FFF791FD019B002B7FF409
:109AA40051AF0E4B1A780D4B5B789A427FF44AAF54
:109AB4009DF81F30002B04D1074B1A68059B9A426E
:109AC40001D0012300E0002303F00103DBB21846B8
:109AD40009B05DF804FB00BF943D0020883C0020E1
:109AE400A73D0020983D0020FEFF7F0010B588B000
:109AF4000190274B1B68002B44D0254B1B681B6827
:109B04000793FFF73BFD0690224B1B6805930599CD
:109B14000698FFF73BFD0346033304931E4B1B7863
:109B240083F00103DBB2002B01D0FFF7DFFC049AC2
:109B3400079B934238BF1346059A13440593059B2C
:109B440023F07F4305930598FFF72CFDFFF716FDDF
:109B5400039006990398FFF719FD0346DC1C069948
:109B64000598FFF713FD03469C420DD9FFF706FD48
:109B740003461846FFF716FD2F20FFF78DFCFFF76D
:109B8400D3FD01E0FFF7D2FC00BF08B010BD00BF59
:109B9400943D0020983D0020A63D002000B587B0EC
:109BA4000023019300238DF81730194B1B6804938D
:109BB400184B1B6803936B461846FFF733FE0346A6
:109BC4008DF80B309DF80B30002B08D0009B01AAB8
:109BD40004991846FFF762FE01238DF81730019BA4
:109BE4001846FFF7A5FE0346002B02D001238DF88B
:109BF40017309DF81730002B02D00398FFF776FF3B
:109C0400054B00221A7000BF07B05DF804FB00BFCB
:109C1400983D0020943D0020A73D002082B00346DB
:109C24008DF80730034A9DF80730537000BF02B027
:109C3400704700BF883C002084B00190144B5B78CF
:109C440001338DF80F30124B9B789DF80F209A4208
:109C540002D100238DF80F300D4B1B789DF80F2097
:109C64009A4201D100230FE0019B9DF80F201A7046
:109C7400074B5B781A4613465B001344DB00044A27
:109C8400134404330293029B184604B0704700BF88
:109C9400883C002000B589B00390029101920093A2
:109CA4000023079300238DF816300DF11603184690
:109CB40000F0BCF90DF117031846FFF7BDFF06903D
:109CC400069B002B02D10423079318E0069B012274
:109CD4001A70069B039A5A60FFF750FC0246069BD3
:109CE4009A60069B029ADA60069B019A1A61069BA7
:109CF400009A5A619DF817301846FFF78FFF9DF8B8
:109D04001630184600F0A8F9079B002B01D1FFF785
:109D140011FD079B184609B05DF804FB00B587B038
:109D240001900B468DF803300023059300238DF832
:109D34000E300DF10E03184600F078F90DF10F0303
:109D44001846FFF779FF0490049B002B02D10423EB
:109D540005930BE0049B9DF803201A70049B019A61
:109D64005A609DF80F301846FFF758FF9DF80E30E3
:109D7400184600F071F9059B002B01D1FFF7DAFCBE
:109D8400059B184607B05DF804FB000008B50E4BB0
:109D94000022C3F840210C4B0022C3F844210A4B93
:109DA4000022C3F84821084B0022C3F84C21064B7B
:109DB4000022C3F80021044B0022C3F80421FFF75A
:109DC400CDFC00BF08BD00BF0010014008B5FFF77F
:109DD400E5FE00BF08BD000008B5FFF7A7FB134B65
:109DE40000221A70114B00225A70104B0B229A70E9
:109DF4000F4B00221A600F4B00221A700E4B0022E8
:109E04001A701420FFF708FB07211420FFF71CFB2E
:109E14001420FFF7BBFA0020FFF756FBFFF7AEFB59
:109E24000246064B1A600023184608BD883C0020F1
:109E3400943D0020A43D0020A53D0020983D002035
:109E440086B003900B4601928DF80B30134B9B7830
:109E5400002B01D108231EE0019B002B01D1072315
:109E640019E0039B002B01D1072314E0039B1B681B
:109E74001B7C002B01D008230DE0039B1B6805937A
:109E8400059B00221A74059B9DF80B205A74059BB0
:109E9400019A5A610023184606B07047883C002096
:109EA40000B587B0039002910192039B0593144B74
:109EB4009B78002B01D108231EE0039B002B01D1CA
:109EC400082319E0029B042B01D8072314E0059B07
:109ED4005B69002B01D108230EE0059B5B7C012B01
:109EE40001D1029B00E000230493019B049A029990
:109EF4000598FFF7CFFE0346184607B05DF804FB4C
:109F0400883C002000B585B00190019B03930D4B64
:109F14009B78002B01D1082310E0019B002B03D078
:109F2400039B5B69002B01D1082307E0039B0022FC
:109F34001A7402210398FFF7F1FE0346184605B090
:109F44005DF804FB883C002082B0EFF3108300939B
:109F5400009B019372B6019B184602B0704762B62B
:109F640000BF704700B585B00190FFF7EDFF039087
:109F7400164B9B68002B1BD1144B01229A60144B87
:109F8400D3F88020134B1340104A1360104B114A2E
:109F9400C3F880200E4BD3F884300C4A53600C4B2A
:109FA4004FF0FF32C3F88420019B00221A7002E0B4
:109FB400019B01221A70039B002B01D1FFF7CFFFF5
:109FC4000023184605B05DF804FB00BFA83D00203F
:109FD40000E100E0FC06FFBD00B585B003468DF846
:109FE4000730104B9B68002B16D09DF80730002BD0
:109FF40012D1FFF7A9FF03900B4A0A4B1B681360A9
:10A00400094A084B5B685360064B00229A60039B25
:10A01400002B01D1FFF7A3FF0023184605B05DF81C
:10A0240004FB00BFA83D002000E100E000B583B0C0
:10A03400019000F02BF80346012B03D0054943207F
:10A04400FCF748FA0198FFF78DFF00BF03B05DF8F5
:10A0540004FB00BFD8DE030000B583B003468DF8CF
:10A06400073000F013F80346012B03D006495120B2
:10A07400FCF730FA9DF807301846FFF7ADFF00BF34
:10A0840003B05DF804FB00BFD8DE030084B0EFF337
:10A0940005830193019BC3F308030393039B002BE4
:10A0A4000DD1EFF314830093009B0293029B03F002
:10A0B4000103002B0CBF01230023DBB200E00123CA
:10A0C400184604B0704782B00190019B03F003036B
:10A0D400002B0CBF01230023DBB2184602B07047EB
:10A0E40000B585B00190002303930EE00A4A039B58
:10A0F40052F82330002B05D0074A039B52F8233033
:10A1040001989847039B01330393039B032BEDD9D9
:10A1140000BF05B05DF804FBC43D002082B001908F
:10A124000091019B1B78013B052B61D801A252F8D9
:10A1340023F000BF51A1020059A102007FA1020037
:10A14400B1A10200D1A10200EDA10200009B0022F6
:10A154001A704EE0009B01221A70019B1A89009B21
:10A164009A81019B9A88009BDA81019BDA68009BA3
:10A174009A60009B00221A743BE0009B02221A7032
:10A18400019B1A89009B9A81019B9A88009BDA8122
:10A19400019BDA68009B9A60019B9B7D062B0CBF98
:10A1A40001230023DAB2009B1A7422E0009B0322ED
:10A1B4001A70019BDA88009B9A81019B1A89009B83
:10A1C400DA81019BDA68009B9A6012E0009B04220A
:10A1D4001A70019BDA88009B9A81009B0022DA8125
:10A1E400009B00229A6004E0009B05221A7000E0A4
:10A1F40000BF00BF02B0704784B001900091019B82
:10A204000393039A009B9A4206D2039B1B68B3F103
:10A21400FF3F01D0012300E0002303F00103DBB280
:10A22400184604B0704782B00190019B5B880333E9
:10A234009B00019A1344184602B0704700B583B0DE
:10A24400019000910198FFF7EEFF0246009B9A42AD
:10A2540001D902230CE0019B9B884FF6FF729342C5
:10A2640003D0019B1B88002B01D1012300E00023B4
:10A27400184603B05DF804FB00B583B00190019B60
:10A28400002B13D00D4BDB681A46019B9A420DD864
:10A294000A4B1B691A46019B9A4207D30198FFF7A0
:10A2A40012FF0346002B01D0012300E0002303F03A
:10A2B4000103DBB2184603B05DF804FBE42B002075
:10A2C40082B00190019B002B04D0019B1B680B4AB8
:10A2D400934201D003230DE0019B04331B68084A19
:10A2E400934204D0074A934203D1012302E000239E
:10A2F40000E00323184602B0704700BFDEC0ADDEA5
:10A30400FE011EF1FF011EF184B0019000230393AE
:10A314000CE0039B9B00019A13441B68B3F1FF3FBD
:10A3240001D0002307E0039B01330393039BB3F5A0
:10A33400806FEED30123184604B0704782B0034601
:10A344000A46ADF806301346ADF80430BDF80620D1
:10A35400134913469B0013449B000B4408331A888B
:10A36400BDF804301344ADF80430BDF806200C49A0
:10A3740013469B0013449B000B440A331A88BDF810
:10A3840004301344ADF80430BDF8043040F2FF3219
:10A39400934294BF01230023DBB2184602B07047F6
:10A3A400643E002084B0019000910A2303930023AB
:10A3B400ADF80A3027E0BDF80A20174913469B0080
:10A3C40013449B000B4404331A68009B9A4215D231
:10A3D400BDF80A20104913469B0013449B000B440C
:10A3E40004331B6803F58052009B9A4206D900236C
:10A3F4000393019BBDF80A201A8008E0BDF80A30D7
:10A404000133ADF80A30BDF80A30012BD3D9039BD0
:10A41400184604B0704700BF643E002000B589B000
:10A42400039002910192039B03F580530693039BCF
:10A4340008330393029B02221A80039B079332E0A2
:10A4440006990798FFF7FAFE03468DF817309DF832
:10A454001730002B0AD1079B9A68184B1B689A4245
:10A4640013D9079B9B68154A13600EE0019B002BD0
:10A4740002D0019B01221A709DF81730022B04D1DF
:10A48400029B4FF480621A8014E0029B1A88079B97
:10A494005B8813449BB203339AB2029B1A800798D9
:10A4A400FFF7C1FE079006990798FFF7A5FE03463C
:10A4B400002BC5D109B05DF804FB00BFD43D0020DA
:10A4C40082B001900091009B9B7D022B09D9019BD6
:10A4D4001A89009BDB8813449BB203339AB2019B15
:10A4E4001A81019B5A89009BDB88D31A9BB2033BD8
:10A4F4009AB2019B5A8100BF02B0704700B583B085
:10A50400074B1B681946002300930823054A064895
:10A5140002F09EFC0346184603B05DF804FB00BF3E
:10A524008C3E002080DF0300E42B002000B585B0C2
:10A5340003900399002300930823044A044802F07B
:10A5440087FC0346184605B05DF804FB88DF03006A
:10A55400E42B002000B585B003460091ADF8063029
:10A5640000238DF80F30BDF806300333ADF80A3000
:10A57400BDF80A3040F2FD32934201D909234AE082
:10A584000023ADF80C303BE0BDF80C202449134601
:10A594009B0013449B000B441B78002B2BD1BDF86C
:10A5A4000A20BDF80C3011461846FFF7C7FE0346D3
:10A5B400002B20D001238DF80F30009BBDF80C2018
:10A5C4001A80BDF80C20BDF80C1015480B469B00F2
:10A5D4000B449B0003440A331988BDF80A300B442A
:10A5E40098B20F4913469B0013449B000B440A3353
:10A5F40002461A8008E0BDF80C300133ADF80C3087
:10A60400BDF80C30012BBFD99DF80F30002B01D0C1
:10A61400002300E00723184605B05DF804FB00BFE3
:10A62400643E002082B003460A46ADF80630134665
:10A63400ADF80430BDF80420BDF804100C480B46F6
:10A644009B000B449B0003440A331988BDF8063071
:10A65400CB1A9BB2033B98B2054913469B001344A3
:10A664009B000B440A3302461A8000BF02B07047B5
:10A67400643E002008B50121024801F020FE034693
:10A68400184608BDD43D002000B585B003460091AE
:10A69400ADF80630BDF80620234913469B00134449
:10A6A4009B000B4404331B6803F580530293009B07
:10A6B4001B680393039B002B04D00398FFF7B3FD9F
:10A6C400039024E0BDF80620174913469B00134469
:10A6D4009B000B4404331B680833039317E002996F
:10A6E4000398FFF7ABFD0346012B09D0022B0CD0D6
:10A6F400002B00D00BE0009B039A1A6001230EE0AC
:10A704000398FFF790FD039001E0002307E002990E
:10A714000398FFF771FD0346002BE0D10023184690
:10A7240005B05DF804FB00BF643E002000B585B0B1
:10A7340001900091019B5B681846FFF79DFD03465D
:10A74400002B19D0019B1A89244B1B899A4213D1DF
:10A75400019B1A68019B5B689B689A420CD1019B20
:10A764005B6819460098FFF71DFE0346002B0CBFDB
:10A7740001230023DBB22CE0009B00221A8023E09B
:10A784000023029310E0029B0393039B9A68019BAE
:10A794001B689A4208D1029A019B5A600F4B1A898E
:10A7A400019B1A81012314E0009B1B8802AA114615
:10A7B4001846FFF769FF0346002BE4D1009B1B8872
:10A7C40001339AB2009B1A80009B1B88012BD7D9B6
:10A7D4000023184605B05DF804FB00BF943E00203A
:10A7E40000B587B00390029101920093304B1B781F
:10A7F400DBB283F00103DBB2002B01D0022353E070
:10A80400019B002B02D0009B002B48D105234BE079
:10A81400009B9B881946274A0B469B000B449B00D0
:10A8240013441B78002B33D124E0009B1B68059351
:10A83400039B002B06D0059B9A88039B1B889A4296
:10A8440000D017E0029B002B06D0059B1A88029BC0
:10A854001B889A4200D00DE0059B9A68019B1A6000
:10A86400009B1A68019B5A60134B1A89019B1A8139
:10A87400002319E0009B9B88009A11461846FFF7B5
:10A8840003FF0346002BD0D1009B00221A6000E096
:10A8940000BF009B9B8801339AB2009B9A80009B67
:10A8A4009B88012BB4D90A23184607B05DF804FB32
:10A8B400B43D0020643E0020943E002000B585B0E5
:10A8C4000190084B0199184601F057FB03901C2294
:10A8D4000021039812F0DEFE039B184605B05DF8D4
:10A8E40004FB00BF682C002000B583B00190044B2A
:10A8F4000199184601F05AFB00BF03B05DF804FB50
:10A90400682C002000B583B00190054B01991846CE
:10A9140001F060FB0346184603B05DF804FB00BF7A
:10A92400682C002000B583B00190044B01991846AF
:10A9340001F069FB00BF03B05DF804FB682C002044
:10A9440008B50A4B1B68002B04D1094940F27A2050
:10A95400FBF7C0FD0121054801F0C9FC0346002BAB
:10A9640014BF01230023DBB2184608BDBC3D002000
:10A974003CDF030000B587B0002305930023ADF846
:10A9840012300323ADF8103000238DF80F3000236C
:10A99400ADF80C30F0E0BDF80C301B031A467F4BC9
:10A9A400DB68134402930298FFF78AFC03468DF890
:10A9B40007309DF80730012B00F09C80032B02D058
:10A9C400002B62D0D3E00298FFF79EFC0346002BD5
:10A9D4003BD0734B1B68002B29D0BDF81220714962
:10A9E40013469B0013449B000B4402221A70BDF8CB
:10A9F40012206C4913469B0013449B000B44043300
:10AA0400029A1A60BDF81220664913469B0013444B
:10AA14009B000B44083302221A80634ABDF81230AB
:10AA24005380BDF812300133ADF8123008E05C4AAF
:10AA3400029B13605A4B02229A8001238DF80F3037
:10AA4400059B43F00103059391E0BDF81030013BF1
:10AA5400ADF81030BDF81220524913469B00134440
:10AA64009B000B440433029A1A60BDF812204D492E
:10AA740013469B0013449B000B4403221A70BDF839
:10AA840012300133ADF8123071E0BDF8122045499F
:10AA940013469B0013449B000B4400221A70BDF81C
:10AAA4001220404913469B0013449B000B4404337B
:10AAB400029A1A60BDF8122013469B0013449B00AF
:10AAC4000833384A9918BDF8122013469B001344E2
:10AAD4009B001033334A13441A460298FFF79EFC36
:10AAE400059B43F002030593BDF812300133ADF822
:10AAF40012303CE09DF80F30002B25D0BDF8122019
:10AB0400284913469B0013449B000B4402221A70ED
:10AB1400BDF81220224B1968224813469B001344A7
:10AB24009B00034404331960BDF812201D491346E9
:10AB34009B0013449B000B44083302221A80BDF887
:10AB440012300133ADF81230154A029B1360002213
:10AB540016490298FFF762FC114B9B88022B01D126
:10AB6400042300E00823059A1343059300BFBDF8AE
:10AB74000C300133ADF80C30BDF80C30022B7FF6ED
:10AB84000AAFBDF81030012B01D800230593059BB3
:10AB9400DBB2184607B05DF804FB00BFE42B0020CD
:10ABA4008C3E0020643E0020943E0020903E002015
:10ABB40000B587B003900291039B02229A75029913
:10ABC400039B1A1D002300930423074802F040F955
:10ABD4000590059B002B01D1002300E00E231846AD
:10ABE40007B05DF804FB00BFE42B002000B587B07C
:10ABF40003900291039B1B69002B01D0032200E008
:10AC04000122039B9A75029B08331946039B03F1A7
:10AC14000C02002300930423064802F019F905905E
:10AC2400059B002B01D1002300E00E23184607B03A
:10AC34005DF804FBE42B002000B587B0039002917B
:10AC4400039B1B78032B01D1052200E00622039B02
:10AC54009A75029B04331946039B03F108020023EF
:10AC640000930423064802F0F3F80590059B002B9B
:10AC740001D1002300E00E23184607B05DF804FB61
:10AC8400E42B002000B587B003900B46ADF80A30E2
:10AC940003990023009304230C4A0D4802F0D8F8CA
:10ACA4000590059B002B01D00E230BE0BDF80A2074
:10ACB400084913469B0013449B000B4410330122A4
:10ACC4001A700023184607B05DF804FB90DF0300F8
:10ACD400E42B0020643E002000B589B0019002AB53
:10ACE40000221A605A609A60019BDB6802930DF19E
:10ACF400160202AB11461846FFF718FD0346002B57
:10AD040012D0039B0693069B9A88019BDA80069BCC
:10AD14001A88019B1A81039BBDF816201146184618
:10AD2400FFF7B0FF079001E00A230793079B18463B
:10AD340009B05DF804FB000000B587B00190019BE9
:10AD4400981D02AA0D4B0021FFF74AFD0590059BB3
:10AD5400002B08D1039A094B9B8819461046FFF72C
:10AD640091FF059004E008220021044812F092FCAF
:10AD7400059B184607B05DF804FB00BFA43E002005
:10AD840000B587B003900291039B01229A75029B40
:10AD94000C331846039B1A69039BDB889900002334
:10ADA40000930B460146074802F052F80590059BB4
:10ADB400002B01D1002300E00E23184607B05DF8F4
:10ADC40004FB00BFE42B002082B0174B1B89013326
:10ADD4009AB2154B1A81144B00225A80124B00224E
:10ADE4001A730023ADF8063017E0BDF80610BDF85D
:10ADF40006200E4813469B0013449B0003441B7813
:10AE0400002B0CBF01230023DAB2074B0B449A72C8
:10AE1400BDF806300133ADF80630BDF80630012B1D
:10AE2400E3D900BF02B07047943E0020643E002086
:10AE340084B0019000238DF80F300023ADF80C305E
:10AE440031E0BDF80C301C4A13449B7A002B25D00A
:10AE5400BDF80C30184A134400229A72BDF80C2035
:10AE6400164913469B0013449B000B440C331B6888
:10AE7400002B13D1BDF80C20104913469B0013443A
:10AE84009B000B4410331B78002B07D0019BBDF8AB
:10AE94000C201A8001238DF80F3008E0BDF80C3027
:10AEA4000133ADF80C30BDF80C30012BC9D99DF835
:10AEB4000F30184604B07047943E0020643E0020D2
:10AEC40008B5084B05221A70074B02229A80064BDC
:10AED4001B68194600230122044802F091F8034636
:10AEE400184608BD943E00208C3E0020E42B002030
:10AEF40000B583B0164B5B88ADF80230BDF8022074
:10AF0400144913469B0013449B000B440C331B68E9
:10AF1400002B14D10E4B04221A70BDF802200D49E7
:10AF240013469B0013449B000B4404331B681946CF
:10AF340000230122084802F063F8019002E0FFF7C1
:10AF4400BFFF0190019B184603B05DF804FB00BFEE
:10AF5400943E0020643E0020E42B002000B587B01E
:10AF6400114B5B680593114B1A68104B9B889B002F
:10AF740013440493059B5B880333ADF80E300A4BEE
:10AF840003221A700499084B5A68BDF80E309800D1
:10AF9400002300930346064801F05AFF034618466F
:10AFA40007B05DF804FB00BF943E00208C3E0020F7
:10AFB400E42B002000B583B00A4B5B880A4918468D
:10AFC400FFF762FB0346002B03D0FFF7C7FF019096
:10AFD40002E0FFF78DFF0190019B184603B05DF876
:10AFE40004FB00BF943E0020983E002008B50A4BA5
:10AFF40006221A70084B5B881946084A0B469B00C8
:10B004000B449B00134404331B681846FFF78EFA65
:10B014000346184608BD00BF943E0020643E00204D
:10B0240008B5054B07221A70034B00225A60FFF73C
:10B0340065FA0346184608BD943E002008B50D483D
:10B04400FFF7F6FE034683F00103DBB2002B0BD0BF
:10B05400094B00221A70084B00225A80064B00222A
:10B064005A6041F61D5302E0FFF7A4FF0346184659
:10B0740008BD00BF963E0020943E002082B0094BDC
:10B084005B680193019B5B880333ADF80230064B88
:10B094009A88BDF8023013449AB2034B9A8000BFD9
:10B0A40002B07047943E00208C3E002082B0184BC2
:10B0B4001B680193174B5B881946174A0B469B0084
:10B0C4000B449B00134404331B68114A1360114B57
:10B0D4005B881946104A0B469B000B449B001344A3
:10B0E4000433019A1A600B4B5B881946084B988805
:10B0F400094A0B469B000B449B0013440833024649
:10B104001A80034B02229A8000BF02B0704700BF2E
:10B114008C3E0020943E0020643E002008B51A4B6B
:10B124001B78072B2CD801A252F823F051B102004E
:10B1340085B1020085B102005DB1020069B102006F
:10B1440075B1020075B102007DB10200FFF73CFE4B
:10B154000D4B01221A7014E0FFF790FF0A4B0222F4
:10B164001A700EE0FFF7A2FF074B06221A7008E0E0
:10B17400054B07221A7004E0034B01221A7000E009
:10B1840000BF00BF08BD00BF943E002000B587B0DB
:10B19400019000910F230593019B002B04D0624B77
:10B1A40000225A600123BBE0009B1B79032B00F2B1
:10B1B400AB8001A252F823F0CDB10200DBB1020052
:10B1C40069B2020089B20200009B01221A71FFF7E2
:10B1D40095F905909BE000238DF813300023ADF81A
:10B1E40010302BE0BDF81020504913469B00134447
:10B1F4009B000B441B78022B1BD1BDF810204B493C
:10B2040013469B0013449B000B4400221A70012335
:10B214008DF81330BDF81020444913469B001344A5
:10B224009B000B4404331B681846FFF77FF9059015
:10B2340008E0BDF810300133ADF81030BDF810301F
:10B24400012BCFD99DF8133083F00103DBB2002B1F
:10B254005CD0354B01221A70334B00225A6041F600
:10B264001D535DE0009B00221A71314B02229A802B
:10B274002F4B1B681946002301222E4801F0C0FE03
:10B28400059044E0009B00221A71294B1B68184664
:10B29400FFF74CF90590284B5B88ADF80E30244B32
:10B2A4001B680293BDF80E20204913469B001344EB
:10B2B4009B000B4404331B681D4A1360BDF80E2029
:10B2C4001A4913469B0013449B000B440433029A0F
:10B2D4001A60BDF80E20164B9888144913469B003B
:10B2E40013449B000B44083302461A80104B02227D
:10B2F4009A80BDF80E200D4913469B0013449B0011
:10B304000B4400221A7002E000BF00E000BF059B5E
:10B31400002B04D0044B00225A600E2300E00023CB
:10B32400184607B05DF804FBB43D0020643E0020DD
:10B334008C3E0020E42B0020943E002000B587B012
:10B3440001900091009B9B8A1A4613469B0013446C
:10B354009B003A4A13440493019B002B05D00099A7
:10B364000498FFF7ADF8012363E0049B5A68049B3B
:10B374001B899B0013440393009B9B7D062B4DD894
:10B3840001A252F823F000BFCFB30200F3B30200CE
:10B39400DBB30200E7B30200A9B30200FFB302006B
:10B3A40019B40200264B00225A60009B9B69244A70
:10B3B400136024492248FFF7B9F9034683F00103D7
:10B3C400DBB2002B01D00A2333E003990098FFF786
:10B3D400EFFB059025E003990098FFF707FC059023
:10B3E4001FE003990098FFF7CBFC059019E003993F
:10B3F4000098FFF721FC059013E0009B06229A7544
:10B404000F4B5A680F4B1B8819461046FFF73AFC3E
:10B41400059006E041F61D53059302E00F230593C2
:10B4240000BF059B002B03D000990498FFF748F850
:10B43400059B184607B05DF804FB00BF643E00207E
:10B44400AC3E0020B83E002000B585B001900091CC
:10B45400019B002B01D0012323E0009B1B79012BCE
:10B464000BD0022B14D0002B16D1009B02221A7190
:10B474000098FFF731FC039012E00098FFF75CFCA2
:10B484000390039B0A2B0AD141F61D53039306E054
:10B4940041F61D53039303E00F23039300E000BF21
:10B4A400039B184605B05DF804FB000000B585B0A9
:10B4B4000190019B002B01D001233BE01F4B1B7B20
:10B4C400002B03D01D4B00221A7301E0FFF726FE68
:10B4D4001A4B1B78013B062B28D801A252F823F003
:10B4E40001B5020009B5020011B5020019B5020048
:10B4F40031B5020021B5020029B50200FFF79EFD17
:10B50400039016E0FFF756FD039012E0FFF726FDC7
:10B5140003900EE0FFF7ECFC03900AE0FFF766FDF2
:10B52400039006E0FFF77CFD039002E00F230393F2
:10B5340000BF039B184605B05DF804FB943E002051
:10B5440000B589B001903F4B1B68002B05D13E48E4
:10B55400FFF7D8F902463B4B1A603A4B1B68002BA5
:10B5640004D13A4940F28250FAF7B4FF354B1B68D4
:10B574001B78013B052B2CD801A252F823F000BF05
:10B584009DB50200ADB50200ADB50200BDB5020027
:10B59400BDB50200CDB502002A4B1B6819460198BF
:10B5A400FFF7F4FD019017E0264B1B68194601983C
:10B5B400FFF7C4FE01900FE0224B1B681946019867
:10B5C400FFF742FF019007E00198FFF76FFF01903A
:10B5D40002E00F23019300BF019B002B2BD003AB90
:10B5E40000221A605A609A60DA601A61019B41F67F
:10B5F4001D52934201D0019B00E000230493114BA0
:10B604001B6803AA11461846FEF788FD03AB1846CB
:10B61400FEF766FD0B4B00221A60002301930A48D3
:10B62400FFF780F9FFF78CF9034683F00103DBB2DF
:10B63400002B02D187E700BF00E000BF00BF09B0C4
:10B644005DF804FBBC3E0020C03E00203CDF03004C
:10B6540008B50121054800F01AFE0346002B02D16B
:10B664000020FFF76DFF00BF08BD00BFBC3D0020F8
:10B6740000B583B00190019B5B681846FFF760FF3B
:10B6840000BF03B05DF804FB00B58BB003900291DA
:10B6940001928DF803300023ADF824300023ADF877
:10B6A4002630514B1B78DBB283F00103DBB2002B55
:10B6B40001D0022393E0029B002B01D105238EE0ED
:10B6C400029B1B884FF6FF72934203D0029B5B8858
:10B6D400002B01D1042382E0029B5B681846FEF72D
:10B6E400F2FC034683F00103DBB2002B01D00323F9
:10B6F40075E0019B002B11D1029B9B68ADF82630AD
:10B704000DF11A02BDF8263011461846FEF722FF45
:10B714000890089B002B09D0089B60E0019B1B88C4
:10B72400ADF81A30019B5B88ADF8263005AB18469E
:10B73400FFF7C4F80790079B002B09D1BDF81A2026
:10B74400BDF8263011461846FEF76CFF082346E084
:10B75400079B9DF803201A70079B00229A75BDF879
:10B764001A20079B9A82029B5A68079B1A61FEF76C
:10B7740081FF0246079BDA60029B1A88079B1A81A5
:10B78400029B5A88079B9A80079BBDF82620DA8083
:10B794009DF80330032B06D1079B04229A75039B63
:10B7A4001A68079B9A61079BBDF824205A8105AB50
:10B7B4001846FFF799F8039B002B0DD0039B00223A
:10B7C4005A60079BDA68039B1A60039B00229A72F3
:10B7D400064B1A89039B1A81FFF73AFF0023184688
:10B7E4000BB05DF804FB00BFB43D0020943E002084
:10B7F40000B585B001900C4B1B68042B02D10C23BF
:10B8040003930BE0084B1B680849019A41F8232075
:10B814000121054800F053FD00230393039B1846C0
:10B8240005B05DF804FB00BFC03D0020C43D00200E
:10B8340084B04FF010235B6903934FF080531B696E
:10B8440002934FF080535B690193039BB3F1FF3F75
:10B8540004D1019B029A02FB03F300E0039B184608
:10B8640004B0704700B583B04FF440530193FFF721
:10B87400DFFF0246054B1A61044B1A69019BD31A78
:10B88400024AD36000BF03B05DF804FBE42B002040
:10B8940008B5FFF7E7FF00220349044801F094FAD2
:10B8A4000346184608BD00BF90E20300E42B0020C5
:10B8B40008B504481C238C22034900F017FB00BF81
:10B8C40008BD00BF682C0020D83D002000B58BB017
:10B8D40002AB00221A605A609A60DA601A61404B27
:10B8E4001B78DBB2002B05D002AB1846FEF7F8FB41
:10B8F400002371E03B4800F012FD0346002B01D009
:10B90400002369E0FFF7C4FF0990099B002B01D0D5
:10B91400099B61E0FFF7CCFFFFF72CF803468DF895
:10B9240023309DF82330022B0DD0062B0DD0002B95
:10B9340009D000BF01AB1846FEF7C0FF0790079B74
:10B94400002B10D10DE00B2346E0254B01221A7089
:10B95400234B00225A6002AB1846FEF7C1FB0023BA
:10B964003AE0082338E0079B01221A709DF823303F
:10B97400013B0A2B28D801A252F823F0ADB90200EA
:10B98400CDB90200ADB90200CDB90200C5B90200BB
:10B99400CDB90200C5B90200CDB90200B5B90200A3
:10B9A400BDB90200B5B90200079B00221A710CE070
:10B9B400079B03221A7108E0079B02221A7104E014
:10B9C400079B01221A7100E000BF01AB1846FEF785
:10B9D4008BFFFFF73DFE002318460BB05DF804FB18
:10B9E400B43D0020B83D002000B585B00190009121
:10B9F400019B002B02D0009B002B01D1052329E0E1
:10BA04000DF10A0319460198FEF790FE0346002B38
:10BA14001FD0019B5B680393BDF80A301A46134696
:10BA24009B0013449B0008330C4A13440433012144
:10BA3400184600F044FC009B039A1A60019B5B6863
:10BA440003F10C02009B5A60019B01229A720023AD
:10BA540000E00A23184605B05DF804FB643E0020AC
:10BA640000B585B00190019B002B01D1052339E07D
:10BA74000DF10A0319460198FEF758FE0346002B00
:10BA84002DD0BDF80A301946184A0B469B000B44CA
:10BA94009B0013440C331B68002B1DD0019B9B7A25
:10BAA400002B19D0BDF80A301A46104913469B00E2
:10BAB40013449B000B440C331B68591E0B4813465C
:10BAC4009B0013449B0003440C331960019B002228
