:020000022000DC
:10600000000001203D6202009562020097620200DA
:10601000996202009B6202009D6202000000000083
:106020000000000000000000000000009F6202006D
:10603000A162020000000000A3620200A56202004B
:1060400009F30200AB62020065000300C93B0300D4
:10605000B1620200B362020085FD0200C541030087
:10606000B9620200BB620200BD620200BF620200B0
:10607000C1620200C3620200C5620200C762020080
:10608000C9620200F59F0200CD620200C92203002E
:1060900035A00200D3620200B1D40300D76202002F
:1060A000D9620200DB620200DD620200DF620200F0
:1060B000212F0300E3620200A7620200A762020030
:1060C000E5620200392F0300E9620200EB62020080
:0C60D000851F0300EF620200F162020075
:1060DC00364937480A1A02D0072291438D46354972
:1060EC0035480A1A06D00722914381F30988022207
:1060FC0082F3148831483249324A00F045F832486C
:10610C003249334A00F040F832483349334A00F000
:10611C003BF833483349344A00F036F833483449B5
:10612C00344A00F031F834483449354A00F02CF840
:10613C0034483549354A00F027F8354835490022AE
:10614C0000F02DF834483549002200F028F8344886
:10615C003449091A082903DB00220260043001606B
:10616C00314A90471F482049884205D002680430C4
:10617C0003B4904703BCF7E700208646EC460020AA
:10618C0000212A4A9047FEE7884207D0521A05D0D0
:10619C00037801300B700131013AF9D17047884214
:1061AC0002D002700130FAE77047000000000120B5
:1061BC0000E000200000012000000120280704005E
:1061CC00FC2B0020C42C0020F4620200F4620200BC
:1061DC00F8E2030028070400FC2B0020FC2B002015
:1061EC00BCE40300BCE40300BCE40300BCE4030017
:1061FC00BCE40300BCE40300BCE40300BCE4030007
:10620C0028070400F0070400C42C0020C42C002034
:10621C00C42C0020143D0020143D0020143D00200F
:10622C00143D0020145D002061620200997602008A
:10623C000F484FF00701884385460E4880470E48AB
:10624C00016841F470010160BFF34F8FBFF36F8F92
:10625C00FFF73EBF09480A490A4A884207D0521A3A
:10626C0005D0037801300B700131013AF9D1704738
:10627C0000000120C5DF020088ED00E050E40300BF
:10628C00902B0020FC2B0020FEE7FEE7FEE7FEE74C
:10629C00FEE7FEE7FEE7FEE7FEE7FEE7FEE7FEE7CA
:1062AC00FEE7FEE7FEE7FEE7FEE7FEE7FEE7FEE7BA
:1062BC00FEE7FEE7FEE7FEE7FEE7FEE7FEE7FEE7AA
:1062CC00FEE7FEE7FEE7FEE7FEE7FEE7FEE7FEE79A
:1062DC00FEE7FEE7FEE7FEE7FEE7FEE7FEE7FEE78A
:0862EC00FEE7FEE7FEE700BF3C
:1062F40041DF704700BF184676DF704700BF18467D
:1063040078DF704700BF18467ADF704700BF184631
:106314007CDF704700BF18468FDF704700BF184608
:1063240000B585B00190019B002B0AD0074B43F0C8
:1063340001030393019B9B010293039B02989847DB
:1063440000E000BF05B05DF804FB00BF90E6030069
:1063540082B001900B468DF803309DF80320019B19
:1063640013441A460123136000BF02B0704700B5FE
:1063740083B00190019B1B6808211846FFF7E8FFD2
:1063840000BF03B05DF804FB00B583B00190019B2E
:106394001B681F2B04D9054940F2C71000F09CF874
:1063A4004FF0A043184603B05DF804FBBCE40300BF
:1063B40000B585B0019001AB1846FFF7E5FF0390E7
:1063C400039BD3F804350293029BDA43019B01211A
:1063D40001FA03F31A40039BC3F80825019B012229
:1063E4009A40029B1A40039BC3F80C2500BF05B0DA
:1063F4005DF804FB00B583B00190019B002B0AD02B
:106404004FF47A70FFF78CFF019B013B0193019BD2
:10641400002BF5D100E000BF03B05DF804FB0000E1
:1064240082B00346ADF80630BDF80630B3F5847F7C
:1064340009D1064B1B68B3F1FF3F04D0034B1B6823
:106444000133024A136000BF02B07047CC2E002013
:1064540000B585B003468DF807309DF80730002B52
:106464002AD101230822002115480BF037FC0390A0
:10647400039B0293029B002B04D0124ADC21029856
:1064840003F0A8F80E48FFF772FF0F20FFF790FF04
:106494000D4B01221A7001F025FC0C4B1B881B04C8
:1064A40043F0030318460A4B1B681A46094902F0D5
:1064B4007BFA074B00221A6000BF05B05DF804FBAD
:1064C40088E60300ECE40300C42C0020B82B002071
:1064D400CC2E002014E5030000B583B003460091E0
:1064E400ADF80630BDF80630009A1946034803F0AB
:1064F40071F800BF03B05DF804FB00BFEFBEADDE72
:1065040000B583B00D4B1B881B0443F003030C49F7
:10651400184602F03BFA13F0D3FE0190019B00935E
:10652400009B002B05D0074A4FF48371009803F0B9
:1065340051F800BF03B05DF804FB00BFB82B002086
:1065440028E50300ECE4030000B585B003468DF8AC
:1065540007309DF80730002B02D0FFF7D1FF0FE082
:10656400032109480FF0A2FC0390039B0293029BB2
:10657400002B05D0054A40F21911029803F02AF8BD
:1065840000BF05B05DF804FB4C2D0020ECE40300D3
:1065940082B0019000BF02B07047000010B58CB00B
:1065A4000390039B1B780D2B00F2988001A252F8F4
:1065B40023F000BFF1650200E166020005660200F7
:1065C400E166020037660200E16602004D660200E1
:1065D400C7660200E166020079660200E166020015
:1065E4009366020071660200AD660200424B1B888E
:1065F4001B0443F003034149184602F0C7F978E04D
:106604003D4B1B881B0443F003031C46039B5B8820
:10661400184610F045FA03461A46039B5B88194650
:10662400039B1B7A00930B463549204602F0E1F99F
:106634005FE000238DF81430039B5B8805AA1146A4
:10664400184613F00FFE54E005F06AFC0B900B9B08
:10665400082B45D00B9B0A930A9B002B40D0294A58
:106664004FF4AF710A9802F0B5FF39E00020FFF74C
:106674006BFF3EE0039B1B690993099B002B31D000
:10668400204A40F26B11099802F0A4FF2AE0039B10
:106694009B680893089B002B26D01A4A40F271117C
:1066A400089802F097FF1FE0039B9B680793079BE2
:1066B400002B1BD0134A40F27711079802F08AFF8F
:1066C40014E0039B9B680693069B002B10D00D4A95
:1066D40040F27D11069802F07DFF09E000BF08E05A
:1066E40000BF06E000BF04E000BF02E000BF00E01E
:1066F40000BF00BF0CB010BDB82B002038E503006C
:1067040064E50300ECE4030000B583B015491648C2
:1067140007F0E7FB03468DF807309DF807304FF686
:10672400FE721946114815F042FD0090009B002BA3
:1067340013D0009B082B10D0009B132B0DD0009B73
:10674400112B0AD0009B43F20142934205D0084A20
:106754004FF4D071009802F03DFF00BF03B05DF824
:1067640004FB00BF842E0020942E0020182D00204E
:10677400ECE4030000B583B00190FFF7C5FF00BF50
:1067840003B05DF804FB000000B585B001901F491B
:106794001F4807F0A6FB0346ADF80E301D4B1B68DF
:1067A40001331C4A1360BDF80E3019461A4816F01E
:1067B400D2FA0290029B002B13D0029B082B10D01C
:1067C400029B132B0DD0029B112B0AD0029B43F288
:1067D4000142934205D0114A4FF4E771029802F046
:1067E400F9FE0C4B19680E4BA3FB01235A08134600
:1067F4005B001344CA1A002A14BF01230023DAB22F
:10680400084B1A7000BF05B05DF804FB9C2E0020F5
:10681400AC2E0020D02E0020C82C0020ECE4030075
:10682400ABAAAAAAFE2B002000B585B001902B4B81
:106834001B78002B4DD02A492A4807F052FB034607
:10684400ADF80E30BDF80E301946274816F0D2FACE
:106854002349244807F045FB0346ADF80E30BDF844
:106864000E301946204816F0C5FA1D491D4807F098
:1068740038FB0346ADF80E30BDF80E3019461A4801
:1068840016F0B8FA1649174807F02BFB0346ADF883
:106894000E30BDF80E301946134816F0ABFA104905
:1068A400104807F01EFB0346ADF80E30BDF80E305D
:1068B40019460D4816F09EFA09490A4807F011FBDB
:1068C4000346ADF80E30BDF80E301946064816F0F2
:1068D40091FA00BF05B05DF804FB00BFFE2B002059
:1068E400B42E0020C42E0020C82C002000B583B094
:1068F40001900C4B1B78002B14BF01230023DBB247
:1069040083F00103DBB203F00103DAB2054B1A7022
:10691400044B1B781946044816F09BFA00BF03B0D9
:106924005DF804FBD42E0020C82C002000B587B0ED
:1069340003F084FB0590059B0493049B002B05D076
:10694400264A40F21921049802F044FE244A012107
:10695400244803F0A7FB0590059B0393039B002B9E
:1069640005D01E4A40F21F21039802F033FE1E4A4E
:1069740001211E4803F096FB0590059B0293029BA0
:10698400002B05D0154A4FF40971029802F022FE3B
:10699400174A0121174803F085FB0590059B0193D5
:1069A400019B002B05D00D4A40F22921019802F0E9
:1069B40011FE114A0121114803F074FB0590059B57
:1069C4000093009B002B05D0044A40F22E2100982E
:1069D40002F000FE00BF07B05DF804FBECE4030026
:1069E4007967020078E603008D6702007CE6030005
:1069F4002D68020080E60300F168020084E60300CB
:106A040000B589B09DF80430012262F303038DF8C8
:106A140004309DF80430012262F307138DF804302A
:106A2400274817F037FC03469AB201AB24491846AD
:106A3400FFF76EFC0790079B0693069B002B05D07F
:106A4400204A40F24221069802F0C4FD40F241304F
:106A5400FFF756FC0790079B0593059B002B05D079
:106A6400184A40F24521059802F0B4FD02AB082211
:106A74000021184617F0DAFB4FF4A073ADF8083084
:106A84004FF40273ADF80A300023ADF80C304FF424
:106A9400C873ADF80E3002AB1846FFF735FC07900B
:106AA400079B0493049B002B05D0064A40F24F2118
:106AB400049802F08FFD00BF09B05DF804FB00BF2D
:106AC400A4E50300ECE4030000B583B00190009159
:106AD400009B1B8840F6772293420DD10A4B1B88FA
:106AE4001B0443F003031846009B5B881A46009B73
:106AF4009B88064901F069FF0099054816F0B6F92C
:106B040000BF03B05DF804FBB82B0020ACE5030024
:106B1400C82C002000B583B009490A4811F00EFDC5
:106B24000190019B0093009B002B05D0064A40F284
:106B34006721009802F04EFD00BF03B05DF804FB2E
:106B4400CD6A02002C2D0020ECE4030000B583B0D4
:106B54000190054A4FF41D71019802F03BFD00BFFE
:106B640003B05DF804FB00BFECE4030000B5A3B080
:106B740000230293824B029302AB1946814811F021
:106B840091FD2190219B2093209B002B05D07E4AD0
:106B940040F28921209802F01DFD03238DF807306F
:106BA40018AB14220021184617F040FB0023189359
:106BB40001238DF864300DF107031A939DF86C30AE
:106BC400012262F303038DF86C309DF86C300122CE
:106BD40062F307138DF86C309DF86D306FF3030387
:106BE4008DF86D309DF86D306FF307138DF86D30AF
:106BF4009DF86E306FF303038DF86E309DF86E30A0
:106C04006FF307138DF86E309DF86F30012262F335
:106C140003038DF86F309DF86F30012262F3071380
:106C24008DF86F309DF870306FF303038DF870307A
:106C34009DF870306FF307138DF8703018AB194658
:106C4400524816F03BF82190219B1F931F9B002B69
:106C540005D04D4A40F29D211F9802F0BBFC13ABB6
:106C640014220021184617F0E1FA9DF85930012248
:106C740062F303038DF859309DF85930012262F311
:106C840007138DF859309DF85A30012262F303033B
:106C94008DF85A309DF85A30012262F307138DF8AB
:106CA4005A309DF85B306FF303038DF85B309DF829
:106CB4005B306FF307138DF85B309DF85C30012275
:106CC40062F303038DF85C309DF85C30012262F3BB
:106CD40007138DF85C300023139301238DF8503093
:106CE4000023159364238DF8583013AB19462848B4
:106CF40015F014FA2190219B1E931E9B002B05D0A6
:106D0400214A40F2AF211E9802F064FC03AB4022FA
:106D14000021184617F08AFA03AB1E49184610F0F2
:106D240075F89DF84830012262F303038DF848306A
:106D34009DF84830012262F307138DF848309DF81E
:106D440049306FF303038DF849309DF849306FF3F0
:106D540007138DF8493003AB184615F061FC2190F8
:106D6400219B1D931D9B002B05D0074A40F2BA219D
:106D74001D9802F02FFC00BF23B05DF804FB00BF98
:106D8400516B0200402D0020ECE40300C82C0020CD
:106D9400182D0020DCE5030008B51A4B51221A60B7
:106DA400184B64225A60174B01229A60154B01223A
:106DB4001A731449144807F07BF8144B8C221A6098
:106DC400124B4FF496725A60104B0A229A600F4B82
:106DD40000221A730D490E4807F06AF80D4B64221D
:106DE4001A600C4B4FF4FA725A600A4B01229A60F3
:106DF400084B00221A730749074807F059F800BFE7
:106E040008BD00BF842E0020942E00209C2E00205C
:106E1400AC2E0020B42E0020C42E002000B587B074
:106E2400274B00224FF48031184603F06BF905908C
:106E3400059B0493049B002B05D0224A40F2E121D8
:106E4400049802F0C7FB204B00224FF4004118467F
:106E540003F058F90590059B0393039B002B05D081
:106E6400184A4FF43971039802F0B4FB174B00220F
:106E740042F26661184603F045F90590059B0293BA
:106E8400029B002B05D00F4A40F2E721029802F042
:106E9400A1FB0F4B00224FF42031184603F032F9C6
:106EA4000590059B0193019B002B05D0054A40F2F8
:106EB400EA21019802F08EFB00BF07B05DF804FBE5
:106EC400042E0020ECE40300242E0020442E002095
:106ED400642E002000B585B00190019B1B78002B27
:106EE40011D10B4B1B883B211846FFF705FA039081
:106EF400039B0293029B002B05D0064A40F2FF211C
:106F0400029802F067FB00BF05B05DF804FB00BF08
:106F1400FC2B0020ECE4030000B583B00190054A8B
:106F240040F20A31019802F055FB00BF03B05DF84E
:106F340004FB00BFECE4030000B58BB001AB1C22E2
:106F44000021184617F072F9002301934FF42033FF
:106F540002934FF47023039303238DF810300F4BE7
:106F64009B89ADF8123000238DF814300C4B069336
:106F74000C4B079301AB18460FF090FA0990099B4C
:106F84000893089B002B05D0074A40F2213108984A
:106F940002F020FB00BF0BB05DF804FBC82C0020FE
:106FA400D96E02001D6F0200ECE4030000B585B049
:106FB4000DF01DFE0390039B0293029B002B05D052
:106FC4000B4A40F22F31029802F004FBFFF790F9CC
:106FD4000390039B0193019B002B05D0044A40F2CC
:106FE4003331019802F0F6FA00BF05B05DF804FBF6
:106FF400ECE4030000B585B003468DF807309DF836
:107004000730002B1BD0032B00D01CE0104B1B8837
:107014001B0443F003030F49184601F0B7FC022098
:107024000DF0B1FC0390039B0293029B002B09D04B
:10703400094A40F24631029802F0CCFA02E0FFF726
:10704400B5FF00E000BF00BF05B05DF804FB00BF62
:10705400B82B0020F0E50300ECE4030000B58BB08E
:1070640001900091019B1B88212B4BD0212B04DC28
:10707400102B07D0112B34D08BE03B2B5CD0562B3C
:107084006DD086E0454B1B881B0443F00303444941
:10709400184601F07BFC07200DF075FC0990099B54
:1070A4000893089B002B05D03E4A40F261310898B2
:1070B40002F090FA019B9A883B4B1A803A4B1B884A
:1070C40019463A4811F010FB0990099B0793079B56
:1070D400002B57D0334A4FF45971079802F07AFACB
:1070E40050E02E4B1B881B0443F003031846019BFE
:1070F4001B7A1A462E4901F057FC2B4B4FF6FF72B0
:107104001A8046E000238DF80C3000238DF80D30F2
:10711400019B9B8803AA11461846FFF7FDF80990C6
:10712400099B0693069B002B2ED01E4A40F2763113
:10713400069802F04FFA27E0019B9B88132118461A
:10714400FFF7DAF80990099B0593059B002B1DD0E6
:10715400144A40F27E31059802F03CFA16E0019B95
:107164009B8813211846FFF7C7F80990099B0493DD
:10717400049B002B0CD00B4A40F28631049802F099
:1071840029FA05E000BF04E000BF02E000BF00E010
:1071940000BF00BF0BB05DF804FB00BFB82B00209C
:1071A40004E60300ECE40300FC2B0020402D002047
:1071B40010E6030000B587B016F098F80590059B1B
:1071C4000493049B002B05D0164A40F2993104988D
:1071D40002F000FA0023019301AB1946012016F0D6
:1071E4009BF90590059B0393039B002B05D00D4A47
:1071F40040F29F31039802F0EDF901AB184616F006
:10720400A1FA0590059B0293029B002B05D0054A29
:1072140040F2A331029802F0DDF900BF07B05DF837
:1072240004FB00BFECE4030000B587B003468DF80F
:1072340007309DF80730043B0C2B00F28E8001A22E
:1072440052F823F0017302005F7302005F730200BF
:107254002D7302005F7302005F730200FB72020071
:107264005F7302005F7302005F7302007D720200AD
:10727400A7720200D17202003C4B1B881B0443F02E
:1072840003033B49184601F081FB0022FF21002043
:1072940007F0DAFA4B2000F067FA364B01221A7035
:1072A40060E0324B1B881B0443F003033249184649
:1072B40001F06CFBFF220021002007F0C5FA322008
:1072C40000F052FA2B4B01221A704BE0274B1B881B
:1072D4001B0443F003032949184601F057FB00221D
:1072E4000021FF2007F0B0FA192000F03DFA214BED
:1072F40001221A7036E0FFF759FE33E0204B1B8859
:1073040013211846FEF7F8FF0590059B082B26D09D
:10731400059B0493049B002B21D01A4A40F2D531DB
:10732400049802F057F91AE0154B1B884FF6FF72C8
:10733400934216D114480EF02EFF0590059B082B9E
:107344000FD0059B0393039B002B0AD00D4A40F2F8
:10735400DF31039802F03EF903E000BF02E000BF12
:1073640000E000BF00BF07B05DF804FBB82B0020AD
:107374002CE60300C42C002038E6030044E6030096
:10738400FC2B0020ECE403004C2D002000B589B058
:1073940012F0DCFE0790079B0693069B002B05D09A
:1073A4003A4A40F2F231069802F014F901AB052290
:1073B4000021184616F03AFF9DF8043043F001030B
:1073C4008DF804309DF804306FF341038DF80430D8
:1073D4009DF80430032262F306138DF804309DF8FF
:1073E40004306FF3C7138DF8043007238DF805308C
:1073F40010238DF806309DF8073043F001038DF813
:1074040007309DF8073043F002038DF807309DF8EC
:10741400083043F001038DF808309DF8083043F03C
:1074240002038DF8083001AB184612F003FF0790F1
:10743400079B0593059B002B05D0144A40F203419A
:10744400059802F0C7F8124812F0CCFE0790079B8B
:107454000493049B002B05D00C4A40F20641049887
:1074640002F0B8F80B4804F0F5FA0790079B039371
:10747400039B002B05D0054A40F20941039802F012
:10748400A9F800BF09B05DF804FB00BFECE40300F9
:10749400A16502009565020000B5AFB001ABAC2256
:1074A4000021184616F0C2FE02238DF80430012391
:1074B4008DF8063006238DF807300323ADF8143019
:1074C400124B069301238DF880304FF49673239367
:1074D40044F2506324930E4B2A9301AB19460D4892
:1074E4000EF00BFC2D902D9B2C932C9B002B05D088
:1074F400094A40F223412C9802F06CF80121054816
:107504000EF0EEFB00BF2FB05DF804FB002C002052
:10751400F96F02004C2D0020ECE4030000B587B0A5
:1075240001900E4902200DF039FA0590059B049351
:10753400049B002B05D00A4A40F23341049802F020
:1075440049F89DF80F30022B0CBF01230023DAB257
:10755400019B1A7000BF07B05DF804FB2D72020096
:10756400ECE4030000B583B04FF40041002000F0C8
:10757400EFFE0190019B0093009B002B05D0064A6F
:1075840040F23E41009802F025F800F08FFE00BF63
:1075940003B05DF804FB00BFECE4030000B583B066
:1075A40006F0CCFB0190019B0093009B002B05D0BF
:1075B400044A40F24A41009802F00CF800BF03B0BC
:1075C4005DF804FBECE4030000B583B007F088FA2F
:1075D4000190019B0093009B002B05D0064A40F2CA
:1075E4005F41009801F0F6FF002007F0D7FA00BFD2
:1075F40003B05DF804FB00BFECE4030000B587B002
:107604001C4A01AB92E8030018600433198040F669
:10761400FF73ADF8043001AB174A194617480AF056
:10762400C1FA0590059B0493049B002B05D0144AD2
:1076340040F26E41049801F0CDFF01210F480AF099
:10764400EDFB0123082200210C480AF047FB0590BA
:10765400059B0393039B002B05D0094A40F2754117
:10766400039801F0B7FF05480AF00EFB00BF07B00E
:107674005DF804FB50E603005564020088E603004D
:10768400ECE4030084B003900291019200BF04B0C3
:107694007047000000B583B0FFF764FFFFF794FF65
:1076A400FFF744F90DF107031846FFF737FF07F01A
:1076B4005AF800F09BFBFFF7A1FF274807F090F86A
:1076C400FFF76CFFFFF776FDFFF79AF9FFF722FA51
:1076D400FFF7E2FEFFF74AFAFFF75EFBFFF72CFC29
:1076E400FFF754FE1D4B1B881B0443F003031C4986
:1076F400184601F04BF900BF01F0B8F90346002B1E
:10770400FAD100F00FF900F03BF9FFF787FB0120F5
:10771400FEF71AFF07F055F807F05AF86420FEF751
:1077240069FEFF220021002007F08EF800F096F990
:1077340000BF01F09BF90346002BFAD1094B1B78DB
:10774400DBB2002B04D0074B00221A7000F086F93C
:10775400FFF724FFECE700BF25640200B82B0020EC
:1077640058E60300C42C002010B58CB00190404BA7
:107774004FF402721A603E4B1B68019A02FB03F33A
:107784003C4AA2FB03239B093B4A1360384B1B680A
:107794003A4AA2FB0323DB08354A13600E238DF813
:1077A4001C30FF238DF81D30FF238DF81E30FF237E
:1077B4008DF81F3007238DF8203007238DF82130F2
:1077C40000238DF822302A4B1B689BB2ADF824307D
:1077D40000238DF8263000238DF82730284B1B78A2
:1077E400002B05D0264B00221A7026480BF010FA05
:1077F40007AB0022194623480BF080F90B900B9B32
:107804000A930A9B002B04D01F4A3A210A9801F0DC
:10781400E1FE1B4B01221A70174B1B689AB21B4BDB
:107824001A80154B1B689AB2184B5A80124B1B686E
:107834009AB2164B9A80104B1B689AB2134BDA809B
:107844000D4B1B689AB2114B1A810B4B1B689AB2F1
:107854000E4B5A810E4B03AC0FCB84E80F0003A9E7
:1078640001230A2207480BF05FFA00BF0CB010BDD9
:10787400D82E0020D34D6210DC2E0020CDCCCCCCF1
:10788400D52E00200C2C002098E60300E02E0020CA
:10789400C4E6030000B583B00190019B043318468D
:1078A4000BF0E6FD00BF03B05DF804FB00B589B042
:1078B400059003921A460B468DF8133013468DF843
:1078C400123000230793059B181D9DF812209DF884
:1078D40013109DF8283000931346039A0CF01AF8FD
:1078E4000790079B184609B05DF804FB00B587B004
:1078F400039001921A460B468DF80B3013468DF80F
:107904000A3000230593039B181D9DF80A309DF847
:107914000B10019A0CF026F80590059B184607B049
:107924005DF804FB00B587B06B4600221A605A600C
:107934009A60DA600B2300930C2301934FF0CC730D
:10794400029302238DF80C306946002300220A4872
:107954000CF06EFA0590059B0493049B002B04D055
:10796400064A1F21049801F035FE0348FFF792FFF1
:1079740000BF07B05DF804FBD4E60300E4E60300AF
:1079840000B589B02E4BE7221A700123009301231E
:107994002B4A40212B48FFF789FF0790079B06934A
:1079A400069B002B04D0284A2E21069801F012FED3
:1079B4000123264A40212348FFF798FF0790079B9D
:1079C4000593059B002B04D01F4A3121059801F033
:1079D40001FE1B4B5B788DF81330194B5B7803F079
:1079E4003A03DAB2164B5A70154B00225A70144BF4
:1079F400E6221A70002300930223114A4021114801
:107A0400FFF754FF0790124B1B881B0443F003033A
:107A140018469DF813300093079B079A0D4900F010
:107A2400E8FF079B0393039B002B04D0064A3C21E9
:107A3400039801F0CFFD00BF09B05DF804FB00BF5F
:107A4400EC2E0020D4E60300E4E60300ED2E002033
:107A5400B82B00200CE703000000000070B58AB0CA
:107A6400E5238DF80C3003AA012300930123402160
:107A74007C48FFF71BFF0990099B0893089B002B88
:107A840004D0794A4C21089801F0A4FD03AA0223EA
:107A940040217448FFF72AFF0990099B0793079B2D
:107AA400002B04D0704A4F21079801F093FD9DF8F4
:107AB4000C301B021AB29DF80D301BB213431BB2DB
:107AC400ADF81A30BDF81A30002B04D1674B4FF0D3
:107AD40000021A6029E0BDF81A3007EE903AF8EE79
:107AE400677A17EE900A15F069FF4FF00002604BB9
:107AF40016F002F903460C46184621464FF00002E0
:107B04005C4B16F0AFF903460C46184621464FF07D
:107B14000002594B15F0AAFF03460C4618462146AD
:107B240015F068FF0246514B1A60E0238DF80C30C3
:107B340003AA01230093012340214A48FFF7B6FE1C
:107B44000990099B0593059B002B04D0464A6021AC
:107B5400059801F03FFD03AA022340214148FFF7A5
:107B6400C5FE0990099B0493049B002B04D03E4A54
:107B74006321049801F02EFD9DF80C301B021AB20B
:107B84009DF80D301BB213431BB2ADF81A30BDF88B
:107B94001A30002B04D1394B4FF000021A6024E054
:107BA400BDF81A30184615F0CFFE2AA3D3E90023F6
:107BB40016F0A2F803460C46184621464FF0000280
:107BC4002C4B16F04FF903460C461846214623A3C6
:107BD400D3E9002315F04AFF03460C461846214614
:107BE40015F008FF0246254B1A60254B1B881B0421
:107BF40043F003031D461D4B1B68184615F0DEFEBB
:107C04004FF000021F4B16F077F803460C46184657
:107C1400214615F0ABFE03461BB21E46174B1B68EC
:107C2400184615F0CBFE4FF00002164B16F064F820
:107C340003460C461846214615F098FE03461BB22F
:107C440032461149284600F0C0FE00BF0AB070BD9C
:107C5400AFF30080D7A3703D0AF76540CDCCCCCC00
:107C6400CC6C4740D4E60300E4E60300F02E002089
:107C740000405F400000F04000001840F42E002057
:107C8400B82B0020000024403CE7030082B00346E8
:107C94008DF8073008499DF907305B099DF80720E6
:107CA40002F01F02012000FA02F2603341F823209F
:107CB40000BF02B0704700BF00E100E000B583B030
:107CC40001900091019B002B01D1054B0193009978
:107CD40001980CF09DFB0346184603B05DF804FBC5
:107CE400C8E7030000B583B00A4B1B78DBB2002B56
:107CF4000CD00CF037FD0190019B0093009B002BEE
:107D040004D0054A1721009801F064FC00BF03B0B9
:107D14005DF804FB002F002068E7030010B588B06D
:107D24000390039B1B78002B55D1039B5B680221B6
:107D340018460CF073FC0790079B0693069B002BD8
:107D440004D0264A2521069801F044FC039B5B6875
:107D5400B3F900301A464FF4616303FB02F3002BBE
:107D640001DA03F6FF731B13ADF81630039B5B684F
:107D74000233B3F900301A46BDF9163003FB02F39F
:107D8400002B01DA03F6FF731B13ADF81430144B08
:107D94001B881B0443F003031846039B5B68B3F979
:107DA40000301C46BDF91620039B5B680233B3F90F
:107DB40000309BB21946BDF914300193009113466B
:107DC4002246084900F02BFE074B0222C3F8082381
:107DD4000720FFF75BFF00BF08B010BD68E7030092
:107DE400B82B002090E703000070004000B58FB06E
:107DF400514A04AB07CA03C31A70504A01AB07CAFD
:107E040003C31A7002238DF81C3004238DF81D302F
:107E140006238DF81E3007238DF81E3001238DF8BC
:107E24001F3007AB46491846FFF748FF0D900D9BDE
:107E34000C930C9B002B04D0424A43210C9801F074
:107E4400C9FB00238DF8133000238DF8123005236D
:107E54008DF8143000238DF8153009238DF8173070
:107E640000238DF8183000238DF8103000238DF88E
:107E7400113001238DF8163001238DF807300223C9
:107E84008DF8063005238DF8083000238DF809306D
:107E940003238DF80B3000238DF80C3000238DF86C
:107EA400043000238DF8053001238DF80A3004AB2B
:107EB400194600200CF018FB0D900D9B0B930B9BA7
:107EC400002B04D01F4A5C210B9801F083FB01AB0B
:107ED400194601200CF008FB0D900D9B0A930A9B98
:107EE400002B04D0174A5F210A9801F073FB02218A
:107EF40015480CF093FB0D900D9B0993099B002BE7
:107F040004D0104A6221099801F064FB02210F4851
:107F14000CF084FB0D900D9B0893089B002B04D060
:107F2400084A6521089801F055FB094B01221A7093
:107F340000BF0FB05DF804FBB0E70300BCE703002B
:107F4400217D020068E70300F82E0020FC2E0020AB
:107F5400002F002000B5A1B0059004910392029374
:107F6400049805F008FE039B1593029B16930023C7
:107F7400179300238DF8603000231993229B1A93E2
:107F840000231F930FA91F9B0822049805F0AEFE3F
:107F940008231F93119B1293BDF84030ADF84C3069
:107FA400BDF84230ADF84E3000238DF851309DF8C5
:107FB4003C3003F00303DBB2012B26D10F9BC3F348
:107FC40095231D939DF83C30C3F3C203DBB28DF8B7
:107FD4005030BDF83C30C3F38313DBB21C931C9BBD
:107FE4009A0009A91F9B049805F080FE1C9B9B0026
:107FF4001F9A13441F9312AA09A915AB00931346A1
:108004001C9A1D9800F0F4FF2FE09DF83C3003F01B
:108014000303DBB2022B28D1BDF83E30C3F389132E
:108024009BB21E939DF83C30C3F3C203DBB28DF8C0
:1080340050301E9B082B28BF08231B9307A91F9BA6
:108044001B9A049805F052FE1F9A1B9B13441F931E
:108054001E9A1B9BD31A1E9315AB12AA07A81B9931
:1080640001F068F81E9B002BE3D1049805F092FD03
:1080740000BF21B05DF804FB00B583B00190019B03
:108084001B781A460C4B9B5C002B05D0019B0433D8
:10809400184609F085FA0BE0019B1B781A46064B3B
:1080A4009B5C002B04D1019B0C33184608F026FC82
:1080B40000BF03B05DF804FBC037002000B587B0F3
:1080C4000390029113468DF8073000230593039B18
:1080D4001B781A46114B9B5C002B09D0039B04337D
:1080E4009DF807200299184609F088FA05900FE0D8
:1080F400039B1B781A46094B9B5C002B08D1039BFE
:108104000C339DF807200299184608F06DFC059081
:10811400059B184607B05DF804FB00BFC03700207C
:1081240082B001900091034B01221A7000BF02B08B
:10813400704700BF442F002030B58DB003468DF842
:1081440007301A4B02AC1D460FCD0FC495E80F0043
:1081540084E80F00082302934FF0FF3303934FF09A
:10816400FF3304934FF0FF3305934FF0EB73089301
:108174009DF80730002B01D00D4A00E0002202AB2D
:1081840019460C4806F08CFE0B900B9B0A930A9B35
:10819400002B04D0084A43210A9801F01BFA074A2D
:1081A4009DF80730137000BF0DB030BD34E80300F4
:1081B40025810200142C0020CCE70300452F002069
:1081C40000B583B001238DF807309DF807301846B9
:1081D400FFF7B2FF00BF03B05DF804FB00B589B040
:1081E400039002910192019B8DF81F30124B0022E3
:1081F4001A709DF81F301A4602991048FFF75EFF67
:108204000690069B0593059B002B04D00C4A532132
:10821400059801F0DFF900BF0A4B1B78002B07D04B
:10822400054B1B78DBB283F00103DBB2002BF3D1E7
:1082340000BF09B05DF804FB442F0020142C00207B
:10824400CCE70300452F002000B585B003900291D0
:10825400054B00934023054A02990398FFF77AFEE1
:1082640000BF05B05DF804FBE1810200042F00208B
:1082740082B0019000BF02B07047000000B583B027
:1082840001900548FFF7F8FE0020FFF755FF00BFF7
:1082940003B05DF804FB00BF142C002082B00190F1
:1082A400019B01225A7200BF02B0704700B583B02F
:1082B4004FF0FF330193FFF783FF0421084800F0D8
:1082C400D5FD0190019B002B03DA06494820FEF7F7
:1082D40003F90348FFF7E2FF00BF03B05DF804FBB6
:1082E400282C002060E8030000B583B001900091C1
:1082F400019B1B681B6800990198984700BF03B055
:108304005DF804FB00B583B00190019B1B689B687A
:108314000198984700BF03B05DF804FB82B0019058
:108324000B468DF80330019B9DF803201A7200BFA1
:1083340002B0704782B00190019B1B7A184602B0CC
:10834400704782B00190019B5B7A184602B0704777
:1083540000B587B0019000911D4BFF229A601C4B21
:1083640000221A601A4B00225A60194B0022C3F8EB
:108374001824174B0022C3F81424154B002283F849
:108384002024144805F05CFB0490049B002B01D0CE
:10839400049B18E0104A114BD31ADB080393002303
:1083A40005930BE0059B9B000D4A13440293059B28
:1083B4009AB2029B1A80059B01330593059A039B8D
:1083C4009A42EFD30023184607B05DF804FB00BFC0
:1083D4001830002010E4030010E4030060E30300FD
:1083E400902B0020024A034BD31ADB08184670472F
:1083F40010E4030060E3030000B587B001900B466E
:108404008DF803309DF80330002B1FD0FFF7EAFFEF
:1084140004900023059313E0059B9B000E4A13442C
:108424000393039B5B881A46019B1B689A4204D101
:10843400019B059A1A60002309E0059B013305930B
:10844400059A049B9A42E7D3052300E000231846CB
:1084540007B05DF804FB00BF902B002000B585B089
:1084640001900B468DF803309DF8032001AB1146B3
:108474001846FFF7C1FF0346002B07D1019BDB0021
:10848400054A13440393039B1B6800E0002318462A
:1084940005B05DF804FB00BF60E3030084B0019005
:1084A4000B468DF80330019BDB00174A13440293FB
:1084B4009DF80330013B032B1CD801A252F823F092
:1084C400D5840200DD840200E5840200EF8402000A
:1084D40002238DF80F3011E004238DF80F300DE0E6
:1084E400029B1B798DF80F3008E0029B5B798DF8B5
:1084F4000F3003E000238DF80F3000BF9DF80F30DC
:10850400184604B0704700BF60E3030000B585B0AF
:108514000190009100238DF80F30019B1B7803F02C
:108524000303DBB2002B06D0019B1B7803F004038A
:10853400DBB2002B44D0019B1B7803F00403DBB2B5
:10854400002B28D0019B1B78C3F30103DBB2012B62
:1085540002D0022B0CD017E0009B1B68019A1288F2
:10856400C2F38312D2B213449A1C009B1A6024E013
:10857400009B1B68019A5288C2F3891292B2134479
:108584009A1C009B1A6018E010494FF4A470FDF780
:10859400A3FF00BF11E0009B1A68019B5B88C3F333
:1085A40089139BB21946019B1B88C3F389139BB2A1
:1085B4000B4413445A1C009B1A6001238DF80F309E
:1085C4009DF80F30184605B05DF804FBE4E803009D
:1085D40000B58BB00023ADF826303E4803F0DDFF34
:1085E4003D4803F0DAFF3D4B5B6804933B4B9B68CB
:1085F4000693049A069B134002339B00374A1344A4
:108604000433089304AB19460898FFF77FFF034629
:10861400002B09D0049A069B134002339B002F4A77
:10862400134404330893EDE700BF0023079311E0DC
:10863400079B9B0001AA1A44049B591C04910699A8
:108644000B40264902339B000B445B681360079B75
:1086540001330793079B012BEAD99DF80430C3F338
:108664000103DBB2012B10D0022B1CD1BDF80A3060
:10867400ADF82630BDF80630C3F389139BB203333B
:108684009A08049B1344049313E0BDF80A30ADF830
:108694002630BDF80430C3F38313DBB21A46049BBF
:1086A4001344049305E00E494FF4C270FDF714FF20
:1086B40000BF094803F07DFF0590059B002B02D005
:1086C400049B064A5360BDF8263018460BB05DF88B
:1086D40004FB00BF303400202C340020183000206C
:1086E400E4E8030000B585B00021074803F08AFEE2
:1086F4000390039B0293029B83F310030193019B5A
:10870400184605B05DF804FB3434002000B589B088
:108714000390029101920093039B1B0C0793FFF7B4
:10872400E1FF0690FFF75EFE0246079B9A4204D8DB
:10873400224940F2A910FDF7CFFE009B5A1C0A9B68
:108744001340069A1104079A0A431D4902339B00F9
:108754000B445A60009A0A9B134002339B00184A48
:10876400134404330593039BDBB203F00703D9B22C
:10877400059A137861F3C5031370019BDBB203F010
:108784000F03D9B2059A138861F389131380029BEE
:10879400C3F31501059A136861F39F231360059AC7
:1087A4001378012161F301031370059A13786FF3B1
:1087B4008203137000BF09B05DF804FBE4E8030012
:1087C4001830002000B58DB00390029113468DF847
:1087D4000730039B02330A9301238DF827300023CB
:1087E4008DF81B300DF11B03184601F051FD414B70
:1087F4001A68029B1A603F4B9A683E4B59683D4B7E
:108804001B68CB1A134401330B9314E001213A483B
:1088140003F087FEFFF7DCFE08900899364803F062
:1088240080FE344B9A68334B5968324B1B68CB1A21
:10883400134401330B930A9A0B9B9A42E6D89DF892
:108844002730002B4AD0002305939DF80730002BD6
:1088540018D09DF81430012262F301038DF814300E
:108864009DF8143043F004038DF81430039BDBB2FD
:1088740003F00F03DAB2BDF8143062F38913ADF8D4
:10888400143017E09DF81430022262F301038DF8CE
:1088940014309DF8143043F004038DF81430039B16
:1088A4009BB2C3F309039AB2BDF8163062F38F1377
:1088B400ADF816300F4B1A680E4B9B681340023309
:1088C4009B000C4A134404330793059A079B1A60D0
:1088D400084B1A680A9B1344064A13609DF81B3020
:1088E400184601F0EBFC9DF8273018460DB05DF8F2
:1088F40004FB00BF183000203434002000B58BB0D6
:1089040005900491039202931F4B9B68079306AB57
:10891400012219460298FFF755FF0346002B24D085
:10892400069B023309930023089311E0099B5A1C08
:108934000992079A1340089A920003990A4412680C
:10894400114902339B000B445A60089B013308937E
:10895400089A029B9A42E9D3069A079B009313460E
:10896400029A04990598FFF7D1FE074B93F8203437
:10897400002B05D000BF00F079F80346002BFAD194
:1089840000BF0BB05DF804FB1830002000B583B0C5
:10899400019000910023002200990198FFF7AEFF97
:1089A40000BF03B05DF804FB00B587B003900291EB
:1089B4000192019B059305AA012302990398FFF7ED
:1089C4009DFF00BF07B05DF804FB00B587B00390BE
:1089D400029101920093019B0493009B059304AAC6
:1089E400022302990398FFF789FF00BF07B05DF8DF
:1089F40004FB00B589B00390029101920093019B9E
:108A04000593009B06930A9B079305AA03230299E7
:108A14000398FFF773FF00BF09B05DF804FB00B5CE
:108A240089B00390029101920093019B0493009BEF
:108A340005930A9B06930B9B079304AA04230299AC
:108A44000398FFF75BFF00BF09B05DF804FB00006B
:108A5400054B5A68044B1B689A420CBF0123002340
:108A6400DBB21846704700BF1830002000B599B03B
:108A7400FFF7EEFF0346002B01D00023B8E19A4B29
:108A84000022C3F81824BFF34F8F974B5B680493FD
:108A9400954B9B681093049A109B134002339B00E0
:108AA400914A134404331793002316930023159318
:108AB40000230F9304AB19461798FFF727FD0346CD
:108AC400002B14D0884B1A68049B9A4205D8864B15
:108AD4001B68854A536000238AE1049A109B134063
:108AE40002339B00804A134404331793E2E700BF28
:108AF4000023149311E0149B9B0001AA1A44049BC5
:108B0400591C049110990B40774902339B000B4484
:108B14005B681360149B01331493149B012BEAD9F3
:108B24009DF8043003F00303DBB2022B40F09C8079
:108B3400BDF80630C3F389139BB20E93BDF806301B
:108B4400C3F389139BB2502BA8BF50230D930D9BE5
:108B54009BB2C3F309039AB2BDF8063062F38F13D4
:108B6400ADF806300D9B08330C939DF80430C3F325
:108B7400C203DBB20F930C995C4804F06CFF1690AF
:108B8400169B002B00F0D480169804F0F4FF01A982
:108B9400159B0822169805F097F8159B0833159332
:108BA400049BDA43109B134001339B000B930D9AF3
:108BB4000B9B9A4242D90B9B002B08D0049A109B22
:108BC400134002339B00484A1344043300E0484BEB
:108BD4000A930B9B002B02D00B9BDBB201E00D9B95
:108BE400DBB28DF827300B9B002B01D0404B00E00B
:108BF400002308930B9B002B06D00D9BDAB20B9B32
:108C0400DBB2D31ADBB200E000238DF81F309DF8ED
:108C14002720159B0A99169805F056F89DF82730D9
:108C2400159A13441593089B002B16D09DF81F200A
:108C3400159B0899169805F047F80EE0049A109BC6
:108C4400134002339B00284A134404330693159BB4
:108C54000D9A0699169805F037F80E9B03339A0877
:108C6400049B1344049363E09DF8043003F003036E
:108C7400DBB2012B5CD1BDF80430C3F38313DBB248
:108C8400062B28BF0623DBB203F00F03DAB2BDF8CC
:108C9400043062F38913ADF80430BDF80430C3F333
:108CA4008313DBB2023305939DF80430C3F3C2038C
:108CB400DBB20F93059B9B0019460C4804F0CBFED6
:108CC4001690169B002B33D0169804F054FF01A97C
:108CD400159B0822169804F0F7FF159B083315938B
:108CE400002314931BE000BF1830002010E403009D
:108CF40024300020049B5A1C0492109A134002331F
:108D04009B003D4A1344191D159B0422169804F038
:108D1400DBFF159B04331593149B01331493BDF8A7
:108D24000430C3F38313DBB21A46149B9A42E1D88E
:108D3400169B002B3FD0304BD3F8103413932E4B9B
:108D4400D3F81834002B1AD0169804F023FF49E006
:108D540000238DF84B301398FFF7F3FA0346002BEA
:108D640002D001238DF84B309DF84B30002B03D0FB
:108D740016991398FFF7B8FA139B5B681393139B28
:108D8400002BE5D1169804F005FF00238DF803307D
:108D94000DF10303184601F07BFA174BD3F818348E
:108DA400002B02D1049B144A53609DF803301846EB
:108DB40001F084FA16E0104BD3F81034119305E057
:108DC4001198FFF79FFA119B5B681193119B002B7D
:108DD400F6D10A4B1B881B0443F0020308491846CA
:108DE400FFF7D4FDFFF734FE034683F00103DBB243
:108DF400184619B05DF804FB18300020B82B002089
:108E040048E9030000B585B00023039322E0164B24
:108E1400D3F81034029301238DF807300EE0029842
:108E2400FFF788FA03461A46039B9A4203D10023AC
:108E34008DF8073005E0029B5B680293029B002BD0
:108E4400EDD19DF80730002B01D0039B07E0039B75
:108E540001330393039B092BD9DD4FF0FF331846ED
:108E640005B05DF804FB00BF1830002000B585B0E4
:108E740001900B468DF80330FFF7C4FF0390039B6A
:108E8400B3F1FF3F01D1039B1EE0039BDBB2194604
:108E94000198FFF743FA0E4BD3F81034002B07D197
:108EA4000B4A019BC2F81034019B00225A600AE06D
:108EB400074BD3F810345A68019B5A60044BD3F81B
:108EC4001034019A5A60039B184605B05DF804FB00
:108ED4001830002082B00190009100BF02B07047AA
:108EE40010B584B003900291039BDB88002B0AD059
:108EF400039BDB881A461F4B009313461E4A1F49E7
:108F0400029803F095FC039B1B7A052B2ED0039B40
:108F14005B7A002B12D0039B9B881A46039B1B7A17
:108F240019461046FFF7BAFA03461A46144B53F88B
:108F340022301A461349029803F07AFC039B1B68FB
:108F440019460298FFF7C6FF039B1B7A1A460E4B7D
:108F540053F82240039B9B8800211846FFF77EFAB2
:108F6400034622460949029803F062FC00BF04B09C
:108F740010BD00BF7CE903008CE90300C4E90300D1
:108F8400482C0020DCE90300342C0020E0E9030035
:108F940000B585B00390029113468DF80730039B0A
:108FA4001B7A052B0FD0039B5B7A002B06D00D4B4D
:108FB4001B681A460C49029803F03AFC0B490298C4
:108FC40003F036FC07E09DF80730002B03D0074977
:108FD400029803F02DFC029803F008FC00BF05B0D2
:108FE4005DF804FB482C0020DCE90300ECE90300F5
:108FF40030B58BB007900691059204930E9B1B7BB2
:109004008DF827300E9B00221A730E990498FFF7EF
:1090140067FF059B062B7FD801A252F823F000BFFF
:10902400419002004B9002005B9002006F9002009E
:109034008D900200B5900200E590020007990E9809
:1090440003F0F6FB69E0069B1B681A4607990E9825
:1090540003F0EEFB61E0069B1A68069B04331B6871
:1090640007990E9803F0E4FB57E0069B1A68069BE9
:1090740004331968069B08331B6800930B46079951
:109084000E9803F0D5FB48E0069B1968069B043351
:109094001868069B08331B68069A0C321268019202
:1090A400009303460A4607990E9803F0C1FB34E087
:1090B400069B1868069B04331C68069B08331B68D0
:1090C400069A0C32126806991031096802910192CD
:1090D40000932346024607990E9803F0A9FB1CE06F
:1090E400069B1C68069B04331D68069B08331B689B
:1090F400069A0C32126806991031096806981430E1
:10910400006803900291019200932B46224607992E
:109114000E9803F08DFB00E000BF00220E99049826
:10912400FFF736FF0E9B9DF827201A7300BF0BB084
:1091340030BD00BF00B587B0039002910192009347
:10914400029B082B5CD8009B1B7B8DF81330009B83
:1091540000221A7300990198FFF7C2FE00230593B9
:1091640014E0059A029B9A4209D2039A059B134480
:109174001B781A462449009803F05AFB03E023495C
:10918400009803F055FB059B01330593059B072BC2
:10919400E7D91F49009803F04BFB0023059322E015
:1091A400059A029B9A4217D2039A059B13441B7893
:1091B4008DF812309DF81230184614F0B5FF0346AE
:1091C400002B02D09DF8123000E02E231A461149DC
:1091D400009803F02DFB03E00F49009803F028FBEF
:1091E400059B01330593059B072BD9D901220099CF
:1091F4000198FFF7CDFE009B9DF813201A7300E041
:1092040000BF07B05DF804FBF0E90300F8E90300D0
:10921400FCE9030000EA030004EA03002DE9F04F2F
:1092240089B0019000238DF81F3098E0514B1A68E3
:109234009DF81F30DB0013440693069B1B781946E8
:109244004FF001024FF00003A1F1200EC1F1200004
:1092540003FA01F902FA0EFE49EA0E0922FA00F0B5
:1092640049EA000902FA01F8CDE90489424BD3E93D
:109274000001DDE9042302EA000203EA01031343C7
:1092840068D0DDE904236FEA02006FEA03013A4B78
:10929400D3E9002302EA000203EA01033649C1E9E3
:1092A4000023069B1B78184606F050FD03468DF8F4
:1092B4000F30069B1B7819464FF001024FF0000354
:1092C400A1F1200EC1F1200003FA01F502FA0EFE0D
:1092D40045EA0E0522FA00F0054302FA01F4274B91
:1092E400D3E9002304EA020A05EA030B9DF80F20E0
:1092F4004FF0000306990978A1F1200EC1F1200076
:1093040003FA01F702FA0EFE47EA0E0722FA00F00A
:10931400074302FA01F6BB4508BFB2451AD19DF8CE
:109324000F30069A5278012A0CBF01220022D2B2D1
:1093340093420CBF01230023DBB20293069B5B68BC
:10934400002B07D0069B5B68069A12780299C9B273
:10935400104698479DF81F3001338DF81F30084B95
:109364001B789DF81F209A42FFF460AF00BF09B03C
:10937400BDE8F08F3C3400207034002068340020B5
:109384004034002070B586B001900A468DF8032061
:109394004FF001014FF000020198A0F12006C0F146
:1093A400200502FA00F401FA06F6344321FA05F521
:1093B4002C4301FA00F3CDE904342F4B184600F096
:1093C400D3FE0390039B002B53D12C4BD3E9001203
:1093D400DDE9043403EA010304EA0204234337D138
:1093E400019806F0B3FC0346002B0CD0244BD3E9C0
:1093F4000012DDE9043443EA010344EA0204204A8A
:10940400C2E900340FE0DDE904346FEA03016FEAD6
:1094140004021B4BD3E9003403EA010304EA020407
:10942400174AC2E90034154BD3E90012DDE90434CC
:1094340043EA010344EA0204104AC2E900340E4834
:10944400104B1B680022194600F05CFE039011E0EB
:10945400DDE904346FEA03016FEA0402074BD3E940
:10946400003403EA010304EA0204044AC2E90034B2
:1094740000E000BF06B070BD483400207034002006
:10948400683400204434002010B58AB003900B46A1
:1094940001928DF80B30019B042B01D807235AE06D
:1094A40006F046FB034683F00103DBB2002B09D030
:1094B40006F0ECFA0990099B0893089B002B01D055
:1094C400089B48E0254A039B1360254A9DF80B300E
:1094D4001370244A019B1360234A4FF000034FF09A
:1094E4000004C2E90034214A4FF000034FF00004A5
:1094F400C2E9003422E09DF80B30DB00039A1344E8
:10950400079305AB00210A461A800A469A70032382
:109514008DF81430079B9B788DF81530079B1B78CA
:10952400184605AB124A194606F00EFB0990099B32
:109534000693069B002B01D0069B0CE09DF80B3094
:109544005A1E8DF80B20002BD5D10A4A00210A4857
:1095540000F0A8FD034618460AB010BD3C340020B4
:10956400403400204434002068340020703400204B
:10957400899302002192020008EA030000B583B037
:10958400114B1B68002B03D11049BA20FCF7A4FF30
:10959400002301930CE00C4B1A68019BDB0013447D
:1095A4001B780121184606F049FB019B0133019306
:1095B400074B1B781A46019B9A42ECD800231846A5
:1095C40003B05DF804FB00BF3C3400200CEA030048
:1095D4004034002000B583B002900091019244F21F
:1095E400010071466A46FEF74DF803B000BD00BFA6
:1095F40082B003468DF8073007499DF907305B09AF
:109604009DF8072002F01F02012000FA02F241F83F
:10961400232000BF02B0704700E100E082B003469F
:109624008DF8073008499DF907305B099DF807203C
:1096340002F01F02012000FA02F2203341F8232035
:1096440000BF02B0704700BF00E100E082B00346F3
:109654008DF8073008499DF907305B099DF807200C
:1096640002F01F02012000FA02F2403341F82320E5
:1096740000BF02B0704700BF00E100E082B00346C3
:109684008DF8073008499DF907305B099DF80720DC
:1096940002F01F02012000FA02F2603341F8232095
:1096A40000BF02B0704700BF00E100E082B0034693
:1096B40000918DF807309DF90730002B0CDA0D4925
:1096C4009DF8073003F00F03043B009AD2B2520115
:1096D400D2B20B441A7609E007499DF90730009A83
:1096E400D2B25201D2B20B4483F8002300BF02B0BD
:1096F400704700BF00ED00E000E100E000B585B078
:109704000190019B002B0AD0074B43F00103039304
:10971400019B9B010293039B0298984700E000BFC2
:1097240005B05DF804FB00BF60EA030000B583B038
:109734000190064A019BC2F8083507211120FFF762
:10974400B5FF00BF03B05DF804FB00BF001001408B
:1097540008B50D4B4FF48032C3F844230A4B4FF441
:109764008032C3F804231120FFF788FF1120FFF78C
:109774003FFF054B01221A602F20FFF7BFFF034B69
:1097840001221A7000BF08BD001001409635002068
:1097940008B51120FFF742FF0E4B4FF48032C3F897
:1097A40048230C4B4FF48032C3F80823094B0122A1
:1097B4005A602F20FFF7A2FF064B01229A60064B46
:1097C40000221A602F20FFF799FF044B00221A7021
:1097D40000BF08BD001001408835002096350020E8
:1097E400024BD3F804351846704700BF00100140FF
:1097F40082B001900091019A009BD31A23F07F4319
:10980400184602B07047000082B00190034A019BE1
:10981400C2F8403500BF02B0704700BF00100140DD
:1098240086B00190284B1B68002B03D1264A019B6C
:10983400136045E0019B1A68234B1B681B689A421E
:1098440010D8214B1B68204A12681168019A1268CB
:109854008A1A1A601C4B1A68019BDA611A4A019B26
:1098640013602DE0019B1B680393174B1B68059342
:10987400154B1B68049309E0049B1B68039AD31AD5
:109884000393049B0593049BDB690493049B002BC3
:1098940004D0049B1A68039B9A42EDD3049B002BCB
:1098A40005D0049B1A68039BD21A049B1A60019B7F
:1098B400039A1A60019B049ADA61059B019ADA61A2
:1098C40000BF06B0704700BF8435002000B587B0E4
:1098D40001902A4B1B680393284B1B680593059B37
:1098E400049308E0049A019B9A4208D0049B0593D0
:1098F400049BDB690493049B002BF3D100E000BFBD
:10990400049B002B01D1002333E0059A049B9A4267
:1099140014D11A4B1B68DB69184A1360174B1B6878
:10992400002B0BD1164B01229A60164B00221A60B1
:10993400154B01221A702F20FFF7E0FE049B1B68D1
:109944000293049BDA69059BDA61059BDB69049346
:10995400049B002B05D0049B1A68029B1A44049BA9
:109964001A60064B1B68039A9A4214BF0123002312
:10997400DBB2184607B05DF804FB00BF8435002055
:1099840000100140883500209735002008B51120CB
:10999400FFF75CFE00BF08BD08B51420FFF756FEB4
:1099A40000BF08BD00B583B00190019B5B69019ABB
:1099B40092691046984700BF03B05DF804FB0000AD
:1099C40000B585B02B4B1B68002B4ED000230193B0
:1099D400FFF706FF0246284B1B6819461046FFF79F
:1099E40007FF0290234B1B6803931DE0039B1A6837
:1099F400029B9A421CD8039B1B68029AD31A0293B7
:109A0400039B1B68019A13440193039B0093039BDC
:109A1400DB690393009B1B7C002B05D0009B002279
:109A24001A740098FFF7BEFF039B002BDED100E001
:109A340000BF124B1A78124B1B789A420CD1104B70
:109A44001B780133DAB20E4B1A700D4B1B78022BC4
:109A540002D10B4B00221A70094B1B781946094A94
:109A6400019B42F82130FFF797FF00BF05B05DF876
:109A740004FB00BF84350020883500209435002085
:109A8400953500208C35002082B00190184B1A784F
:109A9400184B1B789A4223D0154B1B780133DAB24A
:109AA400134B1A70124B1B78022B02D1104B00225D
:109AB4001A700F4B1B781A460F4B53F82220019B48
:109AC4001A60019B1A680D4B1B6813440B4A136000
:109AD4000A4B1B6823F07F43084A1360012303E009
:109AE400019B00221A600023184602B0704700BF91
:109AF40094350020953500208C35002088350020D1
:109B040088B00390029101920023079338E0204B20
:109B14001B680693069B1A68039B9A4206D9069B08
:109B24001A68039BD21A069B1A602DE0069B1B68D9
:109B3400039AD31A0393069B1B68079A134407934B
:109B4400069B00221A60124B1B680593069BDB6977
:109B54000F4A1360069BDB68002B11D0029A079B07
:109B6400134423F07F42069B5A60069BDA68069BE7
:109B74009A60019B1A68069BDA61019B059A1A6038
:109B8400034B1B68002BC2D100BF08B0704700BF55
:109B94008435002000B589B0019000238DF81F3072
:109BA400664B1B680593AAE0019B002B05D0019B23
:109BB4000693069BDB69019361E0614B1B781A46AF
:109BC40013465B001344DB005D4A134404330493DF
:109BD4005B4B1B780133DAB2594B1A70584B1A7825
:109BE400574B9B789A4202D1554B00221A70049B22
:109BF4005B680693049B1B78022B04D0032B1BD0B9
:109C0400012B1FD01DE0049B5B681846FFF75EFE26
:109C14000346002B02D001238DF81F30069B00223F
:109C24001A746CE0454B1B680393039B00221A745F
:109C3400039BDB69414A1360404B1B68002BF1D145
:109C44005DE05CE000BF069B1B7C002B00D056E06F
:109C5400049B9A68069B5A60049BDA68069B9A6088
:109C6400049B1A69069BDA60049B5A69069B9A61F5
:109C7400344B1B78002B02D0069B00225A60069BB3
:109C84005A68314B1B68D31A23F07F432F4A9342FF
:109C94000ED8069B5A682C4B1B6819461046FFF7D2
:109CA400A7FD0246069B9B681A44069B1A6017E0B0
:109CB400254B1A68069B5B6819461046FFF798FD0A
:109CC4000290069B9A68029B9A4206D9069B9A6860
:109CD400029BD21A069B1A6002E0069B00221A60BD
:109CE400069B00225A60069B00229A60069B012272
:109CF4001A74069B0022DA610698FFF791FD019B16
:109D0400002B7FF451AF0E4B1A780D4B5B789A42BF
:109D14007FF44AAF9DF81F30002B04D1074B1A681B
:109D2400059B9A4201D0012300E0002303F00103C4
:109D3400DBB2184609B05DF804FB00BF843500208F
:109D4400783400209735002088350020FEFF7F00FE
:109D540010B588B00190274B1B68002B44D0254BCD
:109D64001B681B680793FFF73BFD0690224B1B689B
:109D7400059305990698FFF73BFD034603330493C7
:109D84001E4B1B7883F00103DBB2002B01D0FFF7DD
:109D9400DFFC049A079B934238BF1346059A134489
:109DA4000593059B23F07F4305930598FFF72CFD4E
:109DB400FFF716FD039006990398FFF719FD034674
:109DC400DC1C06990598FFF713FD03469C420DD948
:109DD400FFF706FD03461846FFF716FD2F20FFF791
:109DE4008DFCFFF7D3FD01E0FFF7D2FC00BF08B004
:109DF40010BD00BF84350020883500209635002032
:109E040000B587B00023019300238DF81730194B58
:109E14001B680493184B1B6803936B461846FFF7A3
:109E240033FE03468DF80B309DF80B30002B08D021
:109E3400009B01AA04991846FFF762FE01238DF8DE
:109E44001730019B1846FFF7A5FE0346002B02D0EE
:109E540001238DF817309DF81730002B02D003989A
:109E6400FFF776FF054B00221A7000BF07B05DF8BC
:109E740004FB00BF8835002084350020973500207E
:109E840082B003468DF80730034A9DF807305370BB
:109E940000BF02B0704700BF7834002084B0019046
:109EA400144B5B7801338DF80F30124B9B789DF87F
:109EB4000F209A4202D100238DF80F300D4B1B78EE
:109EC4009DF80F209A4201D100230FE0019B9DF8D9
:109ED4000F201A70074B5B781A4613465B00134435
:109EE400DB00044A134404330293029B184604B073
:109EF400704700BF7834002000B589B00390029108
:109F0400019200930023079300238DF816300DF17E
:109F14001603184600F0BCF90DF117031846FFF7B5
:109F2400BDFF0690069B002B02D10423079318E083
:109F3400069B01221A70069B039A5A60FFF750FC95
:109F44000246069B9A60069B029ADA60069B019A77
:109F54001A61069B009A5A619DF817301846FFF75C
:109F64008FFF9DF81630184600F0A8F9079B002BC8
:109F740001D1FFF711FD079B184609B05DF804FBFA
:109F840000B587B001900B468DF80330002305938C
:109F940000238DF80E300DF10E03184600F078F909
:109FA4000DF10F031846FFF779FF0490049B002B73
:109FB40002D1042305930BE0049B9DF803201A703F
:109FC400049B019A5A609DF80F301846FFF758FF1A
:109FD4009DF80E30184600F071F9059B002B01D155
:109FE400FFF7DAFC059B184607B05DF804FB000098
:109FF40008B50E4B0022C3F840210C4B0022C3F8D5
:10A0040044210A4B0022C3F84821084B0022C3F81C
:10A014004C21064B0022C3F80021044B0022C3F854
:10A024000421FFF7CDFC00BF08BD00BF00100140B4
:10A0340008B5FFF7E5FE00BF08BD000008B5FFF74F
:10A04400A7FB134B00221A70114B00225A70104BBD
:10A054000B229A700F4B00221A600F4B00221A70C9
:10A064000E4B00221A701420FFF708FB072114205E
:10A07400FFF71CFB1420FFF7BBFA0020FFF756FB89
:10A08400FFF7AEFB0246064B1A600023184608BDD4
:10A094007834002084350020943500209535002044
:10A0A4008835002086B003900B4601928DF80B3062
:10A0B400134B9B78002B01D108231EE0019B002B3E
:10A0C40001D1072319E0039B002B01D1072314E0DE
:10A0D400039B1B681B7C002B01D008230DE0039B12
:10A0E4001B680593059B00221A74059B9DF80B20A1
:10A0F4005A74059B019A5A610023184606B07047AA
:10A104007834002000B587B0039002910192039B3C
:10A114000593144B9B78002B01D108231EE0039B6D
:10A12400002B01D1082319E0029B042B01D807233B
:10A1340014E0059B5B69002B01D108230EE0059B0D
:10A144005B7C012B01D1029B00E000230493019B63
:10A15400049A02990598FFF7CFFE0346184607B004
:10A164005DF804FB7834002000B585B00190019BB4
:10A1740003930D4B9B78002B01D1082310E0019B26
:10A18400002B03D0039B5B69002B01D1082307E05C
:10A19400039B00221A7402210398FFF7F1FE034681
:10A1A400184605B05DF804FB7834002082B0EFF364
:10A1B40010830093009B019372B6019B184602B072
:10A1C400704762B600BF704700B585B00190FFF7D5
:10A1D400EDFF0390164B9B68002B1BD1144B0122FF
:10A1E4009A60144BD3F88020134B1340104A136029
:10A1F400104B114AC3F880200E4BD3F884300C4A1C
:10A2040053600C4B4FF0FF32C3F88420019B0022B3
:10A214001A7002E0019B01221A70039B002B01D1EA
:10A22400FFF7CFFF0023184605B05DF804FB00BF1D
:10A234009835002000E100E0FC06FFBD00B585B0C4
:10A2440003468DF80730104B9B68002B16D09DF801
:10A254000730002B12D1FFF7A9FF03900B4A0A4BDA
:10A264001B681360094A084B5B685360064B002265
:10A274009A60039B002B01D1FFF7A3FF002318462C
:10A2840005B05DF804FB00BF9835002000E100E054
:10A2940000B583B0019000F02BF80346012B03D0E6
:10A2A40005494320FCF718F90198FFF78DFF00BF1B
:10A2B40003B05DF804FB00BF68EA030000B583B097
:10A2C40003468DF8073000F013F80346012B03D042
:10A2D40006495120FCF700F99DF807301846FFF7AE
:10A2E400ADFF00BF03B05DF804FB00BF68EA0300E4
:10A2F40084B0EFF305830193019BC3F30803039335
:10A30400039B002B0DD1EFF314830093009B029366
:10A31400029B03F00103002B0CBF01230023DBB2DB
:10A3240000E00123184604B0704782B00190019BFD
:10A3340003F00303002B0CBF01230023DBB21846F8
:10A3440002B0704700B585B00190002303930EE07E
:10A354000A4A039B52F82330002B05D0074A039B7B
:10A3640052F8233001989847039B01330393039BCE
:10A37400032BEDD900BF05B05DF804FBB435002014
:10A3840082B001900091019B1B78013B052B61D8A1
:10A3940001A252F823F000BFB5A30200BDA302003E
:10A3A400E3A3020015A4020035A4020051A4020094
:10A3B400009B00221A704EE0009B01221A70019B40
:10A3C4001A89009B9A81019B9A88009BDA81019BE0
:10A3D400DA68009B9A60009B00221A743BE0009BA1
:10A3E40002221A70019B1A89009B9A81019B9A8808
:10A3F400009BDA81019BDA68009B9A60019B9B7D3C
:10A40400062B0CBF01230023DAB2009B1A7422E04E
:10A41400009B03221A70019BDA88009B9A81019B9E
:10A424001A89009BDA81019BDA68009B9A6012E02A
:10A43400009B04221A70019BDA88009B9A81009B7E
:10A444000022DA81009B00229A6004E0009B05222E
:10A454001A7000E000BF00BF02B0704784B00190E2
:10A464000091019B0393039A009B9A4206D2039B9B
:10A474001B68B3F1FF3F01D0012300E0002303F088
:10A484000103DBB2184604B0704782B00190019B0F
:10A494005B8803339B00019A1344184602B070474B
:10A4A40000B583B0019000910198FFF7EEFF0246DA
:10A4B400009B9A4201D902230CE0019B9B884FF632
:10A4C400FF72934203D0019B1B88002B01D101230F
:10A4D40000E00023184603B05DF804FB00B583B028
:10A4E4000190019B002B13D00D4BDB681A46019B96
:10A4F4009A420DD80A4B1B691A46019B9A4207D30C
:10A504000198FFF712FF0346002B01D0012300E05E
:10A51400002303F00103DBB2184603B05DF804FB2B
:10A52400E82B002082B00190019B002B04D0019BFA
:10A534001B680B4A934201D003230DE0019B0433B3
:10A544001B68084A934204D0074A934203D101236B
:10A5540002E0002300E00323184602B0704700BF66
:10A56400DEC0ADDEFE011EF1FF011EF184B00190DC
:10A57400002303930CE0039B9B00019A13441B6884
:10A58400B3F1FF3F01D0002307E0039B01330393A2
:10A59400039BB3F5806FEED30123184604B07047D4
:10A5A40082B003460A46ADF806301346ADF80430CF
:10A5B400BDF80620134913469B0013449B000B442B
:10A5C40008331A88BDF804301344ADF80430BDF8DC
:10A5D40006200C4913469B0013449B000B440A338A
:10A5E4001A88BDF804301344ADF80430BDF80430C3
:10A5F40040F2FF32934294BF01230023DBB218469A
:10A6040002B070475436002084B0019000910A23B0
:10A6140003930023ADF80A3027E0BDF80A20174958
:10A6240013469B0013449B000B4404331A68009B9D
:10A634009A4215D2BDF80A20104913469B001344D0
:10A644009B000B4404331B6803F58052009B9A4221
:10A6540006D900230393019BBDF80A201A8008E061
:10A66400BDF80A300133ADF80A30BDF80A30012BC9
:10A67400D3D9039B184604B0704700BF543600205A
:10A6840000B589B0039002910192039B03F58053B6
:10A694000693039B08330393029B02221A80039BB5
:10A6A400079332E006990798FFF7FAFE03468DF800
:10A6B40017309DF81730002B0AD1079B9A68184B66
:10A6C4001B689A4213D9079B9B68154A13600EE0D6
:10A6D400019B002B02D0019B01221A709DF81730B8
:10A6E400022B04D1029B4FF480621A8014E0029B77
:10A6F4001A88079B5B8813449BB203339AB2029B6C
:10A704001A800798FFF7C1FE079006990798FFF78C
:10A71400A5FE0346002BC5D109B05DF804FB00BFBC
:10A72400C435002082B001900091009B9B7D022BD8
:10A7340009D9019B1A89009BDB8813449BB203331C
:10A744009AB2019B1A81019B5A89009BDB88D31A18
:10A754009BB2033B9AB2019B5A8100BF02B070477F
:10A7640000B583B0074B1B681946002300930823E8
:10A77400054A064802F09EFC0346184603B05DF8FD
:10A7840004FB00BF7C36002010EB0300E82B002004
:10A7940000B585B003900399002300930823044A6D
:10A7A400044802F087FC0346184605B05DF804FB34
:10A7B40018EB0300E82B002000B585B00346009198
:10A7C400ADF8063000238DF80F30BDF806300333A2
:10A7D400ADF80A30BDF80A3040F2FD32934201D997
:10A7E40009234AE00023ADF80C303BE0BDF80C200F
:10A7F400244913469B0013449B000B441B78002BF5
:10A804002BD1BDF80A20BDF80C3011461846FFF7CD
:10A81400C7FE0346002B20D001238DF80F30009B88
:10A82400BDF80C201A80BDF80C20BDF80C1015489A
:10A834000B469B000B449B0003440A331988BDF864
:10A844000A300B4498B20F4913469B0013449B00F3
:10A854000B440A3302461A8008E0BDF80C30013379
:10A86400ADF80C30BDF80C30012BBFD99DF80F307A
:10A87400002B01D0002300E00723184605B05DF843
:10A8840004FB00BF5436002082B003460A46ADF8EC
:10A8940006301346ADF80430BDF80420BDF80410AA
:10A8A4000C480B469B000B449B0003440A33198855
:10A8B400BDF80630CB1A9BB2033B98B20549134648
:10A8C4009B0013449B000B440A3302461A8000BFCA
:10A8D40002B070475436002008B50121024801F047
:10A8E40020FE0346184608BDC435002000B585B0D7
:10A8F40003460091ADF80630BDF8062023491346FF
:10A904009B0013449B000B4404331B6803F58053E2
:10A914000293009B1B680393039B002B04D00398B2
:10A92400FFF7B3FD039024E0BDF806201749134652
:10A934009B0013449B000B4404331B6808330393AC
:10A9440017E002990398FFF7ABFD0346012B09D0EA
:10A95400022B0CD0002B00D00BE0009B039A1A6052
:10A9640001230EE00398FFF790FD039001E000231C
:10A9740007E002990398FFF771FD0346002BE0D12D
:10A984000023184605B05DF804FB00BF54360020D0
:10A9940000B585B001900091019B5B681846FFF7F4
:10A9A4009DFD0346002B19D0019B1A89244B1B895A
:10A9B4009A4213D1019B1A68019B5B689B689A4277
:10A9C4000CD1019B5B6819460098FFF71DFE0346F6
:10A9D400002B0CBF01230023DBB22CE0009B0022E0
:10A9E4001A8023E00023029310E0029B0393039B4D
:10A9F4009A68019B1B689A4208D1029A019B5A608B
:10AA04000F4B1A89019B1A81012314E0009B1B88B8
:10AA140002AA11461846FFF769FF0346002BE4D14A
:10AA2400009B1B8801339AB2009B1A80009B1B88F1
:10AA3400012BD7D90023184605B05DF804FB00BFED
:10AA44008436002000B587B00390029101920093F0
:10AA5400304B1B78DBB283F00103DBB2002B01D057
:10AA6400022353E0019B002B02D0009B002B48D112
:10AA740005234BE0009B9B881946274A0B469B0005
:10AA84000B449B0013441B78002B33D124E0009B20
:10AA94001B680593039B002B06D0059B9A88039B98
:10AAA4001B889A4200D017E0029B002B06D0059B1E
:10AAB4001A88029B1B889A4200D00DE0059B9A6875
:10AAC400019B1A60009B1A68019B5A60134B1A89F8
:10AAD400019B1A81002319E0009B9B88009A114670
:10AAE4001846FFF703FF0346002BD0D1009B00223A
:10AAF4001A6000E000BF009B9B8801339AB2009B60
:10AB04009A80009B9B88012BB4D90A23184607B06E
:10AB14005DF804FBA4350020543600208436002060
:10AB240000B585B00190084B0199184601F057FB18
:10AB340003901C220021039813F078FB039B184612
:10AB440005B05DF804FB00BF6C2C002000B583B099
:10AB54000190044B0199184601F05AFB00BF03B061
:10AB64005DF804FB6C2C002000B583B00190054B0C
:10AB74000199184601F060FB0346184603B05DF8DE
:10AB840004FB00BF6C2C002000B583B00190044B83
:10AB94000199184601F069FB00BF03B05DF804FB9E
:10ABA4006C2C002008B50A4B1B68002B04D1094902
:10ABB40040F27A20FBF790FC0121054801F0C9FC22
:10ABC4000346002B14BF01230023DBB2184608BD43
:10ABD400AC350020CCEA030000B587B00023059310
:10ABE4000023ADF812300323ADF8103000238DF8A4
:10ABF4000F300023ADF80C30F0E0BDF80C301B032F
:10AC04001A467F4BDB68134402930298FFF78AFCD1
:10AC140003468DF807309DF80730012B00F09C8027
:10AC2400032B02D0002B62D0D3E00298FFF79EFCE6
:10AC34000346002B3BD0734B1B68002B29D0BDF877
:10AC44001220714913469B0013449B000B440222BB
:10AC54001A70BDF812206C4913469B0013449B00E4
:10AC64000B440433029A1A60BDF812206649134655
:10AC74009B0013449B000B44083302221A80634A4E
:10AC8400BDF812305380BDF812300133ADF81230E4
:10AC940008E05C4A029B13605A4B02229A8001230B
:10ACA4008DF80F30059B43F00103059391E0BDF847
:10ACB4001030013BADF81030BDF812205249134654
:10ACC4009B0013449B000B440433029A1A60BDF8A2
:10ACD40012204D4913469B0013449B000B4403224E
:10ACE4001A70BDF812300133ADF8123071E0BDF8BE
:10ACF4001220454913469B0013449B000B44002239
:10AD04001A70BDF81220404913469B0013449B005F
:10AD14000B440433029A1A60BDF8122013469B00B8
:10AD240013449B000833384A9918BDF8122013467F
:10AD34009B0013449B001033334A13441A46029871
:10AD4400FFF79EFC059B43F002030593BDF8123008
:10AD54000133ADF812303CE09DF80F30002B25D0C4
:10AD6400BDF81220284913469B0013449B000B4452
:10AD740002221A70BDF81220224B19682248134689
:10AD84009B0013449B00034404331960BDF8122054
:10AD94001D4913469B0013449B000B4408330222B5
:10ADA4001A80BDF812300133ADF81230154A029BF7
:10ADB4001360002216490298FFF762FC114B9B882E
:10ADC400022B01D1042300E00823059A13430593C1
:10ADD40000BFBDF80C300133ADF80C30BDF80C30B9
:10ADE400022B7FF60AAFBDF81030012B01D80023E7
:10ADF4000593059BDBB2184607B05DF804FB00BF62
:10AE0400E82B00207C3600205436002084360020B5
:10AE14008036002000B587B003900291039B022284
:10AE24009A750299039B1A1D002300930423074873
:10AE340002F040F90590059B002B01D1002300E0AE
:10AE44000E23184607B05DF804FB00BFE82B002072
:10AE540000B587B003900291039B1B69002B01D0BE
:10AE6400032200E00122039B9A75029B08331946D2
:10AE7400039B03F10C02002300930423064802F011
:10AE840019F90590059B002B01D1002300E00E2346
:10AE9400184607B05DF804FBE82B002000B587B026
:10AEA40003900291039B1B78032B01D1052200E040
:10AEB4000622039B9A75029B04331946039B03F1F4
:10AEC4000802002300930423064802F0F3F80590D7
:10AED400059B002B01D1002300E00E23184607B088
:10AEE4005DF804FBE82B002000B587B003900B4607
:10AEF400ADF80A3003990023009304230C4A0D484B
:10AF040002F0D8F80590059B002B01D00E230BE02E
:10AF1400BDF80A20084913469B0013449B000B44C8
:10AF2400103301221A700023184607B05DF804FBA1
:10AF340020EB0300E82B00205436002000B589B034
:10AF4400019002AB00221A605A609A60019BDB6890
:10AF540002930DF1160202AB11461846FFF718FDD5
:10AF64000346002B12D0039B0693069B9A88019BF1
:10AF7400DA80069B1A88019B1A81039BBDF8162070
:10AF840011461846FFF7B0FF079001E00A23079324
:10AF9400079B184609B05DF804FB000000B587B0B4
:10AFA4000190019B981D02AA0D4B0021FFF74AFD59
:10AFB4000590059B002B08D1039A094B9B881946E1
:10AFC4001046FFF791FF059004E008220021044891
:10AFD40013F02CF9059B184607B05DF804FB00BF7D
:10AFE4009436002000B587B003900291039B0122A0
:10AFF4009A75029B0C331846039B1A69039BDB88E2
:10B004009900002300930B460146074802F052F8CA
:10B014000590059B002B01D1002300E00E23184668
:10B0240007B05DF804FB00BFE82B002082B0174B8B
:10B034001B8901339AB2154B1A81144B00225A8092
:10B04400124B00221A730023ADF8063017E0BDF846
:10B054000610BDF806200E4813469B0013449B00BF
:10B0640003441B78002B0CBF01230023DAB2074BE7
:10B074000B449A72BDF806300133ADF80630BDF8C2
:10B084000630012BE3D900BF02B07047843600209C
:10B094005436002084B0019000238DF80F30002333
:10B0A400ADF80C3031E0BDF80C301C4A13449B7AE7
:10B0B400002B25D0BDF80C30184A134400229A7294
:10B0C400BDF80C20164913469B0013449B000B4407
:10B0D4000C331B68002B13D1BDF80C201049134608
:10B0E4009B0013449B000B4410331B78002B07D0A8
:10B0F400019BBDF80C201A8001238DF80F3008E065
:10B10400BDF80C300133ADF80C30BDF80C30012B18
:10B11400C9D99DF80F30184604B070478436002012
:10B124005436002008B5084B05221A70074B02223A
:10B134009A80064B1B68194600230122044802F03A
:10B1440091F80346184608BD843600207C3600205A
:10B15400E82B002000B583B0164B5B88ADF80230B5
:10B16400BDF80220144913469B0013449B000B4472
:10B174000C331B68002B14D10E4B04221A70BDF83B
:10B1840002200D4913469B0013449B000B440433D7
:10B194001B68194600230122084802F063F8019055
:10B1A40002E0FFF7BFFF0190019B184603B05DF872
:10B1B40004FB00BF8436002054360020E82B002016
:10B1C40000B587B0114B5B680593114B1A68104B9F
:10B1D4009B889B0013440493059B5B880333ADF861
:10B1E4000E300A4B03221A700499084B5A68BDF8B2
:10B1F4000E309800002300930346064801F05AFFDE
:10B204000346184607B05DF804FB00BF84360020EF
:10B214007C360020E82B002000B583B00A4B5B8805
:10B224000A491846FFF762FB0346002B03D0FFF7D9
:10B23400C7FF019002E0FFF78DFF0190019B1846C4
:10B2440003B05DF804FB00BF84360020883600207C
:10B2540008B50A4B06221A70084B5B881946084A3F
:10B264000B469B000B449B00134404331B68184695
:10B27400FFF78EFA0346184608BD00BF8436002047
:10B284005436002008B5054B07221A70034B0022E0
:10B294005A60FFF765FA0346184608BD8436002055
:10B2A40008B50D48FFF7F6FE034683F00103DBB251
:10B2B400002B0BD0094B00221A70084B00225A8035
:10B2C400064B00225A6041F61D5302E0FFF7A4FF2B
:10B2D4000346184608BD00BF863600208436002089
:10B2E40082B0094B5B680193019B5B880333ADF823
:10B2F4000230064B9A88BDF8023013449AB2034BCD
:10B304009A8000BF02B07047843600207C3600204B
:10B3140082B0184B1B680193174B5B881946174A78
:10B324000B469B000B449B00134404331B68114AD7
:10B334001360114B5B881946104A0B469B000B4463
:10B344009B0013440433019A1A600B4B5B88194623
:10B35400084B9888094A0B469B000B449B001344F6
:10B36400083302461A80034B02229A8000BF02B0BF
:10B37400704700BF7C3600208436002054360020FD
:10B3840008B51A4B1B78072B2CD801A252F823F0CE
:10B39400B5B30200E9B30200E9B30200C1B302008D
:10B3A400CDB30200D9B30200D9B30200E1B3020065
:10B3B400FFF73CFE0D4B01221A7014E0FFF790FFDB
:10B3C4000A4B02221A700EE0FFF7A2FF074B062277
:10B3D4001A7008E0054B07221A7004E0034B01229F
:10B3E4001A7000E000BF00BF08BD00BF8436002013
:10B3F40000B587B0019000910F230593019B002BAA
:10B4040004D0624B00225A600123BBE0009B1B79ED
:10B41400032B00F2AB8001A252F823F031B40200F6
:10B424003FB40200CDB40200EDB40200009B01223F
:10B434001A71FFF795F905909BE000238DF81330FE
:10B444000023ADF810302BE0BDF81020504913460E
:10B454009B0013449B000B441B78022B1BD1BDF8AB
:10B4640010204B4913469B0013449B000B440022BD
:10B474001A7001238DF81330BDF810204449134687
:10B484009B0013449B000B4404331B681846FFF7CE
:10B494007FF9059008E0BDF810300133ADF81030A5
:10B4A400BDF81030012BCFD99DF8133083F0010380
:10B4B400DBB2002B5CD0354B01221A70334B0022D7
:10B4C4005A6041F61D535DE0009B00221A71314B16
:10B4D40002229A802F4B1B681946002301222E4812
:10B4E40001F0C0FE059044E0009B00221A71294B34
:10B4F4001B681846FFF74CF90590284B5B88ADF89C
:10B504000E30244B1B680293BDF80E2020491346CD
:10B514009B0013449B000B4404331B681D4A1360B7
:10B52400BDF80E201A4913469B0013449B000B449C
:10B534000433029A1A60BDF80E20164B98881449F9
:10B5440013469B0013449B000B44083302461A80A5
:10B55400104B02229A80BDF80E200D4913469B0021
:10B5640013449B000B4400221A7002E000BF00E069
:10B5740000BF059B002B04D0044B00225A600E230D
:10B5840000E00023184607B05DF804FBA435002052
:10B59400543600207C360020E82B0020843600201E
:10B5A40000B587B001900091009B9B8A1A46134610
:10B5B4009B0013449B003A4A13440493019B002BC1
:10B5C40005D000990498FFF7ADF8012363E0049BCC
:10B5D4005A68049B1B899B0013440393009B9B7D27
:10B5E400062B4DD801A252F823F000BF33B6020057
:10B5F40057B602003FB602004BB602000DB6020079
:10B6040063B602007DB60200264B00225A60009BFE
:10B614009B69244A136024492248FFF7B9F9034679
:10B6240083F00103DBB2002B01D00A2333E003993A
:10B634000098FFF7EFFB059025E003990098FFF7CA
:10B6440007FC05901FE003990098FFF7CBFC0590D9
:10B6540019E003990098FFF721FC059013E0009B83
:10B6640006229A750F4B5A680F4B1B8819461046D1
:10B67400FFF73AFC059006E041F61D53059302E0FE
:10B684000F23059300BF059B002B03D0009904985A
:10B69400FFF748F8059B184607B05DF804FB00BFA8
:10B6A400543600209C360020A836002000B585B012
:10B6B40001900091019B002B01D0012323E0009B0A
:10B6C4001B79012B0BD0022B14D0002B16D1009B1D
:10B6D40002221A710098FFF731FC039012E00098DF
:10B6E400FFF75CFC0390039B0A2B0AD141F61D5320
:10B6F400039306E041F61D53039303E00F230393E2
:10B7040000E000BF039B184605B05DF804FB000091
:10B7140000B585B00190019B002B01D001233BE0D3
:10B724001F4B1B7B002B03D01D4B00221A7301E01F
:10B73400FFF726FE1A4B1B78013B062B28D801A2E3
:10B7440052F823F065B702006DB7020075B7020026
:10B754007DB7020095B7020085B702008DB70200DD
:10B76400FFF79EFD039016E0FFF756FD039012E0ED
:10B77400FFF726FD03900EE0FFF7ECFC03900AE0D0
:10B78400FFF766FD039006E0FFF77CFD039002E0FF
:10B794000F23039300BF039B184605B05DF804FB19
:10B7A4008436002000B589B001903F4B1B68002B04
:10B7B40005D13E48FFF7D8F902463B4B1A603A4B95
:10B7C4001B68002B04D13A4940F28250FAF784FEF8
:10B7D400354B1B681B78013B052B2CD801A252F872
:10B7E40023F000BF01B8020011B8020011B8020032
:10B7F40021B8020021B8020031B802002A4B1B68AC
:10B8040019460198FFF7F4FD019017E0264B1B68D9
:10B8140019460198FFF7C4FE01900FE0224B1B6804
:10B8240019460198FFF742FF019007E00198FFF7DE
:10B834006FFF019002E00F23019300BF019B002BD7
:10B844002BD003AB00221A605A609A60DA601A6146
:10B85400019B41F61D52934201D0019B00E000235D
:10B864000493114B1B6803AA11461846FEF788FD82
:10B8740003AB1846FEF766FD0B4B00221A6000234B
:10B8840001930A48FFF780F9FFF78CF9034683F028
:10B894000103DBB2002B02D187E700BF00E000BF49
:10B8A40000BF09B05DF804FBAC360020B0360020C0
:10B8B400CCEA030008B50121054800F01AFE03464E
:10B8C400002B02D10020FFF76DFF00BF08BD00BFB1
:10B8D400AC35002000B583B00190019B5B6818462D
:10B8E400FFF760FF00BF03B05DF804FB00B58BB049
:10B8F4000390029101928DF803300023ADF82430B7
:10B904000023ADF82630514B1B78DBB283F00103E2
:10B91400DBB2002B01D0022393E0029B002B01D168
:10B9240005238EE0029B1B884FF6FF72934203D0DF
:10B93400029B5B88002B01D1042382E0029B5B689D
:10B944001846FEF7F2FC034683F00103DBB2002B3A
:10B9540001D0032375E0019B002B11D1029B9B684E
:10B96400ADF826300DF11A02BDF8263011461846FE
:10B97400FEF722FF0890089B002B09D0089B60E08B
:10B98400019B1B88ADF81A30019B5B88ADF826300B
:10B9940005AB1846FFF7C4F80790079B002B09D1A5
:10B9A400BDF81A20BDF8263011461846FEF76CFF84
:10B9B400082346E0079B9DF803201A70079B00228A
:10B9C4009A75BDF81A20079B9A82029B5A68079BB6
:10B9D4001A61FEF781FF0246079BDA60029B1A8810
:10B9E400079B1A81029B5A88079B9A80079BBDF884
:10B9F4002620DA809DF80330032B06D1079B04220E
:10BA04009A75039B1A68079B9A61079BBDF82420CB
:10BA14005A8105AB1846FFF799F8039B002B0DD00C
:10BA2400039B00225A60079BDA68039B1A60039BFE
:10BA340000229A72064B1A89039B1A81FFF73AFF78
:10BA4400002318460BB05DF804FB00BFA4350020AA
:10BA54008436002000B585B001900C4B1B68042B84
:10BA640002D10C2303930BE0084B1B680849019A8D
:10BA740041F823200121054800F053FD00230393DE
:10BA8400039B184605B05DF804FB00BFB0350020E9
:10BA9400B435002084B04FF010235B6903934FF05A
:10BAA40080531B6902934FF080535B690193039B9E
:10BAB400B3F1FF3F04D1019B029A02FB03F300E0C0
:10BAC400039B184604B0704700B583B04FF440534D
