:10000000000001203D020000950200009702000060
:10001000990200009B0200009D0200000000000009
:100020000000000000000000000000009F0200002F
:10003000A102000000000000A3020000A5020000D1
:10004000D9230000AB02000015280000692B000036
:10005000B1020000B302000091260000B7020000C8
:10006000B9020000BB020000BD020000BF02000098
:10007000C1020000C3020000C5020000C702000068
:10008000C9020000DD110000CD020000CF02000017
:1000900079120000D3020000D5020000D702000050
:1000A000D9020000DB020000DD020000DF020000D8
:1000B000E1020000E3020000A7020000A702000026
:1000C000E5020000E7020000E9020000EB02000088
:0C00D000ED020000EF020000F102000051
:1000DC00364937480A1A02D0072291438D463549D2
:1000EC0035480A1A06D00722914381F30988022267
:1000FC0082F3148831483249324A00F045F83248CC
:10010C003249334A00F040F832483349334A00F060
:10011C003BF833483349344A00F036F83348344915
:10012C00344A00F031F834483449354A00F02CF8A0
:10013C0034483549354A00F027F83548354900220E
:10014C0000F02DF834483549002200F028F83448E6
:10015C003449091A082903DB0022026004300160CB
:10016C00314A90471F482049884205D00268043024
:10017C0003B4904703BCF7E700208646EC4600200A
:10018C0000212A4A9047FEE7884207D0521A05D030
:10019C00037801300B700131013AF9D17047884274
:1001AC0002D002700130FAE7704700000000012015
:1001BC0000E000200000012000000120CC470000DE
:1001CC002C0000207C000020F4020000F40200004F
:1001DC0050420000CC4700002C0000202C000020D6
:1001EC0004430000044300000443000004430000E7
:1001FC0004430000044300000443000004430000D7
:10020C00CC4700001C4800007C0000207C00002033
:10021C007C0000203409002034090020340900201F
:10022C00340900203429002061020000793B0000D1
:10023C000F484FF00701884385460E4880470E480B
:10024C00016841F470010160BFF34F8FBFF36F8FF2
:10025C00FFF73EBF09480A490A4A884207D0521A9A
:10026C0005D0037801300B700131013AF9D1704798
:10027C0000000120B53C000088ED00E0D8420000F1
:10028C00000000202C000020FEE7FEE7FEE7FEE762
:10029C00FEE7FEE7FEE7FEE7FEE7FEE7FEE7FEE72A
:1002AC00FEE7FEE7FEE7FEE7FEE7FEE7FEE7FEE71A
:1002BC00FEE7FEE7FEE7FEE7FEE7FEE7FEE7FEE70A
:1002CC00FEE7FEE7FEE7FEE7FEE7FEE7FEE7FEE7FA
:1002DC00FEE7FEE7FEE7FEE7FEE7FEE7FEE7FEE7EA
:0802EC00FEE7FEE7FEE700BF9C
:1002F400F0B595B01C4608460D46164601F057FC6D
:100304001A9B099400240D930822234605A9284624
:1003140008960A948DF82C400C9401F086FC079BF7
:100324000293BDF81830ADF80C30BDF81A30ADF8B2
:100334000E309DF814308DF8114003F00302012AA9
:100344001DD1BDF81440059EC3F3C203C4F3831446
:100354008DF81030A20008230EA9284601F065FC90
:10036400C6F3952608AB0093224602AB0EA930468D
:1003740000F03EFC284601F01EFC15B0F0BD022A38
:10038400F8D1BDF81640C3F3C203C4F389148DF841
:1003940010300827082C264628BF08263B4632463C
:1003A4000EA9284601F041FCA41B08AB02AA314661
:1003B4000EA8374400F080FC002CEBD1DAE70000F3
:1003C400014B01221A707047BD00002070470000E5
:1003D40070B50E4D06460FCD88B06C460FC495E837
:1003E4000F0084E80F0008A9002E4FF00803084A04
:1003F40041F8203D08BF0022064801F05BFF08B128
:1004040000F042FE044B1E7008B070BD04430000AF
:10041400C50300002C0000207C00002007B5044B1D
:100424000093044A4023FFF763FF03B05DF804FB25
:100434003D0400007D00002038B50D4B0D4D00201B
:1004440018700D4804782D5DD2B21C4665B1043095
:1004540003F038F908B100F017FE084B1A7812B10E
:100464002378002BFBD038BD0C3002F021FFF1E7DC
:10047400BD000020580700202C0000207C00002034
:1004840008B50848084A0378D35C3BB1043003F04C
:10049400B5F80020BDE80840FFF79ABF0C3002F021
:1004A400A3FEF6E72C000020580700200120FFF7E8
:1004B4008FBF000010B5054CFFF7F8FF042120465C
:1004C40000F006FB0123637210BD00BF4000002052
:1004D400037813F0030F10B503F0040402D004F002
:1004E400FF02F4B1B4B103F00303012B03D0022BD8
:1004F40009D0012010BD0A6800880232C0F38310BD
:1005040002440A60F5E70B684288023303EB921356
:100514000B60EEE70B684288013303EB9213028809
:10052400F4E7104610BD00002DE9F04F494C87B0A8
:100534000F460646851C0020019201F097F82368B7
:100544003B606268A3681344226801339B1A04F277
:100554001C4704F5836A04F21448AB4219D3019A88
:100564000023002A6ED0012262F3010343F0040346
:1005740066F389132168A2680A4003320D440020FF
:1005840044F82230256001F073F8012007B0BDE87B
:10059400F08F0121384601F093F8504601F0AAF893
:1005A400404601F0A7F80DF118096068D4F808B0C6
:1005B40049F8100D00EA0B00033004EB80004946B3
:1005C400FFF786FF029BB8B90BEA030204EB820231
:1005D400D16803919A1C013303EA0B0B04EB8B0ED5
:1005E4000292DEF80C30049301F00303012B21D0B6
:1005F400022B04D083460CE00BEA0300DCE7BDF8D1
:100604000E30BDF812B0C3F38913033302EB930326
:100614000293404601F071F808B1029B63605946A9
:10062400384601F04DF86268A36813442268013328
:100634009B1A92E7BDF80C30BDF812B0C3F38313D4
:100644001344E5E7022262F3010343F0040366F373
:100654009F538FE79001002008B50E4B0E48FF22F0
:100664009A600022C3F818241A605A60C3F814244C
:1006740083F8202401F052FA38B9084A084B094992
:100684009B1ADB0802469A4200D108BD21F82220B9
:100694000132F8E790010020A84200005042000017
:1006A400A84200000000002030B50B4C79B10B4A81
:1006B4000B49121BD20800239A4201D1002030BDFD
:1006C40001EB83056D88854202D00133F4E70346CC
:1006D40054F8330030BD00BF50420000A84200006F
:1006E40000000020094B013903EBC000032909D89D
:1006F400DFE801F00A02040604207047007970471D
:100704004079704700207047022070475042000033
:10071400034B58681B68C31A58425841704700BFBE
:10072400900100202DE9F04385B0FFF7F1FF074663
:10073400002840F0E380794DC5F81804BFF34F8FCB
:100744006868AC680DF1100848F8100D20400330BB
:1007540005EB80004146FFF7BBFE009B06460028E0
:100764005AD104EA0302991C013305EB82022340A7
:1007740005EB8303D268DB68029302F00303022BC8
:10078400019200915AD1BDF806306548C3F3891926
:100794004F46502FA8BF502767F38F1307F1080166
:1007A400ADF8063001F0D2F98046002800F0AD80A3
:1007B40001F0FDF9082201A93346404601F00AFA86
:1007C400009924EA01020132920097422FD9002AAB
:1007D40000F096802140D6B20331BF1B514C05EB8B
:1007E4008101FFB208233246404601F0F3F934B1E7
:1007F40006F108033A462146404601F0EBF9009B16
:1008040009F1030903EB99030093D5F81834002B7D
:1008140047D1D5F8104450E02A689A4204D86A6057
:10082400384605B0BDE8F08304EA03008FE70C40C6
:10083400E11C08233A4605EB8101DDE7012B64D175
:10084400BDF804303648C3F38311062928BF0621B6
:1008540061F3891302318900ADF8043001F076F9AF
:100864008046002851D001F0A2F93346082201A99C
:10087400404601F0AFF9BDF80420C2F38312B31C63
:1008840096424FEA8303C0D200994A1C21400331A7
:10089400009205EB81010422404601F09BF90136E8
:1008A400E9E7404601F087F9FFF732FF80F00100E5
:1008B400C7B2B5E7637A5BBB6468002CFAD14046E3
:1008C40001F079F9204600F0D1FED5F818340BB9BF
:1008D400009B6B60002000F0CBFEE5E72368204618
:1008E4009B6898476468002CF8D10F4B0F4918880F
:1008F400000440F0020000F073F8D5E700278FE70A
:10090400FEB21446074917466CE7D5F81044EAE7E7
:10091400236841461B6820469847CDE79001002094
:10092400A84200009C010020180000203043000071
:100934002DE9F74F284C80460F46924601A9012223
:1009440018469B46A568FFF7EFFD88B3DDF80490D1
:10095400002609F102025E4534D100211F4800F04F
:1009640089FE80F3100009F101022A4004EB82029F
:10097400000405EA0903033340EA1840D06014F880
:10098400232068F3C50204F8232034F8232066F3F7
:10099400891224F8232054F82320012167F39F228D
:1009A40044F8232061F301026FF3820204F8232048
:1009B40094F820341BB1FFF7B5FE0028FBD103B037
:1009C400BDE8F08F02EA050104EB81015AF82630F4
:1009D400CB6001360132BEE790010020AC05002057
:1009E40000231A46FFF7A4BF13B502AC012344F851
:1009F400042D2246FFF79CFF02B010BD2DE9F347FA
:100A04008046314CD01C8A46174601A90022800832
:100A1400A568FFF789FD002840D0DDF80490A6689A
:100A240009F10200019001362840361AB600B74297
:100A340000F103003CD83A46514604EB800003F031
:100A440077FB0021214800F015FE80F3100009F126
:100A540001032B4004EB8303000440EA1840D860F0
:100A640005EA0903033304EB830214F8231068F343
:100A7400C50104F8231034F823106FF38F1124F800
:100A84002310518867F38F11518014F82320022119
:100A940061F301026FF3820204F8232094F82034F6
:100AA4001BB1FFF73FFE0028FBD102B0BDE8F08781
:100AB4003246514604EB800003F03AFBBA1B0AEBC2
:100AC400060104F10C00BAE790010020AC050020F7
:100AD4000F4A30B5D2F810440023214641B90372BD
:100AE400D2F810444CB9C2F810044160184630BD25
:100AF4000D7A9D4205D04968F0E762684260606003
:100B0400F4E701330A2BE8D14FF0FF33EEE700BFDF
:100B140090010020084A38B50123D2F8104482F825
:100B240020341D4604B938BD2368657220465B68CD
:100B340098476468F6E700BF90010020C38873B546
:100B440004460D4633B1144A00921449144A284607
:100B540000F02DFE217A05291CD0637A4BB1A088C0
:100B6400FFF7C0FD0F4B104953F82020284600F032
:100B74001EFE227A0D4BA08853F822600021FFF755
:100B840093FD0B4903463246284602B0BDE8704047
:100B940000F00DBE02B070BDAB43000093430000F3
:100BA4008B43000058430000B0430000C0430000E2
:100BB400B3430000037A052B10B50C460FD0437ADB
:100BC40023B1084A0849204600F0F1FD07492046B0
:100BD40000F0EDFD2046BDE8104000F0DDBD002A28
:100BE400F8D0F3E7AB430000B04300001E4500001B
:100BF4002DE9F04385B01F460C9D002306460C46A4
:100C0400904695F80C902B7329463846FFF796FFCB
:100C1400B8F1060F09D8DFE808F00412181F2833CA
:100C240040003146284600F0C2FD002229463846DD
:100C3400FFF7C0FF85F80C9005B0BDE8F08322688B
:100C44003146284600F0B3FDEFE794E80C00314646
:100C5400284600F0ACFDE8E7A3680093314694E829
:100C64000C00284600F0A3FDDFE7E3680193A368C6
:100C74000093314694E80C00284600F098FDD4E730
:100C840023690293E3680193A3680093314694E8CF
:100C94000C00284600F08BFDC7E7636903932369C2
:100CA4000293E3680193A3680093314694E80C002F
:100CB400284600F07CFDB8E708292DE9F84F804666
:100CC4000E4617461C4636D8002593F80C901D7323
:100CD40019461046FFF732FFDFF87CA0DFF87CB03E
:100CE400AE422AD918F805205946204600F05FFD87
:100CF4000135082DF4D11649DFF864B0204600F020
:100D040056FD0025AE421DD918F805A0504603F043
:100D1400D5F9002814BF52462E225946204600F029
:100D240046FD0135082DEDD1012221463846FFF755
:100D340041FF84F80C90BDE8F88F5146204600F03E
:100D440036FDD5E70349204600F031FDE9E700BF51
:100D54008643000084430000824300007C4300007B
:100D640088430000054A4FF0A043105CD3F80435D3
:100D740023FA00F0C04300F0010070471F44000054
:100D8400044B1A5C012393404FF0A042C2F80C3587
:100D9400704700BF1F440000044B1A5C01239340BA
:100DA4004FF0A042C2F80835704700BF1F4400004E
:100DB40008B50020FFF7F0FF0120FFF7EDFF022048
:100DC400FFF7EAFF0320BDE80840FFF7E5BF08B5D9
:100DD4000020FFF7D5FF0120FFF7D2FF0220FFF725
:100DE400CFFF0320BDE80840FFF7CABF074A4FF012
:100DF400A041105CD1F804350122824022EA0300AC
:100E04001340C1F80805C1F80C3570471F440000B1
:100E14000D2809D00E2809D00F2809D010280CBF9E
:100E240003204FF0FF3070470020704701207047C7
:100E340002207047C20708B501460CD54FF0A04305
:100E44000322C3F84427C3F84827C3F84C27C3F840
:100E54005027FFF7ADFF8B070AD54FF0A0430C22B4
:100E6400C3F83427C3F83827C3F83C27C3F840270E
:100E740008BD00002DE9F84FDFF8A4B00025254B8C
:100E84001B78ECB2A34201D8BDE8F88F224BD3F80B
:100E9400008018F8349001204A46002103F03AF803
:100EA400DBE9002300EA020601EA03073E4308EBFC
:100EB400C40A2CD023EA010122EA0000CBE9000194
:100EC400484601F0D9FB18F83440814622460120F7
:100ED400002103F01FF8114BD3E9006722460640B6
:100EE4000F404846002103F015F88F4208BF8642A0
:100EF4000DD1DAF8043053B19AF801104A1E514268
:100F04005141A1EB09004142414120469847013536
:100F1400B5E700BFB4050020F0050020E00500207F
:100F2400E80500202DE9F84307461F4800F07CFB44
:100F3400002837D13A460120002102F0EBFF1B4B79
:100F440004460D46D3E9000104EA000805EA010954
:100F540058EA09021E461FD1384601F08DFB144B96
:100F640098B1D3E9000120432943C3E90001D6E93C
:100F740000231D430F4B0C4819681443C6E9004570
:100F84000022BDE8F84300F00BBBD3E9000120EADE
:100F9400040021EA0501E8E720EA040421EA050542
:100FA400C3E90045BDE8F883BC050020E80500203E
:100FB400E0050020B8050020042AF7B505460C46D4
:100FC400164638D901F094FAC8B11C4B1C491D606F
:100FD4001C4B1D4F1C701D4B00221E600023C1E9D9
:100FE40000231B49C1E90023013CE4B20026FF2C85
:100FF4000BD1184A1848002100F0C0FA03E001F0B0
:101004003FFA0028E1D003B0F0BD23B205EBC302E0
:10101400032192788DF804108DF8052001A93A4631
:1010240015F833008DF8066001F06CFA013CE4B267
:101034000028DCD0E7E70720E5E700BFF005002043
:10104400E0050020B4050020290F0000B8050020A9
:10105400E8050020790E00002444000070B5084D16
:10106400084E00242B789C4201D3002070BD3368C5
:10107400012113F8340001F0B9FA0134F2E700BF9A
:10108400B4050020F00500201FB50021039001AA3B
:1010940044F201000191029100F004F805B05DF8FA
:1010A40004FB000010B572B6FFF734FDFFF73AFBFE
:1010B4000028FBD1104C11492088000440F00100A5
:1010C400FFF78EFC0E4B1B68DB0700D500BE2088A3
:1010D4000C49000440F00200FFF782FCBFF34F8F7D
:1010E40009490A4BCA6802F4E0621343CB60BFF3B8
:1010F4004F8F00BFFDE700BF180000202844000008
:10110400F0ED00E03444000000ED00E00400FA05D6
:10111400094A537891780133DBB2994208BF00231E
:10112400117899421FBF03705078182303FB0020E5
:1011340014BF043000207047F405002037B504467E
:1011440000200D4600F092FA0DF10700FFF7E0FFD2
:1011540090B10570094B9DF8072044605A70002433
:10116400002000F085FA24B9054B4FF48012C3F82F
:101174000021204603B030BD0424F1E7F40500202B
:1011840000E100E0024B4FF43C6043F001031847D8
:101194005044000038B50C4B0C4C4FF40032C3F8EB
:1011A400802001254FF48033C4F84833C4F8083351
:1011B4006560FFF7E7FF064BA56000241C60FFF79E
:1011C400E1FF044B1C7038BD00E100E00010014059
:1011D4001007002001070020F8B51F4B1F491B68AA
:1011E4000025C1F84051C1F84451C1F84851C1F833
:1011F4004C51C1F80051C1F804514BB3D1F8044526
:1012040017490968641A24F07F442F461A68A242D9
:1012140009D8A41A15441A7CDE691AB11F745A69D4
:1012240098699047AEB90F4B0F4A197813788B42DF
:1012340005D10133DBB2022B08BF002313701278EF
:101244000A4B43F822500A4B4FF48012C3F8002192
:10125400F8BD3346DAE700BF140700200010014050
:10126400100700200C0700200D07002004070020B1
:1012740000E100E02DE9F74F9C4A9D491378097875
:101284009C4E994257D00133DBB2022B08BF002396
:10129400137099491278994B0F6853F822003B1840
:1012A40023F07F4300220B603368154614469646AC
:1012B40013B942B1336006E01968814229D902B1F9
:1012C4003360091A19604FF0010833688C4FDFF856
:1012D4003CB200934FF00009002D61D02C46ED691B
:1012E400854B60681A68831A23F07F41854B9942C5
:1012F400A36800F2B7800B44236000236360A360FB
:10130400E361336801222274002B40F0B38034601F
:10131400E2E7401A0C44D968C3F800E0D3F81CC0D3
:1013240031B13A1922F07F42DD615A6099601D465D
:1013340063460122BCE70025A846C6E7531CB978DA
:10134400DBB299423B704FF0180303FB027208BFF3
:101354003D7013799468022B1BD0032B11D0012B01
:101364001ED1217CE1B9D36863601369A36053691A
:10137400E3609369A361644B1B78002BB0D0616078
:10138400AEE7002335681A46002D67D143B13560B6
:1013940006E0326813469246002B5AD10023237488
:1013A4003A787B789342C9D1B9F1000F06D13368FA
:1013B400009A9A4202D1B8F1000F44D03368002B4E
:1013C40073D0D3F800A0514D4B4BD5F804751C686D
:1013D400DFF840813E1B98F8003026F07F46033644
:1013E4009BB94FF48033C5F84433C5F80433484BF4
:1013F4004FF400324FF00109C3F880211A60C5F898
:101404000090FFF7BFFE88F80090B2452CBF54440B
:10141400A41924F07F44C5F84045D5F80435DB1BF6
:1014240023F07F43E41B033324F07F44A3420AD90F
:10143400D5F80435C5F84035FFF7A4FE344B4FF416
:101444000032C3F80021304B00221A7003B0BDE80B
:10145400F08F9C422CD09A46DB699DE72A740123C5
:10146400ED6991E7121A22F07F429A4234BF9B1A27
:10147400002341E7226819688A420BD88A1A1A6045
:10148400E36144E7521AD969184661B92260E161FF
:10149400DC6121E7184619689142F3D3891A19606F
:1014A40019460346F2E70B46F5E7FFF773FECAE772
:1014B40054450DD1D369336053B90F4801920121CA
:1014C400CBF808100360104B1970FFF75BFE019A0C
:1014D400E1692368CAF81C1011B1086803440B6061
:1014E40033689A4218BF4FF0010957E70C070020F0
:1014F4000D07002014070020100700200407002017
:10150400F4050020FEFF7F000007002000100140CA
:1015140000E100E00107002008B5FFF73BFE114B96
:1015240000200B2218709A7058700F4B18600F4BE4
:1015340018700F4B18700F4B4FF48012E021C3F852
:10154400802183F814131A6002F18042A2F56F22FD
:10155400C2F8080583F81113074BD2F804251A6062
:1015640008BD00BFF4050020140700200C0700206C
:101574000D07002000E100E010070020074B9B78D6
:101584004BB132B128B10368187C20B959745A613F
:101594007047072070470820704700BFF4050020FB
:1015A4002DE9F3411D4EB37804460D46174693B317
:1015B40088B304292DD943696BB3437C0020012BE4
:1015C4000CBF88464FF0000800F050F80DF10700FA
:1015D400FFF79EFDD8B101230370114B4460D3F88B
:1015E400043583609DF80730C560C0F810804761FA
:1015F40073700024002000F03BF824B9094B4FF429
:101604008012C3F80021204602B0BDE8F081042412
:10161400F0E70724F7E70824F5E700BFF405002006
:101624000010014000E100E0064A92783AB130B17E
:10163400426922B1002202740221FFF77FBD082013
:10164400704700BFF405002072B6024A13680133E4
:101654001360704718070020034A1368013B1360A6
:1016640003B962B6704700BF18070020FFF7ECBF4C
:10167400FFF7F2BF00B550E8002F0B4640E8003EEC
:101684009EF0000FF7D110465DF804FB00B550E85A
:10169400003F43EA010240E8002E9EF0000FF6D11D
:1016A40010465DF804FB00B550E8002F02EA010380
:1016B40040E8003E9EF0000FF6D110465DF804FBB2
:1016C40000B550E8003F03EB010240E8002E9EF015
:1016D400000FF6D110465DF804FB00B550E8003F5A
:1016E400A3EB010240E8002E9EF0000FF6D1104655
:1016F4005DF804FB0121FFF7C9BF0021FFF7D3BF49
:1017040010B590B14268836801689B1ADBB20A6025
:10171400013BDBB2FF2B026802D10020107110BD27
:1017240011684C1C14600B70F2E70E2010BD38B524
:1017340004460020FFF79AFF226863681168994203
:1017440013D9481E106011F8015CE368A18A01FBFB
:101754000535A36811791B1ADBB2994200D21371C3
:101764000020FFF785FF284638BD0025F8E738B587
:10177400054600200C46FFF779FF2A681368591CB8
:101784001160E968641AA98AB4FBF1F41C700020A2
:10179400BDE83840FFF76CBF826810B504462AB133
:1017A40043690168006998470023A36010BD0EB423
:1017B40003B5039929B102AA04AB42F8043D00F031
:1017C4006DF802B05DF804EB03B07047826830B482
:1017D4000468551C8560A154826843689A4202D308
:1017E40030BCFFF7D9BF30BC704700002DE9F84F7B
:1017F4000A9C99460B9B1746824688460A46012650
:10180400BA420FD24E4538BF4E4613F0010B01D1F8
:1018140064B900240125B9F1010F1AD909F1FF397E
:101824007D43F8E7B2FBF7F20136E9E79B070ED5F3
:10183400B9F1000F0CBF30252025A642EAD2013CA5
:1018440029465046FFF7C2FF002CF6D1E1E72025D8
:10185400F3E7B8FBF5F39F42E2D9DFF83C90B8FB1D
:10186400F5F3504619F8031005FB1388FFF7AEFF94
:10187400B5FBF7F5002DF2D1BBF1000F0AD03CB94E
:10188400BDE8F88F013C20215046FFF79FFF0CB1C3
:10189400A642F7D3BDE8F88F564400002DE9F74F70
:1018A400054617460C46002900F0358114F8011B43
:1018B40049B92B7B002B00F02E81284603B0BDE8EC
:1018C400F04FFFF769BF252940F021812346002608
:1018D400194611F8012B2D2A24D0302A26D02B2A80
:1018E40027D000242A2A994603F1010124D13B6818
:1018F4001A1D1B683A601C44894699F800302E2B47
:1019040025D109F101014FF00008894611F8012B96
:10191400A2F1300009281CD80A2303FB0823A3F1F1
:101924003008F2E746F001060B46D1E746F002061E
:10193400FAE746F00406F7E71A780B46A2F13001FD
:101944000929DAD80A2101FB0424303CCAE74FF004
:10195400000899F8001001F0FB02682A02D119F876
:10196400011FF8E769290FD04BD8582965D007D84B
:1019740025296ED009F101042378002B96D198E72C
:10198400632962D06429F5D13A68D2F800A0111D08
:101994008AEAEA723960A2EBEA724FF0010B092A73
:1019A4005BDCC34538BFC3462CB1BAF1000F01DB81
:1019B400710700D5013CB20702D5B8F1000F04D07D
:1019C400F30702D4002C4ED10024BAF1000F52DAEE
:1019D400CAF1000A2D212846FFF7F8FE06F003029B
:1019E400022A05D1B8F1000F02D1002C47D10024FE
:1019F4008DE8500043460A2251462846FFF7F6FE7A
:101A0400B8E773294CD014D87029B3D13B681A1D98
:101A14003A60302128461C68FFF7D8FE7821284612
:101A2400FFF7D4FE002301930823009310222146DC
:101A3400E3E775292BD078299CD139680A1D3A60CF
:101A440043468DE85000102228E03B681A1D19789F
:101A54003A602846FFF7BAFE8CE70A230BF1010B24
:101A640092FBF3F29BE7A345AFD220212846013C29
:101A7400FFF7ACFEA6E77007B0D52B21ABE7A34573
:101A8400B6D230212846013CFFF7A0FEADE7396805
:101A94000A1D3A608DE8500043460A220968ACE703
:101AA4003B681A1D3A60F107D3F800A012D55646D8
:101AB400A6EB0A0B16F8011B41B95C457FF65AAF39
:101AC40020212846013CFFF781FEF6E72846FFF770
:101AD4007DFEEDE7BAF1000F11D0504602F086FB0F
:101AE4000646B44200D964B90AF1FF3A1AF8011F54
:101AF40000293FF43FAF2846FFF768FEF6E7564655
:101B0400EFE720212846013CFFF760FEE9E728467D
:101B1400FFF75CFE30E703B0BDE8F08FFFF7F0BDE0
:101B2400F8B546790446721E00239342246804D310
:101B340001460025B54202D3F8BD0133F5E70F682D
:101B44002046FFF714FE01353946F3E72DE9F84343
:101B5400878ACD1C8046FFF7EAFD043F3D440446D6
:101B6400B5FBF7F5002650B10123EDB206714371C0
:101B7400C780013DC0F800808146AE4202D32046B2
:101B8400BDE8F8834046FFF7D2FD074648B16379C4
:101B9400013363710136C9F80000C0F80080814642
:101BA400EBE72046FFF7BCFF3846BDE8F883012188
:101BB4000430FFF785BD10B5012104460430FFF75A
:101BC4008CFD10F0FF0F04D12046BDE81040FFF754
:101BD400A7BF10BD2DE9F843C68804330F46B3FBF5
:101BE400F6F4154606FB143380463CB9A6EB03090C
:101BF400A94528BFA9462DB9BDE8F883D8F80080C7
:101C0400013CF2E7043308EB0300A5EB09054A465F
:101C1400391902F08DFAAE424C44D8F80080B1462E
:101C24004FF0000328BFA946E5E72DE9F843C6882D
:101C34000F46191D1546B1FBF6F4804606FB141138
:101C44003CB9A6EB0109A94528BFA9462DB9BDE8B1
:101C5400F883D8F80080013CF2E704314144A5EB55
:101C640009054A46381902F063FAAE424C44D8F8E2
:101C74000080B1464FF0000128BFA946E6E7000006
:101C8400064B10B500241C70054B1C60BFF35F8F1E
:101C94000449054800F0D2F8204610BD240700206E
:101CA40028070020684400001C07002008B5002015
:101CB400FFF7DCFCF1EE103A23F09F03E1EE103A5B
:101CC400BFF35F8F054B4022C3F884210020FFF748
:101CD400CFFC20BF40BF20BF08BD00BF00E100E033
:101CE400026813685268934291BFD01A8068013029
:101CF400801888BFC01A7047036881681A685B68D7
:101D04008B4234BF01330023D31A584258417047E1
:101D1400F8B5044600200D46FFF7A8FC2046FFF75F
:101D2400EBFF10B1237C002B3CD12268A6685368DA
:101D34005168B14234BF01310021516030B11168A2
:101D4400A068814234BF013100211160E2686068FB
:101D5400511E072920D8DFE801F004101F141F1FAB
:101D64001F182A78C2542046FFF7BAFF23689A68DE
:101D7400904200D99860002415E02A8820F81320A6
:101D8400F1E72A6840F82320EDE7D5E9006700EB86
:101D9400C300C0E90067E6E7294602FB030002F03E
:101DA400C7F9E0E704240020FFF762FC2046F8BDF1
:101DB400036818685B68C31A58425841704770B585
:101DC400054600200C461646FFF750FC2846FFF750
:101DD400EFFF002830D129680B682EB90A68A8687B
:101DE400824238BF561C0E60EA686968501E072894
:101DF4001CD8DFE800F0040C1B101B1B1B14CB5C6D
:101E0400237000240020FFF733FC204670BD31F816
:101E140013302380F5E751F823302360F1E701EB19
:101E2400C301D1E90023C4E90023EAE702FB03115B
:101E3400204602F07DF9E4E70524E3E70B684A68ED
:101E44004360934208BF0023016008BF43607047AA
:101E5400F0B501680A7E0B68D2B217B29E684FEAE9
:101E6400C70C06EB0C0456F8376094F806E0637967
:101E740027791EF001044FEA530587B003F00103EC
:101E84003AD0002B38D1D1F800E09EF80CE00132B2
:101E9400724531DA0A6892680CF1080E724452797C
:101EA400B5EB520F28D10B680C7E9B6803EB0E0236
:101EB40053F80EE0537992F804C0927913F0010FAD
:101EC40004F1010414BF02230323E4B212F0010F4E
:101ED40014BF202200220C7601A90C308DF80430A6
:101EE4008DF805500297CDF80CC00496CDF814E097
:101EF40000F076FF07B0F0BDDBB21CB9A646A446DD
:101F04002246E9E74FF0000EF4462022E4E70346B8
:101F140008461A68126822B11A681B6851681B685F
:101F2400184770472DE9F84F0568DFF88CB0044670
:101F34000E464FF000090020FFF798FB16B92368FE
:101F44001B6843B9002229466068FFF738FF60B375
:101F5400C5F8009000260020FFF78AFB56B32B68D3
:101F64001B6923BB2F1D10223946686902F0ABF8A8
:101F740080B104F10C0A504604F1080800F0F4FEA4
:101F840023465A463946404600F0F4F8504600F0DD
:101F9400C1FE6F6185F818902046FFF759FF01468E
:101FA40040B12068FFF7B3FFC5E70126D3E72B68EC
:101FB4001F69D8E7BDE8F88FC11F000010B50C46B3
:101FC400017871B92268137E10680133007BDBB29B
:101FD400984207D913762046FFF73AFF014608B91D
:101FE40010BD03212068FFF792FF20460121BDE8C0
:101FF4001040FFF797BF0000F8B50C4A03460446AB
:1020040008300D4600F0B6F8064660B904F10C003D
:1020140000F080FE276895E80F003C4644F8046B06
:1020240084E80F007C613046F8BD00BFC11F00008A
:1020340037B502AB054643F8041D40681946FFF75F
:1020440067FE044618B901462846FFF76BFF204691
:1020540003B030BD38B5084C04F108030546002828
:1020640018BF1C4623682BB11A6822605B68284697
:102074009847F7E738BD00BF3407002020B9054B67
:1020840001225A70FFF7E6BF012802D1014A90707D
:10209400F8E770472C07002038B5094C23786BB952
:1020A40008486360A3602361E36000F04BF90546D0
:1020B40000F056F901232370284638BD8525FBE737
:1020C4002C0700208120000038B5134CA378054666
:1020D40003F0FF0073B115B16B680120984700202D
:1020E400FFF7C4FAE3680133E3600020BDE8384039
:1020F400FFF7BEBAFFF7BAFA25B1226913463BB916
:102104002A602561E368002BECD100F03DF9E9E792
:102114009D42F7D01B68F2E72C0700201FB5037817
:102124008DF8003003798DF8043043798DF805304B
:1021340083688DF80630C3688DF80730036902930D
:1021440043690393054A064B684653F8213052F815
:102154002110984705B05DF804FB00BF400700203C
:1021640048070020024B4FF4807043F001031847E6
:10217400904400002DE9F047924690F80080304AE0
:1021840042F828A02F4A42F828304B7B81460C465F
:10219400BBB30868496882008B0002F1A04203F1D6
:1021A400A04340F20C65C2F800570126C3F800575B
:1021B4004FF0A04506FA00F006FA01F1C5F808054B
:1021C400C5F8081540F20D61C2F80017C3F80017EE
:1021D400FFF7C8FF0027D5F81025636822FA03F338
:1021E400DB071BD56FB1636801254FF0A04605FAE4
:1021F40003F3C6F80C35FFF7B5FF63689D40C6F8D6
:102204000855BAF1000F43460F4A214609F104006C
:1022140008BF0022BDE8F04700F004BD236806FAB9
:1022240003F3C5F80C35FFF79DFF236806FA03F3A3
:10223400C5F808350137FFF795FF092FCBD1D2E751
:102244004807002040070020212100001FB5037823
:102254008DF8003043680193037A8DF80830C36821
:102264000393054A054B684653F8213052F8211070
:10227400984705B05DF804FB500700205407002080
:102284001FB503788DF800304368019383688DF897
:102294000830C3680393054A054B684653F8213058
:1022A40052F82110984705B05DF804FB5007002050
:1022B40054070020F0B5194B067891F81DC043F877
:1022C4002620174B96460A6943F82620154B03F837
:1022D40006C00C4607460FCC89B06D460FC594E87E
:1022E4000F0085E80F000496BCF1000F0AD0BEF180
:1022F400000F0D4A694608BF0022381D01F0B4F8EA
:1023040009B0F0BDBEF1000F084A694608BF0022BB
:1023140007F10C0000F0A6FEF2E700BF540700200E
:102324005007002058070020512200008522000099
:1023340000F180400023036082B003680193019B95
:1023440002B07047054A13792BB90121106011714D
:102354005371184670478520704700BF5C07002002
:10236400084B1A68D20706D4E02283F8002301221E
:10237400C3F880211A604FF080430122C3F8182566
:10238400704700BF00E100E038B54FF48270FFF7FA
:10239400CFFF4FF080430222C3F804230A4AD068D7
:1023A40040F08073D360094B1C6844F0010119604C
:1023B4005D685968491BB1F50A5FFAD31C60044B88
:1023C400D06001221A6038BDF0ED00E0001000E09A
:1023D40008000040124B1B6810B573B14FF48070B5
:1023E400FFF7A6FF4FF080430122C3F808230D4BEB
:1023F400587910B95A711B6898470B4B1B6873B115
:102404004FF48270FFF794FF4FF080430222C3F829
:102414000823044B01201B68BDE81040184710BD79
:10242400000100405C0700200401004000F18040EE
:1024340000F5C040002382B0036003680193019B50
:1024440002B07047800000F1A040D0F8003723F4B8
:102454004033C0F80037D0F8003743EA0141C0F8F0
:1024640000177047054B4FF0FF32072843F8202030
:1024740084BF1B1883F84820704700BF64070020FE
:1024840010B5174C94F8583043BBFF21E2180133C0
:10249400202B82F83010F9D10021C8B2FFF7E2FFF7
:1024A40001310C29F9D1002104220E4801F06AFE01
:1024B4000D4BE02283F806234022C3F880214FF419
:1024C400BE701A60FFF7B2FF084B4FF00042C3F82A
:1024D4000423012384F85830002010BD082010BDC7
:1024E40064070020B807002000E100E0006000401D
:1024F400034B93F85800003018BF0120704700BF09
:1025040064070020F0B5374D2B1893F93030002BB9
:1025140065DA8E78C6F34006002E0BBF082300232D
:102524000C240824A34201D10420F0BD55F82370E3
:10253400013740D12F185CB287F8304045F823208A
:1025440016B92B4483F848008B785A0713D4DE0756
:1025540033D5830003F1A043D3F8002722F002020D
:10256400C3F80027204EC20800F007070123BB4030
:10257400B75C3B43B3548B780A7813F0020325D03D
:10258400A30003F1804303F5C0430002D3F8101500
:1025940021F4473121F44071C3F810151204D3F823
:1025A400101500F4F85002F4403210430843C3F805
:1025B40010050020F0BD0133B4E74A7800F5E0735C
:1025C4004FF0A046920046F82320CBE7083C2C4469
:1025D40094F8500040EA821284F85020E9E7082079
:1025E400F0BD00BF64070020B807002038B5204CB8
:1025F400251895F93020072A18DD224492F848302E
:102604009B09032B0DD14FF0A043D3F81035C340E1
:1026140013F0010F0CBF02210321BDE83840FFF77E
:1026240011BF012B14BF03210221F6E7D3B2072BFC
:102634001CD8930003F1804303F5C043D3F810057D
:1026440040F00100C3F8100502F14000800080B2A0
:10265400FFF7ECFE51B195F9303054F823302BB12B
:10266400012303FA02F2034BC3F8042338BD00BF6D
:1026740064070020006000404FF0A043D3F81035F9
:1026840023FA00F000F00100704700002DE9FF4735
:1026940000245A4A5A4E5B4D01940121A2F5C040D0
:1026A40052F8043B012B80B206D1D6F804330B4216
:1026B40002D0FFF7BBFE0C43AA424FEA4101EDD121
:1026C400514B1B68012B0AD14FF4BE70FFF7AEFECD
:1026D4004FF0A04344F00044D3F81035019314F0B4
:1026E400FF0F38D1002C80F2858000230293DFF89D
:1026F4001C914FF0FF33039301260024A0464FF0B2
:10270400A04709EB080393F95020531C61D0D2B2BF
:1027140022F0C005E90804A8084402F0070310F8F1
:1027240004EC06FA03F31EEA030F52D009EB050E7C
:1027340092099EF930E059F82EA0BAF1000F26D183
:10274400032A46D10DF1080C1CF801E04EEA030EF1
:102754000CF801E01DE02D4F01260025344210D075
:10276400AB0003F1804303F5C043D3F81005D3F85D
:10277400101557F8253023B1C1F30141C0F30420EB
:1027840098470135082D4FEA4606E7D1AAE7032A00
:10279400D8D005F5E07110F80C0C57F82110184248
:1027A400C1F3014105D0022913D1032A0BD11146EB
:1027B40004E003290DD1032A05D102212846FFF79D
:1027C40041FE0134E4B2BAF1000F02D011462846AA
:1027D400D04708F10108B8F1040F92D154B14FF079
:1027E400A043019AD3F81035934203D00193029B7E
:1027F400039382E704B0BDE8F08700BF00610040A6
:1028040000600040206100407C61004064070020BB
:10281400014B1B68184700BFC007002038B50A4B9E
:1028240098420D460CD10020FEF720FF074B1C797F
:1028340014B901221D601A710020FEF719FF0CB9AA
:10284400002038BD112038BD00200040C007002002
:10285400034B984201BF034B00221A601A71704760
:1028640000200040C00700200023435082B043589A
:102874000193019B02B070472DE9F8430D789DF850
:1028840020609DF8249004460F46984675B9157843
:10289400AB1B5D425D41D0F82431F3B14FF492712A
:1028A400FFF7E2FF012363613B700BE04FF4927189
:1028B400FFF7DAFF4FF48E71FFF7D6FF4FF4847100
:1028C400FFF7D2FF002D4FD0D4F8043123B34FF4D7
:1028D40082712046FFF7C8FF1DE0D0F81C3103B316
:1028E4004FF48E71FFF7C0FFD0F8241119B14FF4E3
:1028F40092712046D4E713789E4207D918F8033022
:10290400C0F81C35137801331370DBE70123B9F1E8
:10291400000F04D0C36100252846BDE8F883436155
:10292400D0E7D0F80831002BCCD04FF48471FFF7F6
:102934009BFFD0F82431002BD9D113789E42C1D902
:10294400D0F8181508F8031013780133DBB21370AC
:10295400721E934205D10223C0F800320123236280
:10296400B0E79E42FAD1ADE70125D5E72DE9FF474F
:102974000C4605461F464FF4827142F210732046FE
:10298400164603939DF83080FFF76EFF4FF4927163
:102994002046FFF769FF4FF48E712046FFF764FF6E
:1029A4004FF484712046FFF75FFF0023C4F8003220
:1029B40085F82E3085F82B3001232362A36095F827
:1029C4002E2097421FD9B35CC4F81C3595F82E30DD
:1029D400013385F82E302B68E3B905F12E0A05F191
:1029E4002B09039B002B1FDC95F82B3053BB0020D5
:1029F400039B002B15DC0023C4F800350523C4F821
:102A0400003503200DE0B8F1000F01D0E361E2E7E7
:102A14006361E0E740F28623AB60AB68C4F804333B
:102A2400002004B0BDE8F0878DE8800133465246AB
:102A340049462046FFF720FF0028D5D0039B013BE1
:102A44000393CEE7D4F8C434C4F8C434002BCED0F6
:102A540013F0010F14BF4FF40240032048F2012287
:102A640013F0020F18BF104613F0040F48F20223AC
:102A740018BF1846BCE72DE9FF470C4605461F461C
:102A84004FF4827142F21073204692460393FFF78B
:102A9400EBFE4FF492712046FFF7E6FE4FF48E7181
:102AA4002046FFF7E1FE4FF484712046FFF7DCFE79
:102AB4000023012F2E6885F82E3085F82B3008BFAF
:102AC40002224FF001030CBFC4F80022C4F8003204
:102AD40023622360AEB905F12E0905F12B08039B8F
:102AE400002B18DC95F82B301BBB0020039B002B1C
:102AF4000EDC0023C4F800350523C4F80035032098
:102B040006E040F28623AB60AB68C4F804330020CF
:102B140004B0BDE8F0870196009753464A46414603
:102B24002046FFF7A9FE0028DCD0039B013B03935A
:102B3400D5E7D4F8C434C4F8C434002BD5D013F08A
:102B4400010F14BF4FF40240032048F2012213F096
:102B5400020F18BF104613F0040F48F2022318BFE7
:102B64001846C3E7F0B52C4C2C4894F8293089B0AA
:102B740004F12E02019394F828300093636A04F15F
:102B84002B01FFF779FE2646D8B994F82B70FFB9CC
:102B9400207B831E012B1BD8626AA3699A4217D13A
:102BA400216AE269237D6262C1F34011032884F83B
:102BB400283084F8291006D1009120461749FFF7E0
:102BC400D5FE09B0F0BD15492046FFF754FFF8E7DC
:102BD400134D0FCD03AC0FC42B682360C7B10F4A4C
:102BE400D2F8C434C2F8C43499070DD501238DF842
:102BF4000830002386F82C30336A5B07E1D433684D
:102C0400716802A89847DCE75A07F2D50223EEE779
:102C14008DF80870EDE700BFC807002000300040C1
:102C2400D40700202DE9F84F0579374C4FF03008D0
:102C340008FB05F804EB08069B4696F82A30814603
:102C44000F469246002B59D130490068FFF7E6FD44
:102C5400002856D139687B7B86F82F3001F5E07265
:102C64004FF0A043B060C6F804B086F82C0086F894
:102C74002D0040F20C6644F808A043F822607A68FC
:102C840002F5E07E43F82E60D9F80030C3F8081549
:102C9400C3F80C25BA68C3F82425BAF1000F25D06F
:102CA4001A0B53B2002B397BB4BF194E03F16046A3
:102CB4004FEA53134FEA4111B4BF02F00F0706F570
:102CC40061464FEA8303B4BFC9B2C9B203F160439A
:102CD400B4BFF15586F8001303F5614302F01F02F7
:102CE400012101FA02F2C3F880211A60302303FBA8
:102CF4000544012384F82A30BDE8F88F0820BDE894
:102D0400F88F1120BDE8F88FC8070020692B000058
:102D140014ED00E0026803790521C2F80015044AA5
:102D2400302101FB0323022283F82A20704700BFCD
:102D3400C807002003680A490279C3F80813D3F8C6
:102D4400001221F00301C3F800120021C3F800159A
:102D5400044B302101FB0233012283F82A207047FF
:102D640086420400C807002070B504791A4D302348
:102D740063430646EB5863B103681B0B5AB2012147
:102D8400520903F01F0301FA03F32032134941F8F7
:102D940022303046FFF7CEFF3068FFF759FD30236D
:102DA40003FB045393F82F307BB93068D0F808350F
:102DB4004FF0A04203F5E073022142F82310D0F84B
:102DC4000C3503F5E07342F82310302303FB04545D
:102DD400002384F82A3070BDC807002000E100E019
:102DE4002DE9F74F2E4D90F80480D0F800902D4B2C
:102DF400C9F80833302404FB08540E4694F82C30E8
:102E0400174603F0FF0B33B1A368C9F8043311204C
:102E140003B0BDE8F08F82F00403C3F3800384F8A9
:102E24002C3022628C46BCE80F0004F10C0EAEE894
:102E34000F00DCF80030CEF80030736884F82830D6
:102E4400F26862627378C9F88835337808EB480A07
:102E5400012B05EB0A1A1BD0C3B9C7F34017302363
:102E640003FB0853494683F8297033790097504689
:102E7400FFF77CFD302303FB08F805EB080255F847
:102E84000830002BC4D182F82C30C1E70127E6E7D3
:102E940084F829B0337949465046FFF7ECFDE9E759
:102EA400C8070020864204000023435082B04358E0
:102EB4000193019B02B070470A4610B54FF48E711E
:102EC400FFF7F2FF136A9168C95C136A0133136256
:102ED400C0F81C1510BD8B690A4610B54FF48471F7
:102EE40023B9FFF7E1FFD0F8183510BDFFF7DCFF79
:102EF400536AD168D0F81805C854536A0133536231
:102F040010BD00001FB501238DF80030044B029062
:102F14000191684693E80600904705B05DF804FB0C
:102F2400F807002030B54D4AD2F8043313F4007F7B
:102F340085B015464FD0D2F82431002B4BD04FF436
:102F440092711046FFF7B0FF4FF40173C2F80833D3
:102F5400434B93F8291009B9012151603F490222DA
:102F64008DF80020D1F88024C1F8802403929A6956
:102F74000292DA68019200229A61DA61684693E863
:102F8400060090473548D0F81C315BB134490A6AD1
:102F94004B699A420A464CD291F82830002B48D10A
:102FA400FFF78AFF2D4AD2F8443193B14FF4A2714E
:102FB4001046FFF779FF2A4B93F8291009B1012134
:102FC40011609A692AB100229A61586AD968FFF798
:102FD40099FF05B030BDD5F804335B07D2D5D5F8D9
:102FE4000831002BCED01E4C1C482146FFF773FF3E
:102FF400636AA2699A422346C4D1E26952B1236941
:10300400E168E3600023606AA261E3616362FFF741
:1030140079FFB7E794F829200AB901226A600F4AB8
:103024004FF40171C2F8081300229A61586AD968F2
:10303400EDE74FF48E710948FFF736FF5169002917
:10304400B0D00023029191688DF800300191536152
:10305400684692E80A009847A4E700BF00200040B1
:10306400F80700202DE9F8435B4B047991462C22A4
:1030740002FB0432064692F82A200D469846002A9E
:1030840040F0A58055490068FFF7C8FB07460028B3
:1030940040F09F8029683368481C0BD04FF0A04053
:1030A40001228A40C0F8082501F5E0724FF0030EB2
:1030B40040F822E06868421C1FBF00F5E0724FF040
:1030C400A04E4FF0000C4EF822C0AA6995F814E007
:1030D400C3F824256A7DBEF1010F4EEA0202C3F84B
:1030E4006C25C3F81405C3F80C151DD1AA68511C2E
:1030F4001FBF02F5E0714FF0A0404FF0000E40F802
:1031040021E0E968481C0BD04FF0A04E0120884014
:10311400CEF8080501F5E0704FF0030C4EF820C01E
:10312400C3F80815C3F810252C23634308EB0302E6
:10313400C2F804902A6948F80320B9F1000F33D08B
:103144004FF48E7130682D7FFFF7AEFE30684FF478
:10315400A271FFF7A9FE3268214BC2F80433120BA7
:1031640053B2002BA8BF03F160404FEA53134FEA58
:103174004511BABF1B4802F00F0500F561404FEA44
:103184008303B4BFC9B2C9B203F16043B4BF4155AC
:1031940080F8001303F5614302F01F02012101FAD4
:1031A40002F2C3F880211A6033680422C3F80025B0
:1031B4002C2303FB048300229A61DA6183F829201B
:1031C4005A61012283F82A203846BDE8F88308278B
:1031D400FAE71127F8E700BFF8070020292F0000BD
:1031E4008000020014ED00E0F8B5047900682D4D6C
:1031F4000023C0F800352C2303FB04535B6873B130
:10320400294BC0F80833020B53B201215B0902F0C9
:103214001F0201FA02F22033244941F82320D0F896
:103224000C65D0F81415D0F80835D0F810254FF0F7
:10323400FF37BE42C0F8147518BF06F5E076C0F833
:103244000C75C0F80875C0F810751EBF4FF0A04784
:103254004FF0020E47F826E04E1C1FBF4FF0A04669
:1032640001F5E071022746F82170511C1FBF4FF091
:10327400A04102F5E072022641F822605A1C1FBFE9
:1032840003F5E0734FF0A042022142F82310FFF748
:10329400DFFA2C2303FB0454002384F82A306360F0
:1032A400F8BD00BFF80700208402020000E100E03E
:1032B4002DE9F843234F06794FF02C0909FB0674D6
:1032C40080466569002D37D16261A16025624FF4A3
:1032D4008E71006884F82850FFF7E6FDD8F80000E6
:1032E400012383602146FFF7E7FD6368A14633BBF2
:1032F400D8F80050226A63699A4212D3D8F8003091
:10330400D3F81C21002AFBD00122DA6000202C23F0
:1033140003FB067600237361BDE8F88394F8283034
:1033240043B9D5F81C31002BF8D049462846FFF79D
:10333400C3FDDFE70F20EAE71120BDE8F883284644
:10334400BDE8F883F80700200023435082B04358B7
:103354000193019B02B070471FB501238DF8003023
:10336400054B8DF808000191684693E806009047E4
:1033740005B05DF804FB00BF240800207FB5384A7F
:10338400D2F82461002E49D010464FF49271FFF711
:10339400DBFF02238DF80030D2F88034C2F8803489
:1033A4000393D2F83C358DF808302E4BDA6801923D
:1033B40000229A61DA61684693E806009047284A39
:1033C400D2F8443173B14FF4A2711046FFF7BCFF39
:1033D400244B996931B100219961D2F83C05D9682F
:1033E400FFF7BAFF1E4AD2F82031ABB14FF4907107
:1033F4001046FFF7A9FF1B4B596969B1D2F84C1568
:103404008DF80810002299688DF8002001915A6106
:10341400684693E80600904704B070BDD2F81031B6
:10342400002BCCD04FF488711046FFF78DFF0D4B65
:10343400D2F83C0599698842C1D1DC696CB1D2F8F3
:103444000052D96825F02005C2F800521A699C611F
:10345400DA60DE61FFF780FFB1E79C61D968F9E7C4
:1034640000200040240800202DE9F8435F4B067932
:103474009146242202FB0632044692F820200D468F
:103484009846002A40F0AD8059490068FFF7C6F914
:103494000746002840F0A78029682368481C0BD001
:1034A4004FF0A04001228A40C0F8082501F5E072DF
:1034B4004FF0030E40F822E06868421C1FBF00F57D
:1034C400E0724FF0A04E4FF0000C4EF822C0AA69F3
:1034D40095F814E0C3F824256A7DBEF1010F4EEA85
:1034E4000202C3F86C25C3F80C15C3F814051DD1EA
:1034F400AA68511C1FBF02F5E0714FF0A0404FF0C5
:10350400000E40F821E0E968481C0BD04FF0A04EB3
:1035140001208840CEF8080501F5E0704FF0030C57
:103524004EF820C0C3F80815C3F8102524237343AC
:1035340008EB0302C2F804902A6948F80320B9F1A1
:10354400000F3DD04FF4887120682D7FFFF7FCFEFB
:103554004FF490712068FFF7F7FE4FF492712068E2
:10356400FFF7F2FE20684FF4A271FFF7EDFE226828
:10357400204BC2F80433120B53B2002BA8BF03F143
:1035840060404FEA53134FEA4511BABF1A4802F09C
:103594000F0500F561404FEA8303B4BFC9B2C9B255
:1035A40003F16043B4BF415580F8001303F5614350
:1035B40002F01F02012101FA02F2C3F880211A600D
:1035C40023680822C3F80025242303FB0683002272
:1035D4009A61DA615A61012283F820203846BDE8F5
:1035E400F8830827FAE71127F8E700BF240800202A
:1035F400813300001003020014ED00E0F8B50479F3
:1036040000682D4D0023C0F80035242303FB045328
:103614005B6873B1294BC0F80833020B53B2012124
:103624005B0902F01F0201FA02F22033244941F837
:103634002320D0F80C65D0F81415D0F80835D0F84C
:1036440010254FF0FF37BE42C0F80C7518BF06F5C1
:10365400E076C0F81475C0F80875C0F810751EBF80
:103664004FF0A0474FF0020E47F826E04E1C1FBF54
:103674004FF0A04601F5E071022746F82170511C75
:103684001FBF4FF0A04102F5E072022641F822600C
:103694005A1C1FBF03F5E0734FF0A042022142F809
:1036A4002310FFF7D5F8242303FB0454002384F8E4
:1036B40020306360F8BD00BF24080020100302001E
:1036C40000E100E001F06043B3F1005F2DE9F04157
:1036D400074632D11D4B0679242505FB063598464D
:1036E4006C696CBB6A61A96000684FF49071FFF764
:1036F4002BFE4FF4AC713868FFF726FE3B686A690D
:10370400A968C3F84415C3F8482501229A606A6879
:10371400CAB9D3F82011D3F8582149B9002AF8D0EE
:103724000F20242303FB068600237361BDE8F08188
:10373400002A14BF0F200020F3E71020BDE8F08119
:103744001120BDE8F0812046BDE8F0812408002066
:103754000220FDF74BBB000008B5094B1B7853B1A1
:103764000020FDF719FB0120FDF716FB0320BDE83F
:103774000840FDF711BBBDE80840FDF719BB00BFC9
:1037840049080020F8B5764C237805461BB1002380
:103794002370FFF7E1FF172D00F28380DFE805F0C7
:1037A4000C13133F5060717B8388838890949494A6
:1037B4009494BEC2C9D0DADAFFF7CEFF694B002475
:1037C4001C702046F8BD0020FDF7CCFAF8B10020AB
:1037D400FDF7E2FA022D0CBF4FF4E1614FF47A6178
:1037E400604B1D704FF400404FF4FA740025E0FB69
:1037F40001454FF47A7200232046294600F09EFBCF
:10380400002201465848BDE8F840FDF7C9BEFDF75F
:10381400B7FA022D0CBFC8214FF4C871E0E70020AD
:10382400FDF7A0FA40B10020FDF7B6FA4FF4487155
:1038340003224C4B1A70D5E7FDF7A2FAC821F7E72B
:103844000020FDF78FFA30B10020FDF7A5FA4FF400
:103854007A610422EDE7FDF793FA4FF4C871F8E7B3
:103864000020FDF77FFA48B10020FDF795FA3D4BA3
:1038740005221A7041F69A110022C3E7FDF780FA77
:10388400F5E70020FDF7B2FA364B06221A70002243
:1038940040F6CD41B6E70020FDF772FA0722314B1E
:1038A4001A7000248DE701202070FDF79FFAEEE7DF
:1038B40001202070FDF79AFA00224FF48041A1E71D
:1038C400FDF785FA0C22EAE72848294EFDF7ACFEFD
:1038D400D5F1110504461CD0D8B9012D13D0C82345
:1038E4005D434FF4FA7000214FF400474FF47A72AD
:1038F4000023C7FB050100F021FB224601461B48BB
:10390400FDF74EFE04460220FDF73AFA0123337018
:1039140057E70220FDF740FA0023F8E7FFF71CFF02
:103924001222BCE7FFF718FF0020FDF729FA132243
:10393400B5E7FFF711FF0120FDF722FA1422AEE7E5
:10394400FFF70AFF0020FDF71BFA0120FDF718FA24
:103954001522A4E7FDF73BFA024B1D70A1E700BF57
:10396400BC080020C40800208C0800204C0800205B
:10397400490800202DE9F04781460D46FDF748FA35
:103984000328044631D8012D04D022D3022D2ED091
:10399400BDE8F087194D47003A18A918AE5C4A787B
:1039A40052B1DFF86880164842464FF40041FDF7F3
:1039B400F7FD08B988F800903B192B449A78114B0D
:1039C4001A5596B1104B1B687BB13046BDE8F047E1
:1039D40018470B48FDF728FE084B04EB4402134438
:1039E4009E78084B1B5DB342EBD0BDE8F087034BD8
:1039F40000EB40041C446678E3E700BFAC080020F9
:103A04006C080020C5080020C008002048080020D9
:103A140002210078FFF7AEBF044B1B68DB0703D518
:103A2400034B1878FFF7AEBE704700BFB8080020FC
:103A3400C408002038B51C4B18601C4B10F002045D
:103A4400054619601AD01A4B1A480E221A700F2212
:103A5400DA7010229A7111225A72042140F26662BD
:103A6400FDF7AAFA044648B9FDF7F8FA044628B95E
:103A74000146114A1148FDF781FD0446EB0711D5B3
:103A84000120FDF7D7F96CB921460D4A0D48FDF721
:103A940075FD044630B90C4A0C480121BDE8384094
:103AA400FDF76CBD204638BDB8080020C0080020D2
:103AB400AC080020B8440000153A0000DC440000C3
:103AC4001D3A0000E044000055370000D8440000CF
:103AD4007047704710B502460D4C40B123880D491C
:103AE4001B0443F00200BDE81040FCF77DBF2088B2
:103AF4000949000440F00300FCF772FF20880749DD
:103B04000004012240F00300BDE81040FCF776BF3A
:103B1400180000204F45000074450000C90800202B
:103B240008B50A4A0A480121FDF728FD08B1FDF746
:103B3400ABFA002240F266610648FDF731FD18B188
:103B4400BDE80840FDF7A0BA08BD00BFD73A0000A1
:103B5400FC4400001409002008B54FF40041002083
:103B6400FCF77AFD08B1FDF78FFABDE80840FCF7D1
:103B7400A1BC00001FB54FF0A0430322C3F8602787
:103B84004FF08072C3F80C25FFF7E6FF0120FDF724
:103B940051F9FEF781FA08B1FDF776FA0020FEF735
:103BA40093FAFDF7B9FC08B1FDF76EFA1E4902203D
:103BB400FFF740FF08B1FDF767FAFEF761F808B1B7
:103BC400FDF762FA194B1A491888000440F0050001
:103BD400FCF706FFFCF7A6FD01460028FAD11022E7
:103BE400684600F0CFFA0B214FF0CC730C228DE81D
:103BF4000E001048072369468DF80C30FEF7FCF9D7
:103C040008B1FDF741FAFFF78BFF0B490948FEF7AE
:103C14000FFA08B1FDF738FAFEF748F8FCF782FD11
:103C24000028FBD1F8E700BFD53A000018000020B7
:103C340000450000E44400004C000020094B1B78C0
:103C4400062B0CD1084B1B681A0708D1074B1868C0
:103C540000F0F000A0F130035842584170470020B2
:103C6400704700BFE00F00F0E40F00F0E80F00F031
:103C74000C4B1B78062B10D10B4B1B681A070CD16D
:103C84000A4B186800F0F003302B08D000F0E00075
:103C9400A0F140035842584170470020704701206A
:103CA400704700BFE00F00F0E40F00F0E80F00F0F1
:103CB40008B5FFF7DDFF28B17F4B804A1B68C3F3CB
:103CC40004231360FFF7BAFF10B17D4B7D4A1A60DD
:103CD400FFF7CEFF28B17C4B7C4A1B68C3F3423309
:103CE4001360FFF7ABFF20B1794AD36823F08073E8
:103CF400D360FFF7BDFF40B14FF080430022C3F80B
:103D04000C21C3F81021C3F83825FFF797FF10B131
:103D1400704B03221A60FFF791FF40B16E4B0522EE
:103D24001A6001229A6700229A603F225A606B4B04
:103D34001B78062B09D16A4B1B68190705D1694BFF
:103D44001B6803F0F003502B67D0FFF791FF28B1F5
:103D5400654B664A1B6803F04F031360FFF788FF47
:103D640048B14FF08043D3F80024D20744BF6FF02A
:103D74000102C3F800245E4B1B68062B04D15D4B83
:103D84001B68062B00F091805B4AD2F8883043F41C
:103D94007003C2F88830BFF34F8FBFF36F8F4FF0BB
:103DA4001023D3F80022002A03DBD3F80432002BBB
:103DB4002FDA524B0122C3F80425D3F80024002A39
:103DC400FBD04FF010221521C2F80012D3F80024C2
:103DD400002AFBD04FF010231522C3F80422474BCE
:103DE4001A46D3F800140029FBD00021C3F80415A7
:103DF400D2F80034002BFBD0BFF34F8F3E49404B29
:103E0400CA6802F4E0621343CB60BFF34F8F00BF74
:103E1400FDE73C4B3C4A1A6008BD4FF080523B4BD7
:103E2400D2F80414C3F82015D2F80814C3F82415E2
:103E3400D2F80C14C3F82815D2F81014C3F82C15B2
:103E4400D2F81414C3F83015D2F81814C3F8341582
:103E5400D2F81C14C3F84015D2F82014C3F8441542
:103E6400D2F82414C3F84815D2F82814C3F84C1512
:103E7400D2F82C14C3F85015D2F83014C3F85415E2
:103E8400D2F83414C3F86015D2F83814C3F86415A2
:103E9400D2F83C14C3F86815D2F84014C3F86C1572
:103EA400D2F84424C3F870254FE7194A136843F441
:103EB4008063136068E700BF2403001040350140AD
:103EC40074C007400DF0ADBA440200103C05004038
:103ED400F0ED00E0A005004010560040E00F00F0B7
:103EE400E40F00F0E80F00F058020010E40E004068
:103EF400300100103401001000ED00E000E001404A
:103F04000400FA05640000200090D00300C00040C3
:103F14003C170040B2F120030AD5C2F1200301FA94
:103F240002F120FA03F341EA030100FA02F07047B8
:103F340000FA03F14FF00000704700BF53EA020C8F
:103F440061D02DE9F04BB3FA83F51E0007BFB2FA36
:103F540082F502FA05F403FA05F41646C5F12005C4
:103F64001EBF22FA05F73C43203556EA044C4FEABB
:103F7400144418BF0134A3464FF00009C8469042C8
:103F840071EB030C39D3094207BFB0FA80F700FA8A
:103F940007F6B1FA81F701FA07F6C7F120071EBF49
:103FA40020FA07FC46EA0C062037B6FBFBFC7F1B15
:103FB400103F07F01F04C4F120060CFA04F42CFA95
:103FC40006F644BF34460026202FA4BF264600240C
:103FD40054EA060C08BF012418EB040849EB06094F
:103FE400A4FB027CC01B06FB02CC04FB03CC71EBDC
:103FF4000C01904271EB030CC5D20B4602464946B4
:104004004046BDE8F08BB2FBF3F200BF7F2805D831
:10401400034B185C034B5B5C1840704700207047EF
:104024008C4500000C460000A0F16103192B98BFD9
:1040340020387047A0F14103192B98BF20307047F6
:104044007F2805D8034B185C034B5B5C1840704712
:10405400002070478C4500000C460000A0F161036D
:10406400192B98BF20387047A0F14103192B98BF32
:10407400203070477F299ABF017001206FF02E0015
:1040840070475AB10A787F2A0AD800B10260002129
:1040940019605960501A18BF0120704700207047FA
:1040A4006FF02E007047000008B5034B5B689B68F7
:1040B4001B68984708BD00BF6800002008B50921A7
:1040C400FFF7F2FF08BD8AB370B4144640EA010357
:1040D40013F0030F12D10F2A10D902680B689A4209
:1040E4000CD1021D0B1D10461946043C042C05D9A5
:1040F4000432043306680D68AE42F4D0013C10D09B
:1041040002780B789A420CD1431C4A1C044418468A
:104114001146A34205D00133013206780D78AE4230
:10412400F5D000780B78C01A70BC70470020704737
:10413400844640EA010313F0030F18D18446202A71
:104144000BD32DE9F007B1E8F807A0E8F807A2F1CE
:104154002002202AF7D2BDE8F007042A07D351F839
:10416400043B40F8043BA2F10402042AF7D2002ADB
:1041740005D011F8013B00F8013B013AF9D1604642
:10418400704700BF8446002A2DD010F0030F04D0DE
:1041940000F8011B013A26D0F7E7C9B241EA012130
:1041A40041EA0141202A12D3A2F120022DE9F003B1
:1041B4000B460C460D460E460F4688468946A0E837
:1041C400FA03203AFBD2BDE8F00320320BD0042AD4
:1041D40005D340F8041B043A05D0042AF9D200F8A8
:1041E400011B013AFBD16046704700BF00F1010199
:1041F40010F0030F11D010F8012B002A23D010F077
:10420400030F0AD010F8012B002A1CD010F0030F62
:1042140003D010F8012B002A15D02DE970004FF0BF
:1042240001324FF0803350F8044BA4EB020525EA29
:1042340004051D4000D1F6E7A0F1040070BC10F89D
:0C424400012B002AFBD1A0EB0100704709
:1042500096440000000000009C44000000000000A4
:10426000A344000000000000A7440000000000007C
:10427000AB44000000000000B0440000000000005B
:104280004143000000000303454300000000000319
:104290007D440000000000007444000000000000A5
:0842A00034450000000000039A
:1042A800C00000208801002090010020C8000020E4
:0842B8001C00002018000000AA
:1042C00008090020F008002005000000040000009C
:0842D00001000000280000209D
:1042D80000000000000000000000000000000000D6
:1042E80000000000000000000000000000000000C6
:0C42F800000000000000000000000000BA
:10430400FFFFFFFFFFFFFFFFFFFFFFFFFFFFFFFFB9
:1043140000000000000000000000D60107010000BA
:104324002104000085040000D10300004261636B96
:10433400656E647320666C75736865640061707083
:104344000062616C6C6F632E6C6F675F6D656D707E
:104354006F6F6C00AB430000D44300008B4300003C
:10436400DC430000E4430000EC430000F44300009D
:10437400FC43000004440000202530327800202053
:1043840020007C002563001B5B313B33316D00252D
:10439400734C6F67732064726F7070656420282596
:1043A400642925730D0A001B5B306D002573003CE6
:1043B40025733E2025733A20000000000000000011
:1043C4002E4400000C440000144400001944000072
:1043D4001B5B313B33306D001B5B313B33326D0073
:1043E4001B5B313B33336D001B5B313B33346D005E
:1043F4001B5B313B33356D001B5B313B33366D004A
:104404001B5B313B33376D007761726E696E6700F9
:10441400696E666F0064656275670011121314009B
:10442400BC050020466174616C206572726F720075
:1044340053797374656D20726573657400000000B0
:104444000000000000000000000000000338FDD858
:10445400704730313233343536373839414243448A
:104464004546000050420000504200000400000095
:104474007077725F6D676D7400636C6F636B0000BF
:104484000000000000000000000000000338FDD818
:104494007047434C4F434B004750494F54450050DD
:1044A40052530054574900554152540055415254F7
:1044B400450000000D000300793900000E000300E0
:1044C400793900000F00030079390000100003005F
:1044D400793900004C0800206C0800208C0800206A
:1044E400D4080020C042000000000000003000405A
:1044F4000000000000000000140900200D0A5457B9
:1045040049206D6173746572206578616D706C65A6
:1045140020737461727465642E200D0A004C454644
:104524005400524947485400444F574E00555000D8
:1045340071756575652E6D5F6E72665F7477695F00
:104544006D6E67725F717565756500726561645F34
:10455400746830365F7265676973746572735F631C
:1045640062202D206572726F723A20253032580015
:10457400544830363A0000006000002001800100F9
:10458400C9080020018100002020202020202020B4
:1045940020682828282820202020202020202020AF
:1045A400202020202020202048101010101010104F
:1045B4001010101010101010848484848484848457
:1045C4008484101010101010108181818181810168
:1045D40001010101010101010101010101010101C7
:1045E4000101011010101010108282828282820256
:1045F4000202020202020202020202020202020297
:1046040002020210101010200007032004170201F8
:104614000857104080000000C04700008446000096
:104624009847000053756E004D6F6E005475650019
:1046340057656400546875004672690053617400DC
:10464400000000004A616E00466562004D61720020
:10465400417072004D6179004A756E004A756C00B4
:1046640041756700536570004F6374004E6F7600A8
:104674004465630000000000414D00504D000000FF
:10468400BC470000B8470000B8470000B847000026
:10469400B8470000B8470000B8470000B84700001A
:1046A400B8470000B8470000FFFFFFFFFFFFFFFF10
:1046B400FFFFFFFFFFFF0000F84600002846000050
:1046C40034470000484600007C460000DC460000F9
:1046D4008C470000E8460000256D2F25642F2579BE
:1046E4000000000025612025622025652025542036
:1046F4002559000053756E646179004D6F6E6461D5
:10470400790054756573646179005765646E6573E7
:1047140064617900546875727364617900467269E2
:1047240064617900536174757264617900000000FA
:104734004A616E756172790046656272756172795B
:10474400004D6172636800417072696C004D61795B
:10475400004A756E65004A756C790041756775731A
:10476400740053657074656D626572004F63746F95
:10477400626572004E6F76656D62657200446563B2
:10478400656D62657200000025483A254D3A25534F
:1047940000000000114000002D40000039400000DE
:1047A40045400000614000006D4000007940000079
:1047B40087400000000000002E00000043000000BD
:0847C400504F5349580000005A
:1047CC00000000000020004000000000002000401D
:1047DC000000000024430000000000000000000066
:1047EC00D93A0000000000007C45000002000000E7
:1047FC0000000000E60000000090D0031C46000002
:10480C001C4600001C4600001C4600001C46000014
:040000030000023DBA
:00000001FF
